:100C1B00C0F9A4B0999282F880908883C6A1868E81
:0C0C2B00FFC1898C0102040810204080E9
:100ACE00084E101010101010101008380000000002
:100ADE000000000008430000000000000000012F8D
:0A0AEE00000142000136000137004C
:080C9C007FEA7E73DEFEDFFC3F
:010CA400222D
:100C6800538EBF53890F758B18758DFCC28FD28E2A
:050C7800D2ABD2AF2257
:100C7D00538E7F5389F0438905E4F58AF58CC28D37
:030C8D00D28C22E4
:100A00007B007A0079257515007516067D017C003E
:100A1000120905120C9C120C68120C7DE5A0541FE3
:100A20004480F5A07580FFE5A0541F44A0F5A0E424
:060A3000F58053A01F2217
:1008BB00E5A0541F44C0F5A0EF900C2F93F9F580E1
:1008CB00E5A0541F44E0F5A0900C2BE493F580E5D4
:1008DB00A0541F44C0F5A08980E5A0541F44E0F547
:1008EB00A0741B2DF582740C3CF583E493F580EB1F
:0A08FB004A600353807F53A01F22C0
:100B2100E4FFD2B3D2B2D2B1D2B0C2C4D2B4D2B540
:100B3100D2C220B3027F0420B2027F0520B1027F1E
:060B41000620B0027F0750
:010B4700228B
:10099000E4FE7BFFED4C600FA8077401088002C3E2
:1009A00033D8FC4206800EA8077401088002C333C6
:1009B000D8FCF45206EB6E600FE5A0541F4480F59E
:0809C000A0EEF4F58053A01F26
:0109C800220C
:10094F00E54B703C754B017F43120AF97540008FE0
:10095F0041AE407C007D321202AE7DFF1202C08E8E
:10096F00408F41120A6B8F358E348D338C32E4FBFE
:10097F00FA79C8784212001E8F358E348D338C323F
:01098F002245
:100A9F00E4FFEFC3940374809480500974432FF8DC
:100AAF00E4F60F80EDE5427015E536600E14600731
:0E0ABF0014700B754301227544012275450128
:010ACD002206
:10035900E5226003020534752201120B218F56E54F
:1003690056654DFF5556F54CE556F45FF523855610
:100379004DE54C24FB60461470030204FC14700321
:1003890002051424036003020522AF427E00EF70C8
:10039900020536EF64014E70020537C3E536940352
:1003A900748094804003E4F536C3E5379403748080
:1003B90094805003020522E4F537020522E54260E4
:1003C90003020522E536146016147003020467243B
:1003D9000260030204E48541088508250204E4AEAD
:1003E90030AF317C277D101202C07C007D0A1202D9
:1003F900C08D0885082AE4F508AE30AF317C037D4D
:10040900E81202C07C007D0A1202C0ED75F00AA450
:100419002508F508AE30AF317C007D641202C07C3E
:10042900007D0A1202C0ED2508F508F526E4F50855
:10043900AE30AF31FC7D0A1202C07C007D0A120287
:10044900C0ED75F00AA42508F508AE30AF317C007F
:100459007D0A1202C0ED2508F508F527807DE4F52F
:1004690008AF35AE34AD33AC32120202AB07AA067F
:100479007C037DE81203157C007D0A120315ED75D6
:10048900F00AA42508F5087C007D64AF03AE0212CA
:1004990003157C007D0A120315ED2508F508F528DA
:1004A900E4F508AF35AE34AD33AC32120202AB0716
:1004B900AA067C007D0A1203157C007D0A12031529
:1004C900ED75F00AA42508F5087C007D0AAF03AE96
:1004D90002120315ED2508F508F5297B007A007944
:1004E90025750E00750F067D017C001209C9120CD5
:1004F9009C8026E5426402700D752F01052CE52CC0
:100509007017052B8013754201800EE54264026065
:10051900057542028003E4F542E5236406700CE5A3
:0B0529004264027006F559F55AF52FE8
:0105340022A4
:10053500E5216003020710752101FFEFC3940874DC
:10054500809480500F744E2FF8761074382FF8E48D
:10055500F60F80E7E5426003020659E53614602D83
:100565001470030205F424026003020659754E1146
:10057500AE40AF417C007D0A1202C07C007D0A12AC
:1005850002C08D54753E01AE40AF418057754E0F88
:10059500AE30AF317C277D101202C07C007D0A127F
:1005A50002C08D51AE30AF317C037DE81202C07CB4
:1005B500007D0A1202C08D52AE30AF317C007D64E1
:1005C5001202C07C007D0A1202C08D53AE30AF31DD
:1005D5007C007D0A1202C07C007D0A1202C08D5487
:1005E500AE30AF317C007D0A1202C08D5580657535
:1005F5004E0CAF35AE34AD33AC32120202AB07AAA6
:10060500067C037DE81203157C007D0A1203158D17
:10061500527C007D64AF03AE021203157C007D0A97
:100625001203158D53753D01AF35AE34AD33AC3284
:10063500120202AB07AA067C007D0A1203157C0094
:100645007D0A1203158D547C007D0AAF03AE02129C
:1006550003158D55AF427E00EF640160030206E489
:10066500754E12E53714601214603C2402707075E3
:100675004F11753E01852508804F754F0F852A0856
:10068500E50875F00A8485F051852608E50875F0BA
:100695000A8475F00A8485F052E50875F00A8485A8
:1006A500F0538527088022754F0C753D0185280874
:1006B500E50875F00A8475F00A8485F052E5087539
:1006C500F00A8485F053852908E50875F00A8475D4
:1006D500F00A8485F054E50875F00A8485F055EF35
:1006E50064024E7026754E13AE2BAF2CFC7D0A129C
:1006F50002C07C007D0A1202C08D54753E01AE2BEE
:0B070500AF2C7C007D0A1202C08D5555
:0107100022C6
:03001B00020711C8
:10071100C0E0C0F0C083C082C0D075D000C000C0AE
:1007210001C002C003C004C005C006C007054BAF2D
:100731004B7E00BE0106BFF403754B000521E52188
:1007410064327002F5210522E52264647002F5220B
:100751000524E52464087002F524744E2524F8E686
:10076100FD7C0074382524F8E6FB7A00AF241208DA
:10077100BB74432524F8E6FDAF24120990120359F6
:10078100120535120A9F052EE52E7002052DFFAECA
:100791002DBE031DBFE81A752D00752E00C28CAF4A
:1007A1008CEFAD8AF530EDF531758C00758A00D28C
:1007B1008CE52F6028055AE55A70020559FFAE599C
:1007C100BE031ABF2017E52F64027008052CE52C23
:1007D1007002052B755900755A00752F02D3E52C4F
:1007E1009432E52B94004006752B00752C01C3E56E
:1007F1002C9541E52B954050170558E55870020599
:100801005764C84557700CF557F558634A01800382
:10081100754A00D007D006D005D004D003D002D04D
:0E08210001D000D0D0D082D083D0F0D0E03211
:080CA500120A0012094F80FB46
:040C3700D2A07F0ABE
:100C3B00000000000000000000000000000000AEFB
:060C4B00071FEE70EB2212
:080C5100AF03120A36120BEB8F
:0F0C5900D2A1120C37C2A17F0A120C3BC2A022FB
:0C0C9000C2A1120C37D2A17F0A020C3B5B
:020A3600AD070A
:100A3800E4FCECC39408748094805024C2A07F0A1C
:100A4800120C3BED30E704D2A18002C2A17F0A124A
:100A58000C3BD2A0ED25E0FD7F0A120C3B0C80D2A6
:020A6800C2A02A
:010A6A002269
:100B9600E4FCECC39408748094805017120C37ED73
:100BA60025E0FD30A103430501C2A07F0A120C3BDC
:050BB6000C80DFAF051B
:010BBB002217
:0C0BDF00AB05AA04120C597FA0120A36C4
:100BEB00120C37A2A1E433FDC2A07F0A120C3BAF5B
:010BFB0005F4
:010BFC0022D6
:10000300C2A0EF24FF92A17F0A120C3B120C37C24D
:08001300A0D2A17F0A020C3B00
:020AF900AB0749
:100AFB00120C597F90120A36120BEB120C517F918C
:100B0B00120A36120BEB120B96AD077F0112000384
:050B1B00120C90AF0573
:010B200022B2
:1009C9008B098A0A890B120BDFAF03801FE50F150C
:1009D9000FAE0E7002150E4E601AAB09050BE50B32
:1009E900AA0A7002050A14F9120283FF120A3612C2
:0709F9000BEB80D9020C900A
:100905008B108A118912120BDF120C517FA1120A6A
:1009150036120BEBE5161516AE15700215154E6061
:1009250026120B96AB100512E512AA1170020511DD
:1009350014F9EF12029CE51645156004E4FF8002E8
:0A0945007F0112000380CD020C9028
:040BFD007F057E00F2
:100C0100EF1FAA0670011E4A600FE4FDEDC3940CAC
:090C11007480948050EA0D80F318
:010C1A0022B7
:020B4800A907FB
:100B4A00E4FBEBC39408748094805012C294E913B6
:100B5A009294120BFDD294E9C313F90B80E47F053A
:050B6A007E00020C01F9
:100BBC00E4FBEBC39408748094805014C294ECC38F
:100BCC0013FCD294309403430480120BFD0B80E28F
:020BDC00AF0464
:010BDE0022F4
:100B6F00C200D2947F0C7E00120C01C2947F507E83
:100B7F0000120C01D2947F0A7E00120C01A29492F3
:060B8F0000120BFDA200A4
:010B9500223D
:100A6B00120B6F7FCC120B487F44120B48120B6F8B
:100A7B007FCC120B487FBE120B48120BBCA907127E
:100A8B000BBCEFAD01FCEC1201C9E4FBFA798078E9
:040A9B0041020127EC
:10001E00EC4D6011E8497017ED33EC3304600DE4DC
:10002E00FCFFFEFD22E933E8330470F802026E1283
:10003E00023958046009E4CC248150062850090284
:10004E000278284003020275C0E0EB4A7044B98082
:10005E0006D0E0FB020264EF4E701CBD8008EBFF81
:10006E00EAFEE9FD80EBE98DF0A4FEE5F002010762
:10007E00E9CDF9EAFEEBFFEF89F0A4FCE5F0CE89BD
:10008E00F0A42EFFE435F0CD89F0A42DFEE435F07A
:10009E008067EF4E7005BD80D780C3EF8BF0A4ACA8
:1000AE00F0EE8BF0A42CFCE435F0F8EF8AF0A42CE3
:1000BE00E5F038FCE433CB8DF0A42CFCE5F03BF8F6
:1000CE00EE8AF0A42CFCE5F038F8E433CF89F0A4E6
:1000DE002CFCE5F038CF3400CE89F0A42FFFE5F0EC
:1000EE003EFEE433C98DF0A42EFEE5F039CD8AF044
:1000FE00A42FFFE5F03EFEE43DFD33D0E0FB5007BC
:10010E000BBB000F020278EC2CFCEF33FFEE33FE3C
:06011E00ED33FD0202506A
:10012400020278EC5D046005E85904700302026E73
:10013400120239580460F6EC4860F2EC7004FDFEDB
:10014400FF22C860DB2481C85009C39860025006AE
:100154000202759850CAF582E9294B4A7005AB82B0
:1001640002026475F0007C1A7880C3EF9BEE9AED6E
:1001740099400DC3EF9BFFEE9AFEED99FDE842F026
:10018400DC23ACF0D0E0FFD0E0FED0E0FDAB822079
:10019400E7101BEB60BAEC2CFCEF33FFEE33FEED03
:1001A40033FD020250E803F830E705C0F075F000B3
:1001B400EF2FFFEE33FEED33FD40B830E7C280AAE7
:1001C40075F020800E75F010800575F0087D007EB6
:1001D400007F003392D530D50312034BEC3340102B
:1001E400EF33FFEE33FEED33FDEC33FCD5F0ED22BF
:0E01F400E5F0247EA2D513CC92E7CDCEFF22FB
:10020200EDD2E7CD33EC3392D524814006E4FFFEF4
:10021200FDFC22FCE4CFCECDCC24E0501174FF8053
:10022200EDC3CC13CCCD13CDCE13CECF13CF0470F0
:07023200F030D5DE02034BA2
:10023900E9D2E7C933E833F892D5EDD2E7CD33EC0B
:0702490033FC5002B2D52284
:10025000EC30E7100FBF000C0EBE00080DBD00040F
:100260000BEB6014A2D5EB13FCED92E7FD2274FFBB
:10027000FCFDFEFF22E480F8A2D574FF13FC7D8014
:03028000E480EF28
:0300000002082FC4
:0C082F00787FE4F6D8FD75815A02087647
:10028300BB010689828A83E0225002E722BBFE0279
:09029300E32289828A83E49322AC
:10029C00BB010689828A83F0225002F722BBFE0141
:0202AC00F3223B
:1002AE00EF8DF0A4A8F0CF8CF0A428CE8DF0A42E64
:0202BE00FE221E
:1002C000BC000BBE0029EF8DF084FFADF022E4CC22
:1002D000F875F008EF2FFFEE33FEEC33FCEE9DECEB
:1002E000984005FCEE9DFE0FD5F0E9E4CEFD22ED31
:1002F000F8F5F0EE8420D21CFEADF075F008EF2F7B
:10030000FFED33FD4007985006D5F0F222C398FD6B
:050310000FD5F0EA2208
:10031500C2D5EC30E709B2D5E4C39DFDE49CFCEE03
:1003250030E715B2D5E4C39FFFE49EFE1202C0C3B9
:10033500E49DFDE49CFC80031202C030D507C3E4B4
:060345009FFFE49EFE2272
:0E034B00C3E49FFFE49EFEE49DFDE49CFC22C3
:10083B00020CA5E493A3F8E493A34003F68001F222
:10084B0008DFF48029E493A3F85407240CC8C333BE
:10085B00C4540F4420C8834004F456800146F6DF8D
:10086B00E4800B0102040810204080900ACEE47E45
:10087B00019360BCA3FF543F30E509541FFEE49382
:10088B00A360010ECF54C025E060A840B8E493A349
:10089B00FAE493A3F8E493A3C8C582C8CAC583CA74
:1008AB00F0A3C8C582C8CAC583CADFE9DEE780BE2C
:010AF80000FD
:00000001FF
