:1009CF00C0F9A4B0999282F88090FF8EC18883C637
:0A09DF00A1860102040810204080E8
:10096700083D0A0A0A0A0A0A0A0A082B00000000B8
:100977000000000008330000000000000000C180F4
:07098700012200C181C183C0
:100A1A00538EBF53890F758B18758DFCC28FD28E7A
:050A2A00D2ABD2AF22A7
:100A44005389F0438905E4F58AF58CC28DD28CD2A2
:040A5400A9D2AF2252
:1009B500E5A0541F4480F5A07580FFE5A0541F44B1
:0A09C500A0F5A0E4F58053A01F2266
:10083D00E5A0541F44C0F5A0EF9009E193F9F580B0
:10084D00E5A0541F44E0F5A09009D9E493F580E5A7
:10085D00A0541F44C0F5A08980E5A0541F44E0F5C5
:10086D00A0E493F580EB4A600353807F74CF2DF5A0
:0E087D008274093CF583E493528053A01F223D
:1008CF00E4FE7BFFED4C600FA8077401088002C3A4
:1008DF0033D8FC4206800EA8077401088002C33388
:1008EF00D8FCF45206EB6E600FE5A0541F4480F560
:0808FF00A0EEF4F58053A01FE8
:0109070022CD
:100A0300E4FF20B3027F0420B2027F0520B1027FFE
:060A13000620B0027F077F
:010A190022BA
:1006A700E4FFEFC3940874809480500974332FF8E3
:1006B700E4F60F80ED200103020758AC46E412026E
:1006C70047E4FBFA794C78421201278F0B8E0A8D8B
:1006D700098C08AF227E00EF7003753401EF6401C7
:1006E7004E7003753301AF0BAE0AAD09AC08E4FBDE
:1006F700FA79C0783F1201C460025014E4FFFE7D0E
:10070700207C40AB0BAA0AA909A8081201C440140F
:10071700E4FFFE7D607C40AB0BAA0AA909A808127A
:1007270001C44003753501D374E8952974039528EE
:10073700500BC3E5299488E5289413400BC3E5299A
:100747009410E52894274003753601200203753776
:0107570001A0
:01075800227E
:1007E500E5237053752301120A038F45E545653CE2
:1007F500FF5545F53BE545F45FF52485453CE53B6F
:1008050024FB601514602514602824037029052233
:10081500E52264027021F52222A202B3920220028F
:1008250002D200300211C20075466622A201B392BF
:080835000122A203B392032289
:10047900E52160030205E9752101FFEFC3940874C2
:10048900809480500F742B2FF8E4F6743D2FF87682
:100499000A0F80E72003030205E9E522147003022D
:1004A90005830460030205E9753D0BC3E528940043
:1004B90050030205E9AE28AF297C007D0A1202FC2F
:1004C9008D44C3E529940AE528940050030205E9FF
:1004D900AE28AF297C007D0A1202FC7C007D0A123D
:1004E90002FC8D43C3E5299464E528940050030276
:1004F90005E9AE28AF297C007D641202FC7C007DF1
:100509000A1202FC8D42C3E52994E8E528940350B8
:10051900030205E9AE28AF297C037DE81202FC7CC1
:10052900007D0A1202FC8D41C3E5299410E5289447
:100539002750030205E9AE28AF297C277D10120256
:10054900FC7C007D0A1202FC8D40AE28AF29E4FC38
:10055900FD7BA07A867901F8D31203954003020541
:10056900E9AE28AF29E4FCFDF812088BE47B0AFA0E
:10057900F9F812088BAF038F3F22AC46E412024709
:10058900E4FBFA794C78421201278F0B8E0A8D0908
:100599008C08753D0C12027B7C007D0A1203518D7B
:1005A90042753001E4FFFE7D207C41AB0BAA0AA90C
:1005B90009A80812001E12027B7C007D0A12035151
:1005C9008D43E4FFFE7DC87C42AB0BAA0AA909A8AA
:1005D9000812001E12027B7C007D0A1203518D4411
:0105E90022EF
:03001B000205EAF1
:1005EA00C0E0C0F0C083C082C0D075D000C000C0D7
:1005FA0001C002C003C004C005C006C0070521E54A
:10060A002164327002F5210523E52364647002F542
:10061A00230525E52564087002F525743D2525F88E
:10062A00E6FD7C00742B2525F8E6FB7A00AF25123F
:10063A00083D74332525F8E6FDAF251208CF1207C9
:10064A00E51204791206A70527E52770020526FF99
:10065A00AE26BE0319BFE816752600752700AF8CB3
:10066A00EFAD8AF528EDF529758A00758C00300002
:10067A0011052AE52A64287009F52A7F4312093DE3
:10068A008F46D007D006D005D004D003D002D001BF
:0D069A00D000D0D0D082D083D0F0D0E0329C
:0B0A7300120A1A120A441209B580FE94
:0409E900D2A07F0A0F
:1009ED00000000000000000000000000000000AE4C
:0609FD00071FEE70EB2263
:0F0A5800D2A11209E9C2A17F0A1209EDC2A022A0
:0C0A6700C2A11209E9D2A17F0A0209ED28
:02090800AD0739
:10090A00E4FCECC39408748094805024C2A07F0A4B
:10091A001209EDED30E704D2A18002C2A17F0A12CA
:10092A0009EDD2A0ED25E0FD7F0A1209ED0C80D277
:02093A00C2A059
:01093C002298
:10098F00E4FCECC394087480948050171209E9EDCD
:10099F0025E0FD30A103430501C2A07F0A1209ED36
:0509AF000C80DFAF0524
:0109B4002220
:030A2F00120908A1
:100A32001209E9A2A1E433FDC2A07F0A1209EDAFB7
:010A420005AE
:010A43002290
:10000300C2A0EF24FF92A17F0A1209ED1209E9C2EF
:08001300A0D2A17F0A0209ED51
:02093D00AB0706
:10093F00120A587F90120A2FAF03120A2F120A5869
:10094F007F91120908120A3212098FAD077F011227
:07095F000003120A67AF0557
:01096600226E
:10001E00EC4D6011E8497017ED33EC3304600DE4DC
:10002E00FCFFFEFD22E933E8330470F80202E7120A
:10003E0002B258046009E4CC24815006285009020B
:10004E0002F12840030202EEC0E0EB4A7044B98090
:10005E0006D0E0FB0202DDEF4E701CBD8008EBFF08
:10006E00EAFEE9FD80EBE98DF0A4FEE5F002010762
:10007E00E9CDF9EAFEEBFFEF89F0A4FCE5F0CE89BD
:10008E00F0A42EFFE435F0CD89F0A42DFEE435F07A
:10009E008067EF4E7005BD80D780C3EF8BF0A4ACA8
:1000AE00F0EE8BF0A42CFCE435F0F8EF8AF0A42CE3
:1000BE00E5F038FCE433CB8DF0A42CFCE5F03BF8F6
:1000CE00EE8AF0A42CFCE5F038F8E433CF89F0A4E6
:1000DE002CFCE5F038CF3400CE89F0A42FFFE5F0EC
:1000EE003EFEE433C98DF0A42EFEE5F039CD8AF044
:1000FE00A42FFFE5F03EFEE43DFD33D0E0FB5007BC
:10010E000BBB000F0202F1EC2CFCEF33FFEE33FEC3
:06011E00ED33FD0202C9F1
:100124000202F1EC5D046005E8590470030202E781
:100134001202B2580460F6EC4860F2EC7004FDFE62
:10014400FF22C860DB2481C85009C39860025006AE
:100154000202EE9850CAF582E9294B4A7005AB8237
:100164000202DD75F0007C1A7880C3EF9BEE9AEDF5
:1001740099400DC3EF9BFFEE9AFEED99FDE842F026
:10018400DC23ACF0D0E0FFD0E0FED0E0FDAB822079
:10019400E7101BEB60BAEC2CFCEF33FFEE33FEED03
:1001A40033FD0202C9E803F830E705C0F075F0003A
:1001B400EF2FFFEE33FEED33FD40B830E7C280AAE7
:1001C40074F8CC6480CCC86480C8F58204604FC3E2
:1001D400EB9FF5F0EA9E42F0E99D42F0E89C45F081
:1001E400603C501DE5825FFFE582D313CB5BCBF40B
:1001F4002B5582FB50280ABA002409B90020088034
:100204001DE5825BFBE582D313CF5FCFF4C3132FCD
:100214005582FF50090EBE00050DBD00010CC3EB55
:100224009FF5F0EA9E42F0E99D42F0E89C45F060BB
:0902340007CC4820E701B3EC22DD
:10023D0075F020800E75F010800575F0087D007E3C
:10024D00007F003392D530D503120387EC33401075
:10025D00EF33FFEE33FEED33FDEC33FCD5F0ED2245
:0E026D00E5F0247EA2D513CC92E7CDCEFF2281
:10027B00EDD2E7CD33EC3392D524814006E4FFFE7B
:10028B00FDFC22FCE4CFCECDCC24E0501174FF80DA
:10029B00EDC3CC13CCCD13CDCE13CECF13CF047077
:0702AB00F030D5DE020387ED
:1002B200E9D2E7C933E833F892D5EDD2E7CD33EC92
:0702C20033FC5002B2D5220B
:1002C900EC30E7100FBF000C0EBE00080DBD000496
:1002D9000BEB6014A2D5EB13FCED92E7FD2274FF42
:1002E900FCFDFEFF22E480F8A2D574FF13FC7D809B
:0302F900E480EFAF
:030000000207599B
:0C075900787FE4F6D8FD7581460207A009
:1002FC00BC000BBE0029EF8DF084FFADF022E4CCE6
:10030C00F875F008EF2FFFEE33FEEC33FCEE9DECAE
:10031C00984005FCEE9DFE0FD5F0E9E4CEFD22EDF4
:10032C00F8F5F0EE8420D21CFEADF075F008EF2F3E
:10033C00FFED33FD4007985006D5F0F222C398FD2F
:05034C000FD5F0EA22CC
:10035100C2D5EC30E709B2D5E4C39DFDE49CFCEEC7
:1003610030E715B2D5E4C39FFFE49EFE1202FCC341
:10037100E49DFDE49CFC80031202FC30D507C3E43C
:060381009FFFE49EFE2236
:10088B00C2D5E830E70FB2D5E4C39BFBE49AFAE498
:10089B0099F9E498F8EC30E717B2D51208C11203B6
:1008AB00E7E4C39BFBE49AFAE499F9E498F8800334
:1008BB001203E730D50DE4C39FFFE49EFEE49DFDDC
:0408CB00E49CFC228B
:0E038700C3E49FFFE49EFEE49DFDE49CFC2287
:10039500EB9FF5F0EA9E42F0E99D42F0EC6480C8DF
:0603A50064809845F0227F
:10076500020A73E493A3F8E493A34003F68001F22D
:1007750008DFF48029E493A3F85407240CC8C33395
:10078500C4540F4420C8834004F456800146F6DF64
:10079500E4800B0102040810204080900967E47E84
:1007A500019360BCA3FF543F30E509541FFEE49359
:1007B500A360010ECF54C025E060A840B8E493A320
:1007C500FAE493A3F8E493A3C8C582C8CAC583CA4B
:1007D500F0A3C8C582C8CAC583CADFE9DEE780BE03
:01098E000068
:1003AB0075F008758200EF2FFFEE33FECD33CDCC09
:1003BB0033CCC58233C5829BED9AEC99E58298408C
:1003CB000CF582EE9BFEED9AFDEC99FC0FD5F0D669
:1003DB00E4CEFBE4CDFAE4CCF9A88222B800C1B993
:1003EB000059BA002DEC8BF084CFCECDFCE5F0CBD1
:1003FB00F97818EF2FFFEE33FEED33FDEC33FCEB0A
:10040B0033FB10D703994004EB99FB0FD8E5E4F9C4
:10041B00FA227818EF2FFFEE33FEED33FDEC33FCB1
:10042B00C933C910D7059BE99A4007EC9BFCE99AA5
:10043B00F90FD8E0E4C9FAE4CCFB2275F010EF2FEA
:10044B00FFEE33FEED33FDCC33CCC833C810D707EA
:10045B009BEC9AE899400AED9BFDEC9AFCE899F825
:0E046B000FD5F0DAE4CDFBE4CCFAE4C8F922B8
:00000001FF
