:100B0C00C0F9A4B0999282F88090FF88C68C01023B
:060B1C00040810204080D7
:1009890001220108460A0A0A0A0A0A0A0A08320062
:1009990000000000000000083C000000000000000A
:0909A90000042A41C80000C1004D
:1005A80020003D7524FFAF2DAE2CAD2BAC2AAB2916
:1005B800AA28A927A8261202AC5003E4F524AC24E3
:1005C800E412032FE4FBFA797F784312020FE4FB6D
:1005D800FA79A078401201068F318E308D2F8C2E3B
:1005E80020000302067EE4FFFE7D407C40AB29AA82
:1005F80028A927A826120106E4FBFA79A078411257
:10060800020FE4FBFAF978C01200158F0B8E0A8DE1
:10061800098C08E4FFFE7D807C40AB0BAA0AA9097F
:10062800A8081202AC400BE4F50BF50A75098075B1
:100638000840E4FFFEFD7C40AB0BAA0AA909A80804
:100648001202AC6002500AE4F50BF50AF5097508C8
:1006580040850B31850A3085092F85082EAF31AECC
:1006680030AD2FAC2E1203637C007DFF1203E47DB6
:0B067800051203F68F24AF24020B379D
:10068300E52360030207187523011208E98F4EE57D
:100693004E6545FF554EF544E54EF45FF525854E11
:1006A30045E54424FB602D24FD603014603D2405A2
:1006B3007047E5226401700FAF2DAE2CAD2BAC2A31
:1006C3001203638E3A8F3B0522E5226404702A7578
:1006D30022018025A200B39200801EE522640270ED
:1006E30018E53B153B7012153A800EE52264027043
:1006F30008053BE53B7002053AE52564047016E501
:100703002264037010AC3AAD3BEC12032A8F2D8E9A
:060713002C8D2B8C2A2224
:10087600E4FFEFC39408748094805009743C2FF809
:10088600E4F60F80ED200003753C01AF227E00EFF9
:1008960064017003753D01EF64024E7003753E01FD
:0908A600EF64034E7003753F017D
:0108AF002226
:10048F00E52160030205A7752101E52224FE6078AE
:10049F00147003020545240260030205A775460C7C
:1004AF0075470A75480A75490AAF29AE28AD27ACBA
:1004BF0026120363AB07AA067C007D0A1203F67CA3
:1004CF00007D0A1203F68D4A7C007D0AAF03AE024F
:1004DF001203F68D4B753701E4FFFE7D207C41AB97
:1004EF0029AA28A927A8261201061203637C007DDA
:1004FF000A1203F68D4CE4FFFE7DC87C42AB29AA9D
:10050F0028A927A82602059875460D75470A75482C
:10051F000A75490A754A0A754B0AE4F537AE3AAFC0
:10052F003BFC7D0A1203F67C007D0A1203F68D4C0C
:10053F00AE3AAF3B805975460B75470A75480A7539
:10054F00490A754A0AAF31AE30AD2FAC2E12036394
:10055F007C007D0A1203F68D4B753701E4FFFE7D9B
:10056F00207C41AB31AA30A92FA82E12010612030D
:10057F00637C007D0A1203F68D4CE4FFFE7DC87C80
:10058F0042AB31AA30A92FA82E1201061203637CA9
:09059F00007D0A1203F68D4D22C5
:03000B000207A544
:1007A500C0E0C0F0C083C082C0D075D000C000C01A
:1007B50001C002C003C004C005C006C0070521E58D
:1007C5002164327002F5210523E52364647002F586
:1007D50023054FE54F64087002F54F7446254FF821
:1007E500E6FD7C007432254FF8E6FB7A00AF4F1228
:1007F5000829743C254FF8E6FD7C00AF4F1208B080
:1008050012068312048F120876D007D006D005D0C1
:1008150004D003D002D001D000D0D0D082D083D074
:04082500F0D0E032FD
:100AF600120AAA120B221205A81209558F298E284E
:060B06008D278C2680F013
:1008E900E4FFD2B3D2B2D2B1D2B0C2C4D2B4D2B57B
:1008F900D2C220B3027F0420B2027F05D2B3D2B2A2
:10090900D2B1D2B0C2C2D2B4D2B5D2C420B3027F5E
:060919000820B2027F0974
:01091F0022B5
:1008B000E4FE7BFFED4C600FA8077401088002C3C3
:1008C00033D8FC4206800EA8077401088002C333A7
:1008D000D8FCF45206EE6B600FE5A0541F4480F57F
:0808E000A0EEF4F58053A01F07
:0108E80022ED
:100AAA00E5A0541F4480F5A07580FFE5A0541F44BB
:0A0ABA00A0F5A0E4F58053A01F2270
:10082900E5A0541F44C0F5A0EF900B1A93F9F58089
:10083900E5A0541F44E0F5A0900B16E493F580E57C
:10084900A0541F44C0F5A08980E5A0541F44E0F5D9
:10085900A07580FFEB4A600353807F740C2DF582ED
:0D086900740B3CF583E493528053A01F22D2
:100B2200538E7F5389F0758A18758CFCC28DD28CD6
:050B3200D2AFD2A922A0
:040A6F007F057E0081
:100A7300EF1FAA0670011E4A600FE4FDEDC3940C3C
:090A83007480948050EA0D80F3A8
:010A8C002247
:0209B300A90792
:1009B500E4FBEBC39408748094805012C294E9134D
:1009C5009294120A6FD294E9C313F90B80E47F0560
:0509D5007E00020A7320
:100A4C00E4FBEBC39408748094805014C294ECC300
:100A5C0013FCD294309403430480120A6F0B80E28F
:020A6C00AF04D5
:010A6E002265
:1009DA00C201D2947F0C7E00120A73C2947F507EA9
:1009EA0000120A73D2947F0A7E00120A73A29492AA
:0609FA0001120A6FA201C8
:010A000022D3
:100955001209DA7FCC1209B37F441209B31209DAFE
:100965007FCC1209B37FBE1209B3120A4CA9071234
:100975000A4CEFAD01FCEC12032AE4FBFA7980780E
:040985004102020F1A
:040AC400D2A07F0538
:100AC800000000000000000000000000000000AE70
:060AD800071FEE70EB2287
:0F0B4C00D2A1120AC4C2A17F05120AC8C2A022F8
:0C0B5B00C2A1120AC4D2A17F05020AC880
:02092000AD0721
:10092200E4FCECC39408748094805024C2A07F0538
:10093200120AC8ED30E704D2A18002C2A17F0512DB
:100942000AC8D2A0ED25E0FD7F05120AC80C80D2AC
:02095200C2A041
:010954002280
:100A0100E4FCECC39408748094805017120AC4ED7E
:100A110025E0FD30A103430501C2A07F05120AC8EC
:050A21000C80DFAF05B1
:010A260022AD
:0B0A8D00120920120A98AF0312092082
:100A9800120AC4A2A1E433FDC2A07F05120AC8AF9E
:010AA8000548
:010AA900222A
:100ADE00C2A0EF24FF92A17F05120AC8120AC4C257
:080AEE00A0D2A17F05020AC895
:020A2700AB071B
:100A2900120B4C7F90120A8D120B4C7F91120920E8
:100A3900120A98120A01AD077F01120ADE120B5B36
:020A4900AF05F7
:010A4B002288
:100B3700AB07120B4C7F90120920120A987F4112C3
:050B47000A8D020B5BAA
:10000E000203CFE86480F8E933E83360110460F04E
:10001E00ED33EC337009E8FCE9FDEAFEEBFF220458
:10002E0060DED3EB9FEA9EE99DE8C2E78CF0C2F753
:10003E0095F0400CE8CCF8E9CDF9EACEFAEBCFFB1F
:10004E0012039A85D0F05804700320D5B3E80470DB
:10005E00075002B2D50203D992D5EC0460F7E4CC76
:10006E00C0E0C398F8603B94186008400DD0E0FBE8
:10007E000203B1E4FBFAC9FC8028E830E406E4C9C7
:10008E00FBE4CAFCE830E305E4C9CACBFCE854073C
:10009E006010F8C3E913F9EA13FAEB13FBEC13FC47
:1000AE00D8F130F52FC3E49CFCEF9BFFEE9AFEEDEA
:1000BE0099FDD0E0FBEF4E4D4C701222DB03020394
:1000CE00D6EC2CFCEF33FFEE33FEED33FDED30E7D7
:1000DE00EB0203B1EF2BFFEE3AFEED39FDD0E0FB64
:1000EE0050130BBB00030203D9ED13FDEE13FEEF0D
:0800FE0013FFEC13FC0203B137
:10010600EC4D6011E8497017ED33EC3304600DE4F3
:10011600FCFFFEFD22E933E8330470F80203CF1238
:10012600039A58046009E4CC248150062850090239
:1001360003D92840030203D6C0E0EB4A7044B980D5
:1001460006D0E0FB0203C5EF4E701CBD8008EBFF36
:10015600EAFEE9FD80EBE98DF0A4FEE5F00201EF91
:10016600E9CDF9EAFEEBFFEF89F0A4FCE5F0CE89D4
:10017600F0A42EFFE435F0CD89F0A42DFEE435F091
:100186008067EF4E7005BD80D780C3EF8BF0A4ACBF
:10019600F0EE8BF0A42CFCE435F0F8EF8AF0A42CFA
:1001A600E5F038FCE433CB8DF0A42CFCE5F03BF80D
:1001B600EE8AF0A42CFCE5F038F8E433CF89F0A4FD
:1001C6002CFCE5F038CF3400CE89F0A42FFFE5F003
:1001D6003EFEE433C98DF0A42EFEE5F039CD8AF05B
:1001E600A42FFFE5F03EFEE43DFD33D0E0FB5007D3
:1001F6000BBB000F0203D9EC2CFCEF33FFEE33FEF2
:06020600ED33FD0203B11F
:10020C000203D9EC5D046005E8590470030203CFC6
:10021C0012039A580460F6EC4860F2EC7004FDFE90
:10022C00FF22C860DB2481C85009C39860025006C5
:10023C000203D69850CAF582E9294B4A7005AB8265
:10024C000203C575F0007C1A7880C3EF9BEE9AED23
:10025C0099400DC3EF9BFFEE9AFEED99FDE842F03D
:10026C00DC23ACF0D0E0FFD0E0FED0E0FDAB822090
:10027C00E7101BEB60BAEC2CFCEF33FFEE33FEED1A
:10028C0033FD0203B1E803F830E705C0F075F00068
:10029C00EF2FFFEE33FEED33FD40B830E7C280AAFE
:1002AC0074F8CC6480CCC86480C8F58204604FC3F9
:1002BC00EB9FF5F0EA9E42F0E99D42F0E89C45F098
:1002CC00603C501DE5825FFFE582D313CB5BCBF422
:1002DC002B5582FB50280ABA002409B9002008804B
:1002EC001DE5825BFBE582D313CF5FCFF4C3132FE5
:1002FC005582FF50090EBE00050DBD00010CC3EB6D
:10030C009FF5F0EA9E42F0E99D42F0E89C45F060D2
:09031C0007CC4820E701B3EC22F4
:1003250075F020800E75F010800575F0087D007E53
:10033500007F003392D530D50312042CEC334010E6
:10034500EF33FFEE33FEED33FDEC33FCD5F0ED225C
:0E035500E5F0247EA2D513CC92E7CDCEFF2298
:10036300EDD2E7CD33EC3392D524814006E4FFFE92
:10037300FDFC22FCE4CFCECDCC24E0501174FF80F1
:10038300EDC3CC13CCCD13CDCE13CECF13CF04708E
:07039300F030D5DE02042C5E
:10039A00E9D2E7C933E833F892D5EDD2E7CD33ECA9
:0703AA0033FC5002B2D52222
:1003B100EC30E7100FBF000C0EBE00080DBD0004AD
:1003C1000BEB6014A2D5EB13FCED92E7FD2274FF59
:1003D100FCFDFEFF22E480F8A2D574FF13FC7D80B2
:0303E100E480EFC6
:03000000020719DB
:0C071900787FE4F6D8FD75814F02076080
:1003E400EF8DF0A4A8F0CF8CF0A428CE8DF0A42E2D
:0203F400FE22E7
:1003F600C2D5EC30E709B2D5E4C39DFDE49CFCEE22
:1004060030E715B2D5E4C39FFFE49EFE12043AC35B
:10041600E49DFDE49CFC800312043A30D507C3E456
:060426009FFFE49EFE2290
:0E042C00C3E49FFFE49EFEE49DFDE49CFC22E1
:10072500020AF6E493A3F8E493A34003F68001F2EA
:1007350008DFF48029E493A3F85407240CC8C333D5
:10074500C4540F4420C8834004F456800146F6DFA4
:10075500E4800B0102040810204080900989E47EA2
:10076500019360BCA3FF543F30E509541FFEE49399
:10077500A360010ECF54C025E060A840B8E493A360
:10078500FAE493A3F8E493A3C8C582C8CAC583CA8B
:10079500F0A3C8C582C8CAC583CADFE9DEE780BE43
:0109B2000044
:10043A00BC000BBE0029EF8DF084FFADF022E4CCA6
:10044A00F875F008EF2FFFEE33FEEC33FCEE9DEC6F
:10045A00984005FCEE9DFE0FD5F0E9E4CEFD22EDB5
:10046A00F8F5F0EE8420D21CFEADF075F008EF2FFF
:10047A00FFED33FD4007985006D5F0F222C398FDF0
:05048A000FD5F0EA228D
:00000001FF
