:1009FD00C0F9A4B0999282F880908883C6A1868EA2
:090A0D00FF0102040810204080E2
:1009C900084C101010101010101008410000000001
:0909D90000000000C101014A0008
:080A8A007FEA7E73DEFEDFFC53
:010A92002241
:100A4500538E7F758900758A18758CFCC28DD28C82
:050A5500D2A9D2AF227E
:0600030000007F39DFFE62
:0100090022D4
:1009AF00E5A0541F4480F5A07580FFE5A0541F44B7
:0A09BF00A0F5A0E4F58053A01F226C
:10093E00E4FFD2B3D2B2D2B1D2B0C2C4D2B4D2B525
:10094E00D2C220B3027F0420B2027F0520B1027F03
:06095E000620B0027F0735
:010964002270
:1007AF00E5A0541F44C0F5A0EF900A0E93FEF5800C
:1007BF00E5A0541F44E0F5A0900A0DE493F580E501
:1007CF00A0541F44C0F5A08E80E5A0541F44E0F54F
:1007DF00A074FD2DF58274093CF583E493F58053E5
:0307EF00A01F2226
:1008A200ED4C600FA8077401088002C333D8FC42E4
:1008B20006800EA8077401088002C333D8FCF452E4
:1008C20006E5086E600EE5A0541F4480F5A0EEF424
:0408D200F5808E0817
:0108D60022FF
:100A2E00E4FEEEC3940A74809480500AD2901200B1
:060A3E0003C2900E80ECE3
:010A4400228F
:10083400E4F58BF58D120A2ED28E309103308FFAA7
:10084400C28ED200E4F532308F04C28FFF22AF8D06
:10085400EFAD8BFCEC1202117B967A43798B783CDA
:0708640012010612024A22F4
:10075800E4F50D74272525F8E6FFE540C39F50060C
:10076800C3EF9540F50DAC0DE41202167B0A7AD75B
:1007780079A3783C120106C004C005C006C007ACC6
:100788000DE4120216D003D002D001D000120015D9
:1007980012024A8F0DC3EF94FF7480948040037552
:0707A8000DFFAF0D020A5A1C
:10086B007F01EFC3940874809480500974412FF872
:10087B00E4F60F80EDAF4A7E00EF6402700375471C
:10088B0001EF64014E7003754801EF4E7003D20007
:06089B0022C200E4F54159
:0108A1002234
:10049700E52260030205B675220112093E8F54E575
:1004A70054654BFF5554F549E554F45FF5268554DB
:1004B7004BE54924FB700302054B147003020552F8
:1004C70014700302056A240360030205B6E4F54AC3
:1004D7000525E525640A7002F5251208348F347462
:1004E700272525F8A634E4FFFEEFC394057480940E
:1004F70080501274272FF8E6FDAC060E74352CF8E1
:10050700A6050F80E47F05E4FEEFC3940A74809488
:1005170080501274272FF8E6FDAC060E743A2CF8BB
:10052700A6050F80E47B007A007935750C05E4FD9C
:1005370012090C120A8A7B007A00793A750C057D3C
:100547000802090C754A0185253322E54A640270C1
:1005570005854021F54AE54A6402605385214075C7
:100567004A0222E54A14602A14603224027040A22B
:1005770001B3920130013874262525F8E6FF742768
:100587002525F8E6FE2FF53FE5257023E5302EF506
:100597003F220533E533640A7015F53322740A25C3
:0F05A70040F540D3945A748094804003E4F540AB
:0105B6002222
:10035900E5556003020496755501FFEFC3940874CF
:100369008094805009744C2FF876100F80EDE54A7F
:1003790014700302043B14700302047D2402600319
:10038900020496E54A6003020496A20133F54C2063
:100399000154AF257E00EF7023E53075F064847554
:1003A900F00A8485F04EE53075F00A8475F00A8408
:1003B90085F04FE53075F00A8485F050EF4E6026E0
:1003C90074262525F8E6FF75F0648475F00A84859E
:1003D900F04EEF75F00A8475F00A8485F04FE675E2
:1003E900F00A8485F050300143AF3F7E00C3EF949B
:1003F9006474809480400DE53F75F0648475F00A5B
:100409008485F04EC3EF940AEE64809480400DE534
:100419003F75F00A8475F00A8485F04FC37480949F
:10042900804009E53F75F00A8485F0507427252539
:100439008025E5332401FBE433FA7C007D0AAF0310
:10044900FE1202F68F4C7C007D0AAF03AE02120247
:10045900F68D4D74272533F8E6FF75F0648475F041
:100469000A8485F051EF75F00A8475F00A8485F0E5
:1004790052E68012754C0FE54075F00A8475F00A52
:0D0489008485F052E54075F00A8485F0533B
:010496002243
:03000B000205B734
:1005B700C0E0C0F0C083C082C0D075D000C000C00A
:1005C70001C002C003C004C005C006C0070555E549
:1005D7005564327002F5550522E52264647002F510
:1005E700220531E53164087002F531744C2531F884
:1005F700E6FD7C00AF311207AF74412531F8E6FD07
:10060700AF311208A212086B120497120359300077
:100617002DE532640A60170524E52470020523647A
:10062700C845237009F523F5240532634101E532F6
:10063700640A700AC200F532F523F524F541D007A4
:10064700D006D005D004D003D002D001D000D0D03E
:09065700D082D083D0F0D0E03253
:1006EC007B007A007935751105E4FD1207F2120AC8
:1006FC008A7B007A00793A7511057D081207F2128F
:10070C000A8AE4FFFEEFC39405748094805012AD06
:10071C00060E74352DF8E6FD74272FF8A6050F800C
:10072C00E47F05E4FEEFC3940A748094805012AD0C
:10073C00060E743A2DF8E6FD74272FF8A6050F80E7
:0C074C00E41209AF120A4512075880FBA6
:0409E300D2A07F0A15
:1009E700000000000000000000000000000000AE52
:0609F700071FEE70EB2269
:0F0A6F00D2A11209E3C2A17F0A1209E7C2A02295
:0C0A7E00C2A11209E3D2A17F0A0209E71D
:0208D700AD076B
:1008D900E4FCECC39408748094805024C2A07F0A7D
:1008E9001209E7ED30E704D2A18002C2A17F0A1202
:1008F90009E7D2A0ED25E0FD7F0A1209E70C80D2B5
:02090900C2A08A
:01090B0022C9
:10096500E4FCECC394087480948050171209E3EDFD
:1009750025E0FD30A103430501C2A07F0A1209E766
:050985000C80DFAF054E
:01098A00224A
:10098B00AB05120A6F7FA01208D712099DAF031295
:02099B0008D77B
:10099D001209E3A2A1E433FDC2A07F0A1209E7AF59
:0109AD000544
:0109AE002226
:100A1600C2A0EF24FF92A17F0A1209E71209E3C2DE
:080A2600A0D2A17F0A0209E73A
:10090C008B088A09890A12098BAF0C150CEF601F32
:10091C00AB08050AE50AAA097002050914F91202C6
:10092C00CBFF1208D712099D7FC81209E780DA02A3
:02093C000A7E31
:1007F2008B0D8A0E890F12098B120A6F7FA11208C4
:10080200D712099DAF111511EF6024120965AB0DC6
:10081200050FE50FAA0E7002050E14F9EF1202E49D
:10082200E5116004E4FF80027F01120A1680D502FE
:020832000A7E3C
:100A5A00AB07120A6F7F901208D712099D7F4112C5
:050A6A000992020A7E62
:10000E000202B6E86480F8E933E83360110460F068
:10001E00ED33EC337009E8FCE9FDEAFEEBFF220458
:10002E0060DED3EB9FEA9EE99DE8C2E78CF0C2F753
:10003E0095F0400CE8CCF8E9CDF9EACEFAEBCFFB1F
:10004E0012028185D0F05804700320D5B3E80470F5
:10005E00075002B2D50202C092D5EC0460F7E4CC90
:10006E00C0E0C398F8603B94186008400DD0E0FBE8
:10007E00020298E4FBFAC9FC8028E830E406E4C9E1
:10008E00FBE4CAFCE830E305E4C9CACBFCE854073C
:10009E006010F8C3E913F9EA13FAEB13FBEC13FC47
:1000AE00D8F130F52FC3E49CFCEF9BFFEE9AFEEDEA
:1000BE0099FDD0E0FBEF4E4D4C701222DB03020295
:1000CE00BDEC2CFCEF33FFEE33FEED33FDED30E7F0
:1000DE00EB020298EF2BFFEE3AFEED39FDD0E0FB7E
:1000EE0050130BBB00030202C0ED13FDEE13FEEF27
:0800FE0013FFEC13FC02029851
:10010600EC4D6011E8497017ED33EC3304600DE4F3
:10011600FCFFFEFD22E933E8330470F80202B61252
:10012600028158046009E4CC248150062850090253
:1001360002C02840030202BDC0E0EB4A7044B98009
:1001460006D0E0FB0202ACEF4E701CBD8008EBFF50
:10015600EAFEE9FD80EBE98DF0A4FEE5F00201EF91
:10016600E9CDF9EAFEEBFFEF89F0A4FCE5F0CE89D4
:10017600F0A42EFFE435F0CD89F0A42DFEE435F091
:100186008067EF4E7005BD80D780C3EF8BF0A4ACBF
:10019600F0EE8BF0A42CFCE435F0F8EF8AF0A42CFA
:1001A600E5F038FCE433CB8DF0A42CFCE5F03BF80D
:1001B600EE8AF0A42CFCE5F038F8E433CF89F0A4FD
:1001C6002CFCE5F038CF3400CE89F0A42FFFE5F003
:1001D6003EFEE433C98DF0A42EFEE5F039CD8AF05B
:1001E600A42FFFE5F03EFEE43DFD33D0E0FB5007D3
:1001F6000BBB000F0202C0EC2CFCEF33FFEE33FE0C
:06020600ED33FD02029839
:10020C0075F020800E75F010800575F0087D007E6D
:10021C00007F003392D530D50312034BEC334010E2
:10022C00EF33FFEE33FEED33FDEC33FCD5F0ED2276
:0E023C00E5F0247EA2D513CC92E7CDCEFF22B2
:10024A00EDD2E7CD33EC3392D524814006E4FFFEAC
:10025A00FDFC22FCE4CFCECDCC24E0501174FF800B
:10026A00EDC3CC13CCCD13CDCE13CECF13CF0470A8
:07027A00F030D5DE02034B5A
:10028100E9D2E7C933E833F892D5EDD2E7CD33ECC3
:0702910033FC5002B2D5223C
:10029800EC30E7100FBF000C0EBE00080DBD0004C7
:1002A8000BEB6014A2D5EB13FCED92E7FD2274FF73
:1002B800FCFDFEFF22E480F8A2D574FF13FC7D80CC
:0302C800E480EFE0
:0300000002066095
:0C066000787FE4F6D8FD7581550206A7EE
:1002CB00BB010689828A83E0225002E722BBFE0231
:0902DB00E32289828A83E4932264
:1002E400BB010689828A83F0225002F722BBFE01F9
:0202F400F322F3
:1002F600BC000BBE0029EF8DF084FFADF022E4CCEC
:10030600F875F008EF2FFFEE33FEEC33FCEE9DECB4
:10031600984005FCEE9DFE0FD5F0E9E4CEFD22EDFA
:10032600F8F5F0EE8420D21CFEADF075F008EF2F44
:10033600FFED33FD4007985006D5F0F222C398FD35
:050346000FD5F0EA22D2
:0E034B00C3E49FFFE49EFEE49DFDE49CFC22C3
:10066C000206ECE493A3F8E493A34003F68001F2B2
:10067C0008DFF48029E493A3F85407240CC8C3338F
:10068C00C4540F4420C8834004F456800146F6DF5E
:10069C00E4800B01020408102040809009C9E47E1C
:1006AC00019360BCA3FF543F30E509541FFEE49353
:1006BC00A360010ECF54C025E060A840B8E493A31A
:1006CC00FAE493A3F8E493A3C8C582C8CAC583CA45
:1006DC00F0A3C8C582C8CAC583CADFE9DEE780BEFD
:0109E2000014
:00000001FF
