:100CE600C0F9A4B0999282F880908883C6A1868EB6
:0A0CF600FF8901020408102040806D
:100B9B00084410101010101010100838000000003E
:100BAB0000000000083000000000000000000326D9
:0C0BBB00165950015517014F19014E0446
:080D9B007F757EB8DEFEDFFC6F
:010DA300222D
:10098300E54D454C7050F54C754D01FB7A007926C9
:10099300120B3B7F41120BC8AC07E41202378F5D89
:1009A3008E5C8D5B8C5AE4FBFA794C78421201170A
:1009B3008F5D8E5C8D5B8C5AE4FFFEFD7C3FAB5DEF
:1009C300AA5CA95BA85A1201B460025004D2008049
:0709D30002C200120D9B227D
:10092700300158C201120B078F0C8E0B8D0A8C09F0
:10093700120D9BE4FFFEFDFCAB0CAA0BA90AA8094C
:100947001201B4600E400C850C2C850B2B850A2AEE
:10095700850929E4FFFEFDFCAB0CAA0BA90AA8092F
:100967001201B460025014052DE52D6403700C8547
:0B0977000C2C850B2B850A2A85092912
:010982002252
:100D3200538E7F5389F0758A18758CFCC28DD28CC4
:050D4200D2A9D2AF228E
:1009DA00E5A0541F44C0F5A0EF900CF893F9F580F8
:1009EA00E5A0541F44E0F5A0900CF6E493F580E5E9
:1009FA00A0541F44C0F5A08980E5A0541F44E0F527
:100A0A00A074E62DF582740C3CF583E493F580EB33
:070A1A004A600353807F22B4
:100B6C00E4FFD2B3D2B2D2B1D2B0C2C4D2B4D2B5F5
:100B7C00D2C220B3027F0420B2027F05C2C2D2B41B
:0E0B8C00D2B5D2C420B3027F0820B2027F0986
:010B9A002238
:100A9C00E4FE7BFFED4C600FA8077401088002C3D5
:100AAC0033D8FC4206800EA8077401088002C333B9
:100ABC00D8FCF45206EB6E600CE5A0541F4480F594
:050ACC00A0EEF4F5802E
:010AD1002202
:1007D800E5414540600302089AF540754101F50876
:1007E800C3E508940274809480500B74382508F887
:1007F800E4F6050880EAAF55EF3395E0FEC3E52639
:100808009FEE6480F87480984003753801855556CA
:10081800E4F508C3E50894087480948050310556BF
:10082800E55624F6FFE434FFFE7C007D1012033BFE
:10083800ED4C700674062556F556C3E55694247497
:10084800809480400674DC2556F556050880C4E57A
:1008580026D395565003753801AC4FEC120237ABCE
:100868002CAA2BA92AA8291201B45003753901759D
:100878000803C3E508940874809480500B743825E5
:1008880008F8E4F6050880EA3000077437254EF8C2
:020898007601E7
:01089A00223B
:10055000E559455860030206C8F558755901120B54
:100560006C8F57E5576554FF5557F551E557F45FC4
:10057000F521855754E55124FB602B24FD6056146A
:10058000700302060E2405600302064A635001AFA1
:10059000507E00EF7002F52EEF64014E60030206FC
:1005A0004AF52F02064AAF507E00EF7002052EEF8B
:1005B00064014E7002052FC3E52E9403748094806D
:1005C0004003E4F52EC3E52F940374809480407AB1
:1005D000E4F52F8075E5506401706FE52F14600B12
:1005E00014600C2402700A15558006154F80021500
:1005F0004EAF55EF3395E0FEEF2401FFE43EFE7C65
:10060000007D1012033BED4C704074FA8038E550C9
:1006100064017036E52F14600B14600C2402700A1C
:1006200005558006054F8002054EAF55EF3395E026
:10063000FEEF24F6FFEE34FFFE7C007D1012033B3C
:10064000ED4C700674062555F555AF55EF3395E022
:10065000FED3EF9400EE648094805003E4F555AF30
:1006600055EF3395E0FED3EF9423EE648094804001
:1006700003755523AF4FEF3395E0FED3EF9400EEB3
:10068000648094805003E4F54FAF4FEF3395E0FE64
:10069000D3EF9463EE648094804003754F63AF4E54
:1006A000EF3395E0FED3EF9404EE64809480500322
:1006B000754E04AF4EEF3395E0FED3EF9408EE6431
:0906C0008094804003754E08226D
:1003D400E5534552600302054FF552755301FFEF93
:1003E400C3940874809480500F74442FF87610746A
:1003F400302FF8E4F60F80E7E55060030204E7E5E8
:100404002E14603714700302049124026003020462
:10041400E7E526C4540FF544E526540FF545E527D2
:10042400C4540FF547E527540FF548E528C4540F85
:10043400F54AE528540FF54B0204E775440FAF2C39
:10044400AE2BAD2AAC2912026BAB07AA067C007D49
:100454000A12033B7C007D0A12033B8D497C007D1C
:100464000AAF03AE0212033B8D4A753601E4FFFE68
:100474007D207C41AB2CAA2BA92AA82912000E129C
:10048400026B7C007D0A12033B8D4B805675441130
:10049400AF5DAE5CAD5BAC5A12026B7C007D0A12A0
:1004A400033B8D46753201E4FFFE7DC87C42AB5DA3
:1004B400AA5CA95BA85A12000E12026BAB07AA062B
:1004C4007C007D0A12033B7C007D0A12033B8D47AE
:1004D4007C007D0AAF03AE0212033B8D48A200E408
:1004E40033F54BE55064017062E52F146026146007
:1004F4005124027056754405754504E555FB339542
:10050400E0FA7C007D10AF03FE12033B8F4A7C00AF
:100514007D108024754405754505E54FFB3395E052
:10052400FA7C007D0AAF03FE12033B7C007D0A12B5
:10053400033B8D4A7C007D0AAF03AE0212033B8D60
:0B0544004B22754405754506854E4BA3
:01054F002289
:03000B000206C921
:1006C900C0E0C0F0C083C082C0D075D000C000C0F7
:1006D90001C002C003C004C005C006C0070543E548
:1006E9004370020542FFAE42BE010BBF2C087542A2
:1006F90000754300D2010523E52370020522640831
:1007090045227004F522F5230553E553700205527D
:10071900643245527004F552F5530559E559700292
:100729000558646445587004F558F5590541E54183
:100739007002054064C845407004F540F541054D17
:10074900E54D7002054CFFAE4CBE0109BF2C067584
:100759004C00754D00AF2374442FF8E6FD7C0074FE
:10076900302523F8E6FB7A001209DAAF2374382F13
:10077900F8E6FD120A9C1203D41205501207D8A2FA
:1007890000300201B350067524007525000525E5E2
:100799002570020524FFAE24BE0B15BFB8127524BF
:1007A90000752500200003753A00300003753A01F1
:1007B900A2009202D007D006D005D004D003D002FF
:0F07C900D001D000D0D0D082D083D0F0D0E03299
:100C6600120D327B007A007926120A21E5A0541F64
:100C76004480F5A07580FFE5A0541F44A0F5A0753B
:030C860080FF22CA
:100D7000120C66D20112092712098312092780F882
:100CCA00E4FEEEC3940874809480500FC297EF1329
:0B0CDA0092A3EFC313FFD2970E80E738
:010CE50022EC
:100D5C00C29300C29700D29300120CCAAF05120CBA
:040D6C00CAC2932242
:100A5F00E4FDC29300C29700D29300120CCAE4FFC8
:100A6F00EFC39408748094805011C297EDC313FDA7
:100A7F0030A303430580D2970F80E5C29300C2973E
:0C0A8F0000D29700C2A300D2A300AF0564
:010A9B002238
:060A21008B098A0A890B13
:100A2700E4FD7F8E120D5CE4FCECC39403748094A8
:100A370080501EEC25E0FFC374849FFFAB09AA0A10
:100A4700A90B8C827583001202ECFD120D5C0C80E1
:080A5700D87D807F8E020D5C4A
:060B3B008B098A0A890BF8
:100B4100E4FCECC3940374809480501EEC25E0FF18
:100B5100C374859FFF120A5FAB09AA0AA90B8C8295
:0A0B6100758300EF1203190C80D811
:010B6B002267
:040CAC007F057E0042
:100CB000EF1FAA0670011E4A600FE4FDEDC3940CFD
:090CC0007480948050EA0D80F369
:010CC9002208
:020BF200A90751
:100BF400E4FBEBC39408748094805012C294E9130C
:100C04009294120CACD294E9C313F90B80E47F05DF
:050C14007E00020CB09F
:100C8900E4FBEBC39408748094805014C294ECC3C1
:100C990013FCD294309403430480120CAC0B80E211
:020CA900AF0496
:010CAB002226
:100C1900C203D2947F0C7E00120CB0C2947F507E26
:100C290000120CB0D2947F0A7E00120CB0A29492EA
:060C390003120CACA20343
:010C3F002292
:100B0700120C197FCC120BF27F44120BF2120C1944
:100B17007FCC120BF27FBE120BF2120C89A90712BF
:100B27000C89EFAD01FCEC120232E4FBFA79807814
:040B3700410201175F
:040D0000D2A07F0AF4
:100D0400000000000000000000000000000000AE31
:060D1400071FEE70EB2248
:0F0D8000D2A1120D00C2A17F0A120D04C2A0223F
:0C0D8F00C2A1120D00D2A17F0A020D04C7
:020AD200AD076E
:100AD400E4FCECC39408748094805024C2A07F0A80
:100AE400120D04ED30E704D2A18002C2A17F0A12E4
:100AF4000D04D2A0ED25E0FD7F0A120D040C80D276
:020B0400C2A08D
:010B060022CC
:100C4000E4FCECC39408748094805017120D00EDFE
:100C500025E0FD30A103430501C2A07F0A120D0467
:050C60000C80DFAF0570
:010C6500226C
:030D4700120AD2BB
:100D4A00120D00A2A1E433FDC2A07F0A120D04AF66
:010D5A000593
:010D5B002275
:100D1A00C2A0EF24FF92A17F0A120D04120D00C295
:080D2A00A0D2A17F0A020D0412
:020BC800AB0779
:100BCA00120D807F90120D47AF03120D47120D8050
:100BDA007F91120AD2120D4A120C40AD077F011200
:070BEA000D1A120D8FAF057B
:010BF10022E1
:10000E00EC4D6011E8497017ED33EC3304600DE4EC
:10001E00FCFFFEFD22E933E8330470F80202D7122A
:10002E0002A258046009E4CC24815006285009022B
:10003E0002E12840030202DEC0E0EB4A7044B980C0
:10004E0006D0E0FB0202CDEF4E701CBD8008EBFF28
:10005E00EAFEE9FD80EBE98DF0A4FEE5F00200F783
:10006E00E9CDF9EAFEEBFFEF89F0A4FCE5F0CE89CD
:10007E00F0A42EFFE435F0CD89F0A42DFEE435F08A
:10008E008067EF4E7005BD80D780C3EF8BF0A4ACB8
:10009E00F0EE8BF0A42CFCE435F0F8EF8AF0A42CF3
:1000AE00E5F038FCE433CB8DF0A42CFCE5F03BF806
:1000BE00EE8AF0A42CFCE5F038F8E433CF89F0A4F6
:1000CE002CFCE5F038CF3400CE89F0A42FFFE5F0FC
:1000DE003EFEE433C98DF0A42EFEE5F039CD8AF054
:1000EE00A42FFFE5F03EFEE43DFD33D0E0FB5007CC
:1000FE000BBB000F0202E1EC2CFCEF33FFEE33FEE4
:06010E00ED33FD0202B911
:100114000202E1EC5D046005E8590470030202D7B1
:100124001202A2580460F6EC4860F2EC7004FDFE82
:10013400FF22C860DB2481C85009C39860025006BE
:100144000202DE9850CAF582E9294B4A7005AB8257
:100154000202CD75F0007C1A7880C3EF9BEE9AED15
:1001640099400DC3EF9BFFEE9AFEED99FDE842F036
:10017400DC23ACF0D0E0FFD0E0FED0E0FDAB822089
:10018400E7101BEB60BAEC2CFCEF33FFEE33FEED13
:1001940033FD0202B9E803F830E705C0F075F0005A
:1001A400EF2FFFEE33FEED33FD40B830E7C280AAF7
:1001B40074F8CC6480CCC86480C8F58204604FC3F2
:1001C400EB9FF5F0EA9E42F0E99D42F0E89C45F091
:1001D400603C501DE5825FFFE582D313CB5BCBF41B
:1001E4002B5582FB50280ABA002409B90020088044
:1001F4001DE5825BFBE582D313CF5FCFF4C3132FDE
:100204005582FF50090EBE00050DBD00010CC3EB65
:100214009FF5F0EA9E42F0E99D42F0E89C45F060CB
:0902240007CC4820E701B3EC22ED
:10022D0075F020800E75F010800575F0087D007E4C
:10023D00007F003392D530D503120371EC3340109B
:10024D00EF33FFEE33FEED33FDEC33FCD5F0ED2255
:0E025D00E5F0247EA2D513CC92E7CDCEFF2291
:10026B00EDD2E7CD33EC3392D524814006E4FFFE8B
:10027B00FDFC22FCE4CFCECDCC24E0501174FF80EA
:10028B00EDC3CC13CCCD13CDCE13CECF13CF047087
:07029B00F030D5DE02037113
:1002A200E9D2E7C933E833F892D5EDD2E7CD33ECA2
:0702B20033FC5002B2D5221B
:1002B900EC30E7100FBF000C0EBE00080DBD0004A6
:1002C9000BEB6014A2D5EB13FCED92E7FD2274FF52
:1002D900FCFDFEFF22E480F8A2D574FF13FC7D80AB
:0302E900E480EFBF
:0300000002089B58
:0C089B00787FE4F6D8FD75815D0208E26C
:1002EC00BB010CE58229F582E5833AF583E02250C7
:1002FC0006E92582F8E622BBFE06E92582F8E22211
:0D030C00E58229F582E5833AF583E493222A
:10031900F8BB010DE58229F582E5833AF583E8F01A
:10032900225006E92582C8F622BBFE05E92582C8C6
:02033900F222AE
:10033B00C2D5EC30E709B2D5E4C39DFDE49CFCEEDD
:10034B0030E715B2D5E4C39FFFE49EFE12037FC3D3
:10035B00E49DFDE49CFC800312037F30D507C3E4CE
:06036B009FFFE49EFE224C
:0E037100C3E49FFFE49EFEE49DFDE49CFC229D
:1008A700020D70E493A3F8E493A34003F68001F2EA
:1008B70008DFF48029E493A3F85407240CC8C33352
:1008C700C4540F4420C8834004F456800146F6DF21
:1008D700E4800B0102040810204080900B9BE47E0B
:1008E700019360BCA3FF543F30E509541FFEE49316
:1008F700A360010ECF54C025E060A840B8E493A3DD
:10090700FAE493A3F8E493A3C8C582C8CAC583CA07
:10091700F0A3C8C582C8CAC583CADFE9DEE780BEBF
:010BC700002D
:10037F00BC000BBE0029EF8DF084FFADF022E4CC62
:10038F00F875F008EF2FFFEE33FEEC33FCEE9DEC2B
:10039F00984005FCEE9DFE0FD5F0E9E4CEFD22ED71
:1003AF00F8F5F0EE8420D21CFEADF075F008EF2FBB
:1003BF00FFED33FD4007985006D5F0F222C398FDAC
:0503CF000FD5F0EA2249
:00000001FF
