:100AD600C0F9A4B0999282F880908883C6A1868EC8
:090AE600FF010204081020408009
:1009E400083B101010101010101008310000000007
:1009F40000000000014800014601C102C101014498
:0B0A040000012100012A00022D020465
:060B360000007F61DFFEFC
:010B3C002296
:100AA200E5A0541F4480F5A07580FFE5A0541F44C3
:0A0AB200A0F5A0E4F58053A01F2278
:100B0600538EBF53890F758B18758DFCC28FD28E8D
:050B1600D2ABD2AF22BA
:10089600E5A0541F44C0F5A0EF900AE793FEF5804B
:1008A600E5A0541F44E0F5A0900AE6E493F580E540
:1008B600A0541F44C0F5A08E80E5A0541F44E0F567
:1008C600A074D62DF582740A3CF583E493F5805323
:0308D600A01F223E
:10091400E4FE7BFFED4C600FA8077401088002C35E
:1009240033D8FC4206800EA8077401088002C33342
:10093400D8FCF45206EB6E600FE5A0541F4480F51A
:08094400A0EEF4F58053A01FA2
:01094C002288
:1009B800E4FE7BFFED4C60047E4080035306BFEFEE
:1009C800600543061080035306EFEB6E600DE5A04B
:0B09D800541F44A0F5A08E8053A01F08
:0109E30022F1
:100A3800E4FFD2B3D2B2D2B1D2B0C2C4D2B4D2B52A
:100A4800D2C220B3027F0420B2027F0520B1027F08
:060A58000620B0027F073A
:010A5E002275
:100AEF00E4FEEEC3940A74809480500AD290120BE5
:060AFF0036C2900E80ECEF
:010B050022CD
:10094D005389F0E4F58AF58C120AEFD28C309103BD
:10095D00308DFAC28C308D05C28D7F0022AF8CEFA9
:10096D00AD8AFCEC1201297B967A43798B783C1287
:06097D00001E12016222BF
:1007E400AF487E00C3748094804010EF940A7480F4
:1007F40094805007C2027531018003E4F531C3EFE0
:10080400940AEE648094804021EF9428EE648094EE
:10081400805017753201200204E544600920020D5E
:10082400E54464017007D2028003E4F532C3E5486D
:100834009428748094804006C202D2038002C203CA
:09084400300205754401C20222D4
:10060E00E52860030206DEF528120A388F47E54713
:10061E006545FF5547F543E547F45FF529854745A1
:10062E00E54324FB603314603914606024036003D7
:10063E000206DEAF48C3EF940A7480948050030222
:10064E0006DEEF94287480948040030206DE754423
:10065E0002D204E4F526F52722300474A201B392E7
:10066E000122C374809480400CE548940A748094EF
:10067E008050020522AF227E00EF640170037544A4
:10068E0003EF64044E7049F544F522227E00C374D4
:10069E00809480403BE548940A748094805031AF3A
:1006AE0022EF64027002052DEF64034E7002052ED8
:1006BE00E52D640B7003752D01E52E640B7003752B
:1006CE002E017B007A00792D750C027D011208D95E
:0106DE0022F9
:10046E00E523600302060DF523FFEFC394087480A5
:10047E0094805009743B2FF876100F80EDE54424DC
:10048E00FE602A1470030205422402600302060D68
:10049E00753B01E53075F00A8475F00A8485F03EEF
:1004AE00E53075F00A8485F03F85464222753B02A1
:1004BE00E5466401703AAF2DFE7C037DE812020E14
:1004CE00C3EF9527FBEE9526FA7C277D10AF03FE32
:1004DE001202207C007D0A1202208D417C037DE8F1
:1004EE00AF03AE021202207C007D0A1202208D4262
:1004FE00E5466402600302060DAF2EFE7C037DE826
:10050E0012020EC3EF9527FBEE9526FA7C277D107F
:10051E00AF03FE1202207C007D0A1202208D417C68
:10052E00037DE8AF03AE021202207C007D0A1202A8
:10053E00208D4222753B03E52DFB7C007D0AFF7E5C
:10054E00001202757C007D0A1202758D3E7C007DC4
:10055E000AAF037E00120275AB058B3FE5226402E3
:10056E007026300014AF2DFEFC7D0A1202757C0041
:10057E007D0A1202758D3E8003753E103000048B8D
:10058E003F8028753F108023E52DFB7C007D0AFF00
:10059E007E001202757C007D0A1202758D3E7C0073
:1005AE007D0AAF037E001202758D3FE52264037053
:1005BE002B300014AF2EFEFC7D0A1202757C007DDE
:1005CE000A1202758D41800375411030000AAF2E5C
:1005DE007E007C007D0A802275421022E52EFB7C77
:1005EE00007D0AFF7E001202757C007D0A120275E4
:0F05FE008D417C007D0AAF037E001202758D4295
:01060D0022CA
:03001B000202B925
:1002B900C0E0C0F0C083C082C0D075D000C000C00B
:1002C90001C002C003C004C005C006C007052CE573
:1002D9002C7002052BFFAE2BBE0309BFE806752B58
:1002E90000752C00053AE53A7002053964C84539AC
:1002F9007004F539F53A0523E52364327002F523D4
:100309000528E52864647002F528052FE52F64089F
:100319007002F52F743B252FF8E6FD7C00AF2F12F4
:1003290008967431252FF8E6FDAF2F120914E52A36
:10033900FDAF211209B812060E12046E1207E4303D
:10034900031F752A010525E52570020524FFAE2442
:10035900BE0114BFF41175240075250063330180B3
:1003690006753300752A00AF22EF64026005EF6459
:1003790003701C0525E52570020524FFAE24BE0186
:100389000EBFF40B752400752500A200B39200205E
:100399000403020428AF487E00C3EF940A748094D2
:1003A90080407CEF942874809480507320015275AA
:1003B9003400752101E546FB7A006401701DAF2DFB
:1003C9007C037DE812020E0527E52770020526B594
:1003D9000709E526B50604C202C204EB64024A70A5
:1003E90069AF2EFE7C037DE812020E0527E5277012
:1003F9000205266F7003E5266E704FC202C20480A3
:10040900497521000525E5257002052464F4700469
:10041900E52464017034F524F525633401802B75D6
:100429002100C204753400C201E546FB7A0064016B
:100439007004AF2D8008EB64024A700EAF2EFE7C6B
:10044900037DE812020E8E268F27D007D006D0052D
:10045900D004D003D002D001D000D0D0D082D08334
:05046900D0F0D0E032EC
:10076B00120AA2120B067B007A00792D7511027DFD
:10077B000112084D7F43120A10EF75F00AA4FFAE69
:10078B00F07C007D331202208F48754801E53A4515
:10079B003970167F43120A10EF75F00AA4FFAEF002
:1007AB007C007D331202208F48E544640170DEE546
:1007BB002C452B70D812094D8F307E00D3EF941E31
:1007CB00748094805003754601D3EF941EEE6480C1
:0907DB00948040B975460280B417
:040ABC00D2A07F0A3B
:100AC000000000000000000000000000000000AE78
:060AD000071FEE70EB228F
:0F0B1B00D2A1120ABCC2A17F0A120AC0C2A02234
:0C0B2A00C2A1120ABCD2A17F0A020AC0BC
:02098300AD07BE
:10098500E4FCECC39408748094805024C2A07F0AD0
:10099500120AC0ED30E704D2A18002C2A17F0A127B
:1009A5000AC0D2A0ED25E0FD7F0A120AC00C80D254
:0209B500C2A0DE
:0109B700221D
:100A5F00E4FCECC39408748094805017120ABCED28
:100A6F0025E0FD30A103430501C2A07F0A120AC091
:050A7F000C80DFAF0553
:010A8400224F
:0B0A8500120983120A90AF03120983CC
:100A9000120ABCA2A1E433FDC2A07F0A120AC0AFB1
:010AA0000550
:010AA1002232
:10000300C2A0EF24FF92A17F0A120AC0120ABCC247
:08001300A0D2A17F0A020AC07D
:020A1000AB0732
:100A1200120B1B7F90120A85120B1B7F9112098306
:100A2200120A90120A5FAC077F01120003120A90A9
:050A3200120B2AAF04C5
:010A3700229C
:1008D9008B088A09890AAB05120B1B7FA0120983B1
:1008E900120A90AF038019AF0C150CEF601AAB0810
:1008F900050AE50AAA097002050914F91201E3FFBC
:0B090900120983120A9080DF020B2A03
:10084D008B0D8A0E890FAB05120B1B7FA0120A852B
:10085D00120B1B7FA1120983120A90AF111511EF14
:10086D006024120A5FAB0D050FE50FAA0E7002058D
:10087D000E14F9EF1201FCE5116004E4FF80027F14
:09088D000112000380D5020B2AC0
:10001E00EC4D6011E8497017ED33EC3304600DE4DC
:10002E00FCFFFEFD22E933E8330470F80201CE1224
:10003E00019958046009E4CC248150062850090225
:10004E0001D82840030201D5C0E0EB4A7044B980C4
:10005E0006D0E0FB0201C4EF4E701CBD8008EBFF22
:10006E00EAFEE9FD80EBE98DF0A4FEE5F002010762
:10007E00E9CDF9EAFEEBFFEF89F0A4FCE5F0CE89BD
:10008E00F0A42EFFE435F0CD89F0A42DFEE435F07A
:10009E008067EF4E7005BD80D780C3EF8BF0A4ACA8
:1000AE00F0EE8BF0A42CFCE435F0F8EF8AF0A42CE3
:1000BE00E5F038FCE433CB8DF0A42CFCE5F03BF8F6
:1000CE00EE8AF0A42CFCE5F038F8E433CF89F0A4E6
:1000DE002CFCE5F038CF3400CE89F0A42FFFE5F0EC
:1000EE003EFEE433C98DF0A42EFEE5F039CD8AF044
:1000FE00A42FFFE5F03EFEE43DFD33D0E0FB5007BC
:10010E000BBB000F0201D8EC2CFCEF33FFEE33FEDD
:06011E00ED33FD0201B00B
:1001240075F020800E75F010800575F0087D007E56
:10013400007F003392D530D5031202ABEC3340106C
:10014400EF33FFEE33FEED33FDEC33FCD5F0ED225F
:0E015400E5F0247EA2D513CC92E7CDCEFF229B
:10016200EDD2E7CD33EC3392D524814006E4FFFE95
:10017200FDFC22FCE4CFCECDCC24E0501174FF80F4
:10018200EDC3CC13CCCD13CDCE13CECF13CF047091
:07019200F030D5DE0202ABE4
:10019900E9D2E7C933E833F892D5EDD2E7CD33ECAC
:0701A90033FC5002B2D52225
:1001B000EC30E7100FBF000C0EBE00080DBD0004B0
:1001C0000BEB6014A2D5EB13FCED92E7FD2274FF5C
:1001D000FCFDFEFF22E480F8A2D574FF13FC7D80B5
:0301E000E480EFC9
:030000000206DF16
:0C06DF00787FE4F6D8FD758148020726FC
:1001E300BB010689828A83E0225002E722BBFE021A
:0901F300E32289828A83E493224D
:1001FC00BB010689828A83F0225002F722BBFE01E2
:02020C00F322DB
:10020E00EF8DF0A4A8F0CF8CF0A428CE8DF0A42E04
:02021E00FE22BE
:10022000BC000BBE0029EF8DF084FFADF022E4CCC2
:10023000F875F008EF2FFFEE33FEEC33FCEE9DEC8B
:10024000984005FCEE9DFE0FD5F0E9E4CEFD22EDD1
:10025000F8F5F0EE8420D21CFEADF075F008EF2F1B
:10026000FFED33FD4007985006D5F0F222C398FD0C
:050270000FD5F0EA22A9
:10027500C2D5EC30E709B2D5E4C39DFDE49CFCEEA4
:1002850030E715B2D5E4C39FFFE49EFE120220C3FA
:10029500E49DFDE49CFC800312022030D507C3E4F5
:0602A5009FFFE49EFE2213
:0E02AB00C3E49FFFE49EFEE49DFDE49CFC2264
:1006EB0002076BE493A3F8E493A34003F68001F2B3
:1006FB0008DFF48029E493A3F85407240CC8C33310
:10070B00C4540F4420C8834004F456800146F6DFDE
:10071B00E4800B01020408102040809009E4E47E81
:10072B00019360BCA3FF543F30E509541FFEE493D3
:10073B00A360010ECF54C025E060A840B8E493A39A
:10074B00FAE493A3F8E493A3C8C582C8CAC583CAC5
:10075B00F0A3C8C582C8CAC583CADFE9DEE780BE7D
:010A0F0000E6
:00000001FF
