:1009C800C0F9A4B0999282F88090FFC1BF8883C60D
:0B09D800A1868E010204081020408060
:1008AA000122000327005958022E0017C1030835F8
:1008BA000000000000000000083D000000000000E9
:0E08CA00000008470A0A0A0A0A0A0A0AC100C0
:10096E00E4FE7DFFEF60047E1080035306EFEE6D14
:0F097E00600DE5A0541F44A0F5A08E8053A01F6C
:01098D002247
:10080900E4FE7BFFED4C600FA8077401088002C36A
:1008190033D8FC4206800EA8077401088002C3334E
:10082900D8FCF45206EE6B600FE5A0541F4480F526
:08083900A0EEF4F58053A01FAE
:010841002294
:10070F00E52465236007D202852423801E20031B66
:10071F00C200AC2EAD2FE4120232AB53AA52A95134
:10072F00A8501201B460044002D200200305753EA8
:10073F00018003E4F53E300003D20122C201E4F54B
:02074F003F2247
:1009E300E5A0541F4480F5A07580FFE5A0541F4483
:0A09F300A0F5A0E4F58053A01F2238
:1006C200E5A0541F44C0F5A0EF9009DB93F9F58033
:1006D200E5A0541F44E0F5A09009D2E493F580E52B
:1006E200A0541F44C0F5A08980E5A0541F44E0F542
:1006F200A07580FFEB4A600353807F74C82DF5829A
:0D07020074093CF583E493528053A01F223C
:1009FD00538E7F5389F0758A18758CFCC28DD28CFD
:050A0D00D2A9D2AF22C6
:10084200E4FFD2B3D2B2D2B1D2B0C2B5D2B4D2C224
:10085200D2C420B3027F0C20B2027F0DD2B3D2B237
:10086200D2B1D2B0C2B4D2B5D2C2D2C420B3027F06
:060872001020B2027F110C
:01087800225D
:10064600E52570777525011208428F4FE54F6546FF
:10065600FF554FF545E54FF45FF526854F46E545D1
:1006660024F3601724FD601A1460272405703D05E5
:1006760022E52264037035F5228031A203B392038A
:10068600802AE52264027024052FE52F701E052EB0
:10069600801AAF227E00EF64027008E52F152F70D6
:1006A60002152EEF64014E7003752203E5226403E2
:0C06B6007009E526641170037522012212
:1003D400E52160030204EB752101852D53852C5220
:1003E400852B51852A50FB7A0079271208798527B5
:1003F40024E4FFEFC3940874809480500F74352F65
:10040400F8E4F674472FF8760A0F80E7E5221460C3
:100414004F1460751470030204AA240360030204D9
:10042400EB75470B754801AF53AE52AD51AC50124A
:10043400026BEF75F00A8475F00A8485F04CEF7551
:10044400F00A8485F04D753B01E4FFFE7D207C417C
:10045400AB53AA52A951A85012000E12026B803D50
:1004640075470B754802E527FB7C007D10FF7E0075
:1004740012033B8F4A7C007D10AF037E0012033BC6
:100484008D4B754C0CE528804475470B754803AFBC
:100494002FEF75F00A8475F00A8485F04DEF75F03E
:1004A4000A8485F04E2275470B754802E528FB7CCB
:1004B400007D10FF7E0012033B8F4A7C007D10AF4D
:1004C400037E0012033B8D4B754C0CE529FB7C002D
:1004D4007D10FF7E0012033B8F4D7C007D10AF0327
:0704E4007E0012033B8D4E68
:0104EB0022EE
:03000B000204EC00
:1004EC00C0E0C0F0C083C082C0D075D000C000C0D6
:1004FC0001C002C003C004C005C006C0070521E549
:10050C002164327002F5210525E52564647002F53D
:10051C00250532E53264087002F53274472532F84D
:10052C00E6FD7C0074352532F8E6FB7A00AF32121A
:10053C0006C2743D2532F8E6FDAF321208091203EB
:10054C00D4120646300229753D01300302D2000553
:10055C0031E53170020530FFAE30BE1313BF881089
:10056C00753000753100C202300302C200753D00C7
:10057C003001150534E534700205336432453370AF
:10058C0007F533F534633F0112070FA200E433FF84
:10059C0012096ED007D006D005D004D003D002D0FB
:0E05AC0001D000D0D0D082D083D0F0D0E03289
:100927001209E31209FD7B007A0079271207518526
:100937002A24852423C20012078F8F2D8E2C8D2BFE
:040947008C2A80F383
:04098E007F057E0063
:10099200EF1FAA0670011E4A600FE4FDEDC3940C1E
:0909A2007480948050EA0D80F38A
:0109AB002229
:0208D900A9076D
:1008DB00E4FBEBC39408748094805012C294E91328
:1008EB00929412098ED294E9C313F90B80E47F051D
:0508FB007E00020992DD
:10094B00E4FBEBC39408748094805014C294ECC302
:10095B0013FCD29430940343048012098E0B80E273
:02096B00AF04D7
:01096D002267
:10090000C204D2947F0C7E00120992C2947F507E62
:1009100000120992D2947F0A7E00120992A2949248
:060920000412098EA2047E
:0109260022AE
:10078F001209007FCC1208D97F441208D912090030
:10079F007FCC1208D97FBE1208D912094BA90712B4
:1007AF00094BAC077F0A7E00120992ECAD01FCECFD
:0D07BF00120232E4FBFA7980784102011742
:1009AC00E4FEEEC3940874809480500FC297EF134A
:0B09BC0092A3EFC313FFD2970E80E759
:0109C700220D
:100A1200C29300C29700D293001209ACAF0512092B
:040A2200ACC29322AD
:1007CC00E4FDC29300C29700D293001209ACE4FF7F
:1007DC00EFC39408748094805011C297EDC313FD3D
:1007EC0030A303430580D2970F80E5C29300C297D4
:0C07FC0000D29700C2A300D2A300AF05FA
:0108080022CD
:060751008B0B8A0C890DE0
:10075700E4FD7F8E120A12E4FCECC39403748094C8
:1007670080501EEC25E0FFC374849FFFAB0BAA0CDF
:10077700A90D8C827583001202ECFD120A120C80FF
:08078700D87D807F8E020A126A
:060879008B088A09890AC0
:10087F00E4FCECC3940374809480501EEC25E0FFDD
:10088F00C374859FFF1207CCAB08AA09A90A8C82F3
:0A089F00758300EF1203190C80D8D6
:0108A900222C
:10000E00EC4D6011E8497017ED33EC3304600DE4EC
:10001E00FCFFFEFD22E933E8330470F80202D7122A
:10002E0002A258046009E4CC24815006285009022B
:10003E0002E12840030202DEC0E0EB4A7044B980C0
:10004E0006D0E0FB0202CDEF4E701CBD8008EBFF28
:10005E00EAFEE9FD80EBE98DF0A4FEE5F00200F783
:10006E00E9CDF9EAFEEBFFEF89F0A4FCE5F0CE89CD
:10007E00F0A42EFFE435F0CD89F0A42DFEE435F08A
:10008E008067EF4E7005BD80D780C3EF8BF0A4ACB8
:10009E00F0EE8BF0A42CFCE435F0F8EF8AF0A42CF3
:1000AE00E5F038FCE433CB8DF0A42CFCE5F03BF806
:1000BE00EE8AF0A42CFCE5F038F8E433CF89F0A4F6
:1000CE002CFCE5F038CF3400CE89F0A42FFFE5F0FC
:1000DE003EFEE433C98DF0A42EFEE5F039CD8AF054
:1000EE00A42FFFE5F03EFEE43DFD33D0E0FB5007CC
:1000FE000BBB000F0202E1EC2CFCEF33FFEE33FEE4
:06010E00ED33FD0202B911
:100114000202E1EC5D046005E8590470030202D7B1
:100124001202A2580460F6EC4860F2EC7004FDFE82
:10013400FF22C860DB2481C85009C39860025006BE
:100144000202DE9850CAF582E9294B4A7005AB8257
:100154000202CD75F0007C1A7880C3EF9BEE9AED15
:1001640099400DC3EF9BFFEE9AFEED99FDE842F036
:10017400DC23ACF0D0E0FFD0E0FED0E0FDAB822089
:10018400E7101BEB60BAEC2CFCEF33FFEE33FEED13
:1001940033FD0202B9E803F830E705C0F075F0005A
:1001A400EF2FFFEE33FEED33FD40B830E7C280AAF7
:1001B40074F8CC6480CCC86480C8F58204604FC3F2
:1001C400EB9FF5F0EA9E42F0E99D42F0E89C45F091
:1001D400603C501DE5825FFFE582D313CB5BCBF41B
:1001E4002B5582FB50280ABA002409B90020088044
:1001F4001DE5825BFBE582D313CF5FCFF4C3132FDE
:100204005582FF50090EBE00050DBD00010CC3EB65
:100214009FF5F0EA9E42F0E99D42F0E89C45F060CB
:0902240007CC4820E701B3EC22ED
:10022D0075F020800E75F010800575F0087D007E4C
:10023D00007F003392D530D503120371EC3340109B
:10024D00EF33FFEE33FEED33FDEC33FCD5F0ED2255
:0E025D00E5F0247EA2D513CC92E7CDCEFF2291
:10026B00EDD2E7CD33EC3392D524814006E4FFFE8B
:10027B00FDFC22FCE4CFCECDCC24E0501174FF80EA
:10028B00EDC3CC13CCCD13CDCE13CECF13CF047087
:07029B00F030D5DE02037113
:1002A200E9D2E7C933E833F892D5EDD2E7CD33ECA2
:0702B20033FC5002B2D5221B
:1002B900EC30E7100FBF000C0EBE00080DBD0004A6
:1002C9000BEB6014A2D5EB13FCED92E7FD2274FF52
:1002D900FCFDFEFF22E480F8A2D574FF13FC7D80AB
:0302E900E480EFBF
:030000000205BA3C
:0C05BA00787FE4F6D8FD7581530206013D
:1002EC00BB010CE58229F582E5833AF583E02250C7
:1002FC0006E92582F8E622BBFE06E92582F8E22211
:0D030C00E58229F582E5833AF583E493222A
:10031900F8BB010DE58229F582E5833AF583E8F01A
:10032900225006E92582C8F622BBFE05E92582C8C6
:02033900F222AE
:10033B00C2D5EC30E709B2D5E4C39DFDE49CFCEEDD
:10034B0030E715B2D5E4C39FFFE49EFE12037FC3D3
:10035B00E49DFDE49CFC800312037F30D507C3E4CE
:06036B009FFFE49EFE224C
:0E037100C3E49FFFE49EFEE49DFDE49CFC229D
:1005C600020927E493A3F8E493A34003F68001F21B
:1005D60008DFF48029E493A3F85407240CC8C33336
:1005E600C4540F4420C8834004F456800146F6DF05
:1005F600E4800B01020408102040809008AAE47EE3
:10060600019360BCA3FF543F30E509541FFEE493F9
:10061600A360010ECF54C025E060A840B8E493A3C0
:10062600FAE493A3F8E493A3C8C582C8CAC583CAEB
:10063600F0A3C8C582C8CAC583CADFE9DEE780BEA3
:0108D800001F
:10037F00BC000BBE0029EF8DF084FFADF022E4CC62
:10038F00F875F008EF2FFFEE33FEEC33FCEE9DEC2B
:10039F00984005FCEE9DFE0FD5F0E9E4CEFD22ED71
:1003AF00F8F5F0EE8420D21CFEADF075F008EF2FBB
:1003BF00FFED33FD4007985006D5F0F222C398FDAC
:0503CF000FD5F0EA2249
:00000001FF
