:100A3000C0F9A4B0999282F88090FFC68C8883A1F7
:0A0A4000868E010204081020408099
:10093A0008420A0A0A0A0A0A0A0A083000000000DB
:10094A00000000000838000000000000000001223A
:06095A0000012E19C1008E
:100A9600538E7F5389F0758A18758CFCC28DD28C63
:050AA600D2A9D2AF222D
:100A1600E5A0541F4480F5A07580FFE5A0541F444F
:0A0A2600A0F5A0E4F58053A01F2204
:1007D200E5A0541F44C0F5A0EF900A4293F9F580BA
:1007E200E5A0541F44E0F5A0900A3AE493F580E5B1
:1007F200A0541F44C0F5A08980E5A0541F44E0F531
:10080200A0E493F580EB4A600353807F74302DF5AA
:0E08120082740A3CF583E493528053A01F22A7
:1008CE00E4FFD2B3D2B2D2B1D2B0C2C4D2B4D2B596
:1008DE00D2C220B3027F0420B2027F05D2B3D2B2BD
:1008EE00D2B1D2B0C2C2D2B4D2B5D2C420B3027F7A
:0608FE000820B2027F0990
:0109040022D0
:10085D00E4FE7BFFED4C600FA8077401088002C316
:10086D0033D8FC4206800EA8077401088002C333FA
:10087D00D8FCF45206EB6E600FE5A0541F4480F5D2
:08088D00A0EEF4F58053A01F5A
:010895002240
:10076B00E52370627523011208CE8F4AE54A654175
:10077B00FF554AF540E54AF45FF525854A41E540CA
:10078B0024FB602B24FD602D14603324057037058A
:10079B0022E52264037002F522AF227E00EF640192
:1007AB007003852E2FEF64014E601B852F2E22A226
:1007BB0000B3920022E5226401700B152F22E52273
:0707CB0064017002052F22FA
:10047D00E521600302059C752101FFEFC39408740B
:10048D00809480500F74422FF8760A74302FF8E460
:10049D00F60F80E785294E85284D85274C85264BFF
:1004AD00E52214606714700302053524026003020F
:1004BD00059C75420BAF4EAE4DAD4CAC4B1203636C
:1004CD00AB07AA067C007D0A1203E48F467C007DF3
:1004DD000AAF03AE021203E48D47753501E4FFFE4A
:1004ED007D207C41AB4EAA4DA94CA84B12010612A2
:1004FD0003637C007D0A1203E48D48E4FFFE7DC892
:10050D007C42AB4EAA4DA94CA84B807475420CE5AC
:10051D002FFB7C007D0AFF7E001203E48F487C00D8
:10052D007D0AAF037E00806275420DAF2DAE2CADFE
:10053D002BAC2A120363AB07AA067C007D0A1203BB
:10054D00E48F467C007D0AAF03AE021203E48D47B3
:10055D00753501E4FFFE7D207C41AB2DAA2CA92B26
:10056D00A82A1201061203637C007D0A1203E48D92
:10057D0048E4FFFE7DC87C42AB2DAA2CA92BA82AEE
:0F058D001201061203637C007D0A1203E48D49FC
:01059C00223C
:10089600E4FFEFC3940874809480500974382FF8ED
:1008A600E4F60F80ED200003753801AF227E00EFDD
:1008B6007003753901EF64014E7003753A01EF64F8
:0708C600024E7003753B01B7
:0108CD002208
:03000B000206E901
:1006E900C0E0C0F0C083C082C0D075D000C000C0D7
:1006F90001C002C003C004C005C006C0070521E54A
:100709002164327002F5210523E52364647002F542
:1007190023054FE54F64087002F54F7442254FF8E1
:10072900E6FD7C007430254FF8E6FB7A00AF4F12E6
:1007390007D27438254FF8E6FDAF4F12085D120451
:100749007D12076B120896D007D006D005D004D0C9
:1007590003D002D001D000D0D0D082D083D0F0D045
:02076900E0327C
:10059D00120A96120A161208208F298E288D278C82
:1005AD0026300073E4FFFE7D407C40AB29AA28A9CC
:1005BD0027A826120106E4FBFA79A0784112020F52
:1005CD00E4FBFAF978C01200158F2D8E2C8D2B8C33
:1005DD002AE4FFFE7D807C3FAB2DAA2CA92BA82AF7
:1005ED001202AC6002500E752433E4F52DF52C7516
:1005FD002B80752A3FE4FFFE7D807C40AB2DAA2C1D
:10060D00A92BA82A1202AC400E7524CCE4F52DF5C9
:10061D002C752B80752A4020002EAC2EE412032F52
:10062D00AB29AA28A927A8261202AC500DE4F5245F
:10063D00F52DF52CF52BF52A800E7524FFE4F52DFF
:10064D00F52C752BA0752A40AF24120A640205A360
:0409F8007F057E00F9
:1009FC00EF1FAA0670011E4A600FE4FDEDC3940CB4
:090A0C007480948050EA0D80F31F
:010A150022BE
:02096100A907E4
:10096300E4FBEBC39408748094805012C294E9139F
:1009730092941209F8D294E9C313F90B80E47F052A
:050983007E000209FCEA
:1009D500E4FBEBC39408748094805014C294ECC378
:1009E50013FCD2943094034304801209F80B80E27F
:0209F500AF044D
:0109F70022DD
:10098800C201D2947F0C7E001209FCC2947F507E73
:10099800001209FCD2947F0A7E001209FCA29492EC
:0609A800011209F8A20192
:0109AE002226
:100820001209887FCC1209617F441209611209887C
:100830007FCC1209617FBE1209611209D5A9071286
:1008400009D5AC077FC87E001209FCECAD01FCECB9
:0D08500012032AE4FBFA7980784102020FBE
:040A4A00D2A07F0AAD
:100A4E00000000000000000000000000000000AEEA
:060A5E00071FEE70EB2201
:0F0AC000D2A1120A4AC2A17F0A120A4EC2A02274
:0C0ACF00C2A1120A4AD2A17F0A020A4EFC
:02090500AD073C
:10090700E4FCECC39408748094805024C2A07F0A4E
:10091700120A4EED30E704D2A18002C2A17F0A126B
:100927000A4ED2A0ED25E0FD7F0A120A4E0C80D2B6
:02093700C2A05C
:01093900229B
:1009AF00E4FCECC39408748094805017120A4AED4B
:1009BF0025E0FD30A103430501C2A07F0A120A4EB4
:0509CF000C80DFAF0504
:0109D4002200
:030AAB0012090528
:100AAE00120A4AA2A1E433FDC2A07F0A120A4EAF77
:010ABE000532
:010ABF002214
:100A7E00C2A0EF24FF92A17F0A120A4E120A4AC2A6
:080A8E00A0D2A17F0A020A4E6A
:100A6400AB07120AC07F90120AAB7F41120AABAFE8
:0A0A740003120905120AAE020ACFB0
:10000E000203CFE86480F8E933E83360110460F04E
:10001E00ED33EC337009E8FCE9FDEAFEEBFF220458
:10002E0060DED3EB9FEA9EE99DE8C2E78CF0C2F753
:10003E0095F0400CE8CCF8E9CDF9EACEFAEBCFFB1F
:10004E0012039A85D0F05804700320D5B3E80470DB
:10005E00075002B2D50203D992D5EC0460F7E4CC76
:10006E00C0E0C398F8603B94186008400DD0E0FBE8
:10007E000203B1E4FBFAC9FC8028E830E406E4C9C7
:10008E00FBE4CAFCE830E305E4C9CACBFCE854073C
:10009E006010F8C3E913F9EA13FAEB13FBEC13FC47
:1000AE00D8F130F52FC3E49CFCEF9BFFEE9AFEEDEA
:1000BE0099FDD0E0FBEF4E4D4C701222DB03020394
:1000CE00D6EC2CFCEF33FFEE33FEED33FDED30E7D7
:1000DE00EB0203B1EF2BFFEE3AFEED39FDD0E0FB64
:1000EE0050130BBB00030203D9ED13FDEE13FEEF0D
:0800FE0013FFEC13FC0203B137
:10010600EC4D6011E8497017ED33EC3304600DE4F3
:10011600FCFFFEFD22E933E8330470F80203CF1238
:10012600039A58046009E4CC248150062850090239
:1001360003D92840030203D6C0E0EB4A7044B980D5
:1001460006D0E0FB0203C5EF4E701CBD8008EBFF36
:10015600EAFEE9FD80EBE98DF0A4FEE5F00201EF91
:10016600E9CDF9EAFEEBFFEF89F0A4FCE5F0CE89D4
:10017600F0A42EFFE435F0CD89F0A42DFEE435F091
:100186008067EF4E7005BD80D780C3EF8BF0A4ACBF
:10019600F0EE8BF0A42CFCE435F0F8EF8AF0A42CFA
:1001A600E5F038FCE433CB8DF0A42CFCE5F03BF80D
:1001B600EE8AF0A42CFCE5F038F8E433CF89F0A4FD
:1001C6002CFCE5F038CF3400CE89F0A42FFFE5F003
:1001D6003EFEE433C98DF0A42EFEE5F039CD8AF05B
:1001E600A42FFFE5F03EFEE43DFD33D0E0FB5007D3
:1001F6000BBB000F0203D9EC2CFCEF33FFEE33FEF2
:06020600ED33FD0203B11F
:10020C000203D9EC5D046005E8590470030203CFC6
:10021C0012039A580460F6EC4860F2EC7004FDFE90
:10022C00FF22C860DB2481C85009C39860025006C5
:10023C000203D69850CAF582E9294B4A7005AB8265
:10024C000203C575F0007C1A7880C3EF9BEE9AED23
:10025C0099400DC3EF9BFFEE9AFEED99FDE842F03D
:10026C00DC23ACF0D0E0FFD0E0FED0E0FDAB822090
:10027C00E7101BEB60BAEC2CFCEF33FFEE33FEED1A
:10028C0033FD0203B1E803F830E705C0F075F00068
:10029C00EF2FFFEE33FEED33FD40B830E7C280AAFE
:1002AC0074F8CC6480CCC86480C8F58204604FC3F9
:1002BC00EB9FF5F0EA9E42F0E99D42F0E89C45F098
:1002CC00603C501DE5825FFFE582D313CB5BCBF422
:1002DC002B5582FB50280ABA002409B9002008804B
:1002EC001DE5825BFBE582D313CF5FCFF4C3132FE5
:1002FC005582FF50090EBE00050DBD00010CC3EB6D
:10030C009FF5F0EA9E42F0E99D42F0E89C45F060D2
:09031C0007CC4820E701B3EC22F4
:1003250075F020800E75F010800575F0087D007E53
:10033500007F003392D530D50312041AEC334010F8
:10034500EF33FFEE33FEED33FDEC33FCD5F0ED225C
:0E035500E5F0247EA2D513CC92E7CDCEFF2298
:10036300EDD2E7CD33EC3392D524814006E4FFFE92
:10037300FDFC22FCE4CFCECDCC24E0501174FF80F1
:10038300EDC3CC13CCCD13CDCE13CECF13CF04708E
:07039300F030D5DE02041A70
:10039A00E9D2E7C933E833F892D5EDD2E7CD33ECA9
:0703AA0033FC5002B2D52222
:1003B100EC30E7100FBF000C0EBE00080DBD0004AD
:1003C1000BEB6014A2D5EB13FCED92E7FD2274FF59
:1003D100FCFDFEFF22E480F8A2D574FF13FC7D80B2
:0303E100E480EFC6
:0300000002065D98
:0C065D00787FE4F6D8FD75814F0206A4FA
:1003E400C2D5EC30E709B2D5E4C39DFDE49CFCEE34
:1003F40030E715B2D5E4C39FFFE49EFE120428C380
:10040400E49DFDE49CFC800312042830D507C3E47A
:060414009FFFE49EFE22A2
:0E041A00C3E49FFFE49EFEE49DFDE49CFC22F3
:1006690002059DE493A3F8E493A34003F68001F205
:1006790008DFF48029E493A3F85407240CC8C33392
:10068900C4540F4420C8834004F456800146F6DF61
:10069900E4800B010204081020408090093AE47EAE
:1006A900019360BCA3FF543F30E509541FFEE49356
:1006B900A360010ECF54C025E060A840B8E493A31D
:1006C900FAE493A3F8E493A3C8C582C8CAC583CA48
:1006D900F0A3C8C582C8CAC583CADFE9DEE780BE00
:010960000096
:10042800BC000BBE0029EF8DF084FFADF022E4CCB8
:10043800F875F008EF2FFFEE33FEEC33FCEE9DEC81
:10044800984005FCEE9DFE0FD5F0E9E4CEFD22EDC7
:10045800F8F5F0EE8420D21CFEADF075F008EF2F11
:10046800FFED33FD4007985006D5F0F222C398FD02
:050478000FD5F0EA229F
:00000001FF
