:100EC600C0F9A4B0999282F880908883C6A1868ED4
:0B0ED600FF898C0102040810204080FE
:100D49000841000000000000000008360000000013
:100D590000000000084E1010101010101010C102F1
:100D69000234002D024B232802310028025B003C8B
:090D7900013300013E00013F00BE
:0C0F4E00538EFBE4F5D7F5D6438E10223D
:10000300538E7F758900438905758B9C758DFFC25F
:080013008FD28ED2ABD2AF22D6
:100C3C00E5A0541F44C0F5A0EF900ED993F9F580B0
:100C4C00E5A0541F44E0F5A0900ED6E493F580E5A2
:100C5C00A0541F44C0F5A08980E5A0541F44E0F5C2
:100C6C00A074C62DF582740E3CF583E493F580EBED
:070C7C004A600353807F2250
:100D0E00E4FFD2B3D2B2D2B1D2B0C2C4D2B4D2B551
:100D1E00D2C220B3027F0420B2027F0520B1027F2F
:100D2E000620B0027F078F2CE52C6529FF552CF588
:0A0D3E0026E52CF45FF52B852C2927
:010D48002288
:100D8300E4FE7BFFED4C600FA8077401088002C3EB
:100D930033D8FC4206800EA8077401088002C333CF
:100DA300D8FCF45206EB6E600CE5A0541F4480F5AA
:050DB300A0EEF4F58044
:010DB8002218
:100E1800E4FE7BFFEF60047E1080035306EFED4C89
:100E2800600543062080035306DFEB6E600AE5A0E9
:080E3800541F44A0F5A08E80B8
:010E4000228F
:100DEE00052EE52E7002052DFFAE2DBE031BBFE8AE
:100DFE0018E4F52DF52EC28CAF8CEFAD8AF52FEDE4
:0A0E0E00F530E4F58AF58CD28C2251
:060F6E0000007F39DFFEE8
:010F7400225A
:100F1300E4FEEEC3940A74809480500AD290120FB8
:060F23006EC2900E80EC8E
:010F290022A5
:100BEA00E4FD538EEFF5D7F5D6120F13438E10306E
:100BFA009117ED7014AFD6EFF470F4AFD7EFF4702D
:100C0A00EEF5D7F5D67D0180E6538EEFAFD6EFAD80
:100C1A00D7FCEC1202C17B967A43798B783C12019D
:100C2A00161202FAE4F5D7F5D6EF3395E0F5348FCC
:010C3A003584
:010C3B002296
:10095200E5576003020A6B7557017F43120E67ACBD
:1009620007E41202C68F0B8E0A8D098C08E4FBFA8B
:10097200794C784212021FE4FBFA79A07841120105
:10098200161202FA8F25AC31AD32E41202C18F0F7A
:100992008E0E8D0D8C0CAB0FAA0EA90DA80CE4FFC8
:1009A200FE7DA07C42120021A804A905AA06AB077D
:1009B200E4FFFE7D4C7C4312021FC004C005C0064A
:1009C200C007E4FBFA794C7842AF0BAE0AAD09AC32
:1009D2000812021FE4FBFA79A07841120116D00333
:1009E200D002D001D000120116E4FBFA797F7843DD
:1009F200120025C004C005C006C007AB0FAA0EA98D
:100A02000DA80CE4FFFE7DA07C42120021A804A9DF
:100A120005AA06AB07E4FFFE7D7F7C4612021FA8F3
:100A220004A905AA06AB07D007D006D005D0041248
:100A320000211202FAE525D39532E495315002E401
:100A4200FFE525C394507480948040027FFF120F0B
:100A52002A120BEAD3E535955CE534955B40082014
:090A620001020540D20122C2018B
:010A6B002268
:100C8300E54D7042754D017F03EFC3940874809462
:100C930080500974412FF8E4F60F80EDC3E54C95BD
:100CA30030E54B952F5003754401C3E5329525E597
:100CB3003194005003754501C3E55C9535E55B95BB
:060CC300345003754601E8
:010CC9002208
:100A6C00E55A6003020B5D755A01120D0EE5262442
:100A7C00FB601D14603314607824036003020B4B7D
:100A8C000556E55664046003020B4BF556020B4BFE
:100A9C00E55664036003020B4B053FE53F640360BE
:100AAC0003020B4BF53F020B4BAF567E00EF64037A
:100ABC007034AD3FFCED700C74F4254CF54C7401A6
:100ACC00354BF54BED64014C700B740A2532F53245
:100ADC00E43531F531ED64024C700B740A255CF58C
:100AEC005CE4355BF55BEF64024E7053633E018052
:100AFC004EAF567E00EF64037036AD3FFCED700CCC
:100B0C00740C254CF54C74FE354BF54BED64014CD7
:100B1C00700C74F62532F53274FF3531F531ED6415
:100B2C00024C700C74F6255CF55C74FF355BF55B60
:100B3C00EF4E7003633301E55664017002D200E599
:100B4C002B6407700CE55664017006C200F523F5A2
:020B5C00242251
:1004C200E5596003020801755901FFEFC3940874EE
:1004D200809480500F74362FF8E4F6744E2FF8761D
:1004E200100F80E7852850E55614700302064E145B
:1004F20070030206751470030207342403600302BA
:100502000801E533FB7A00600302059A754E0FC3BA
:10051200E5309410E52F94274014AE2FAF307C279E
:100522007D1012037B7C007D0A12037B8D51C3E593
:100532003094E8E52F94034014AE2FAF307C037D56
:10054200E812037B7C007D0A12037B8D52C3E530E7
:100552009464E52F94004014AE2FAF307C007D648C
:1005620012037B7C007D0A12037B8D53C3E530941A
:100572000AE52F94004014AE2FAF307C007D0A12A2
:10058200037B7C007D0A12037B8D54AE2FAF307C3F
:10059200007D0A12037B8D55EB64014A6003020859
:1005A20001754E0FAE2FAF30FCFD7B407A42790FC2
:1005B200F8D31203DE5018AE2FAF30E4FCFDF81270
:1005C2000CCAE47B0AFAF9F8120CCAAF038F51AED7
:1005D2002FAF30E4FCFD7BA07A867901F8D31203B9
:1005E200DE5018AE2FAF30E4FCFDF8120CCAE47BEB
:1005F2000AFAF9F8120CCAAF038F52C3E53094100D
:10060200E52F94274014AE2FAF307C277D101203C4
:100612007B7C007D0A12037B8D53C3E53094E8E5B1
:100622002F94034016AE2FAF307C037DE812037B7C
:100632007C007D0A12037B8D548003E4F554753CE3
:1006420001AE2FAF307C007D640207F5754E11E5D7
:100652002575F0648475F00A8485F053E52575F0FC
:100662000A8475F00A8485F054E52575F00A8485BC
:10067200F05522E53EFB7A007055754E0AC3E5350A
:100682009464E53494004014AE34AF357C007D644C
:1006920012037B7C007D0A12037B8D53C3E53594E4
:1006A2000AE53494004014AE34AF357C007D0A1262
:1006B200037B7C007D0A12037B8D54C3E5349400D6
:1006C200400DAE34AF357C007D0A12037B8D55EBB5
:1006D20064014A6003020801754E0AC3E535946459
:1006E200E53494004016AE34AF357C007D641203CD
:1006F2007B7C007D0A12037B8D538003E4F55375E6
:100702003B01C3E535940AE53494004014AE34AF9E
:10071200357C007D0A12037B7C007D0A12037B8DEF
:1007220054C3E53494005003020801AE34AF3502DD
:1007320007F8754E12E53FFB7A00705D754F01C3F5
:10074200E54C9410E54B94274014AE4BAF4C7C27FC
:100752007D1012037B7C007D0A12037B8D53C3E55F
:100762004C94E8E54B94034016AE4BAF4C7C037DB2
:10077200E812037B7C007D0A12037B8D548003E424
:10078200F554753C01AE4BAF4C7C007D6412037B8B
:100792007C007D0A12037B8D55EB64014A701C7547
:1007A2004F02AE31AF32FC7D0A12037B8F54AE3161
:1007B200AF327C007D0A12037B8D55E53F640270E7
:1007C2003E754F03C3E55C9464E55B94004016AE4E
:1007D2005BAF5C7C007D6412037B7C007D0A1203AC
:1007E2007B8D548003E4F554753C01AE5BAF5C7CB9
:0F07F200007D0A12037B7C007D0A12037B8D556C
:0108010022D4
:03001B00020802D6
:10080200C0E0C0F0C083C082C0D075D000C000C0BC
:1008120001C002C003C004C005C006C0070558E5F8
:1008220058640A60030208EDF558052AE52A6408AF
:100832007002F52A0559E55964327002F559055AD4
:10084200E55A64647002F55A054DE54D64967002EE
:10085200F54D0557AF577E00BE0106BF2C037557F5
:100862000030001C0524E52470020523FFAE23BEE0
:10087200030EBFE80B752300752400C2007540000B
:10088200120DEE120C83120A6C1204C27441252A54
:10089200F8E6FD7C00AF2A120D83744E252AF8E695
:1008A200FD7436252AF8E6FB7A00AF2A120C3C05C5
:1008B2004AE54A7002054964644549702EF549F5D6
:1008C2004AAF56FEEF70056341018003754100EFA8
:1008D20064014E70056342018003754200EF6402B9
:1008E2004E70056343018003754300C3E54C9530A8
:1008F200E54B952F50087527007528088006752747
:10090200007528020522E52270020521640A4521AC
:100912007004F521F522C3E5229528E5219527509B
:1009220004D2038002C203A201E433FFA203E4FC67
:1009320033FD120E18D007D006D005D004D003D054
:1009420002D001D000D0D0D082D083D0F0D0E0321B
:100E8C00120003120F4EE5A0541F4480F5A075808C
:0D0E9C00FFE5A0541F44A0F5A0E4F580225E
:080F6600120E8C12095280FBEF
:040EE100D2A07F0A12
:100EE500000000000000000000000000000000AE4F
:060EF500071FEE70EB2266
:0F0F3F00D2A1120EE1C2A17F0A120EE5C2A022BA
:0C0F5A00C2A1120EE1D2A17F0A020EE536
:020DB900AD0784
:100DBB00E4FCECC39408748094805024C2A07F0A96
:100DCB00120EE5ED30E704D2A18002C2A17F0A1218
:100DDB000EE5D2A0ED25E0FD7F0A120EE50C80D2C8
:020DEB00C2A0A4
:010DED0022E3
:100E4100E4FCECC39408748094805017120EE1ED19
:100E510025E0FD30A103430501C2A07F0A120EE582
:050E61000C80DFAF056D
:010E66002269
:0B0EA900120DB9120EB4AF03120DB908
:100EB400120EE1A2A1E433FDC2A07F0A120EE5AF37
:010EC4000528
:010EC500220A
:100EFB00C2A0EF24FF92A17F0A120EE5120EE1C2EF
:080F0B00A0D2A17F0A020EE54D
:020E6700AB07D7
:100E6900120F3F7F90120EA9120F3F7F91120DB9F9
:100E7900120EB4120E41AD077F01120EFB120F5A6A
:020E8900AF05B3
:010E8B002244
:100F2A00AB07120F3F7F90120DB9120EB47F411218
:050F3A000EA9020F5A90
:10001E00020366E86480F8E933E83360110460F0A7
:10002E00ED33EC337009E8FCE9FDEAFEEBFF220448
:10003E0060DED3EB9FEA9EE99DE8C2E78CF0C2F743
:10004E0095F0400CE8CCF8E9CDF9EACEFAEBCFFB0F
:10005E0012033185D0F05804700320D5B3E8047034
:10006E00075002B2D502037092D5EC0460F7E4CCCF
:10007E00C0E0C398F8603B94186008400DD0E0FBD8
:10008E00020348E4FBFAC9FC8028E830E406E4C920
:10009E00FBE4CAFCE830E305E4C9CACBFCE854072C
:1000AE006010F8C3E913F9EA13FAEB13FBEC13FC37
:1000BE00D8F130F52FC3E49CFCEF9BFFEE9AFEEDDA
:1000CE0099FDD0E0FBEF4E4D4C701222DB03020384
:1000DE006DEC2CFCEF33FFEE33FEED33FDED30E730
:1000EE00EB020348EF2BFFEE3AFEED39FDD0E0FBBD
:1000FE0050130BBB0003020370ED13FDEE13FEEF66
:08010E0013FFEC13FC0203488F
:10011600EC4D6011E8497017ED33EC3304600DE4E3
:10012600FCFFFEFD22E933E8330470F80203661291
:10013600033158046009E4CC248150062850090292
:10014600037028400302036DC0E0EB4A7044B98097
:1001560006D0E0FB02035CEF4E701CBD8008EBFF8F
:10016600EAFEE9FD80EBE98DF0A4FEE5F00201FF71
:10017600E9CDF9EAFEEBFFEF89F0A4FCE5F0CE89C4
:10018600F0A42EFFE435F0CD89F0A42DFEE435F081
:100196008067EF4E7005BD80D780C3EF8BF0A4ACAF
:1001A600F0EE8BF0A42CFCE435F0F8EF8AF0A42CEA
:1001B600E5F038FCE433CB8DF0A42CFCE5F03BF8FD
:1001C600EE8AF0A42CFCE5F038F8E433CF89F0A4ED
:1001D6002CFCE5F038CF3400CE89F0A42FFFE5F0F3
:1001E6003EFEE433C98DF0A42EFEE5F039CD8AF04B
:1001F600A42FFFE5F03EFEE43DFD33D0E0FB5007C3
:100206000BBB000F020370EC2CFCEF33FFEE33FE4A
:06021600ED33FD02034878
:10021C00020370EC5D046005E85904700302036688
:10022C00120331580460F6EC4860F2EC7004FDFEE9
:10023C00FF22C860DB2481C85009C39860025006B5
:10024C0002036D9850CAF582E9294B4A7005AB82BE
:10025C0002035C75F0007C1A7880C3EF9BEE9AED7C
:10026C0099400DC3EF9BFFEE9AFEED99FDE842F02D
:10027C00DC23ACF0D0E0FFD0E0FED0E0FDAB822080
:10028C00E7101BEB60BAEC2CFCEF33FFEE33FEED0A
:10029C0033FD020348E803F830E705C0F075F000C1
:1002AC00EF2FFFEE33FEED33FD40B830E7C280AAEE
:1002BC0075F020800E75F010800575F0087D007EBD
:1002CC00007F003392D530D5031203D0EC334010AD
:1002DC00EF33FFEE33FEED33FDEC33FCD5F0ED22C6
:0E02EC00E5F0247EA2D513CC92E7CDCEFF2202
:1002FA00EDD2E7CD33EC3392D524814006E4FFFEFC
:10030A00FDFC22FCE4CFCECDCC24E0501174FF805A
:10031A00EDC3CC13CCCD13CDCE13CECF13CF0470F7
:07032A00F030D5DE0203D024
:10033100E9D2E7C933E833F892D5EDD2E7CD33EC12
:0703410033FC5002B2D5228B
:10034800EC30E7100FBF000C0EBE00080DBD000416
:100358000BEB6014A2D5EB13FCED92E7FD2274FFC2
:10036800FCFDFEFF22E480F8A2D574FF13FC7D801B
:03037800E480EF2F
:03000000020B5E92
:0C0B5E00787FE4F6D8FD75815C020BA5E1
:10037B00BC000BBE0029EF8DF084FFADF022E4CC66
:10038B00F875F008EF2FFFEE33FEEC33FCEE9DEC2F
:10039B00984005FCEE9DFE0FD5F0E9E4CEFD22ED75
:1003AB00F8F5F0EE8420D21CFEADF075F008EF2FBF
:1003BB00FFED33FD4007985006D5F0F222C398FDB0
:0503CB000FD5F0EA224D
:100CCA00C2D5E830E70FB2D5E4C39BFBE49AFAE455
:100CDA0099F9E498F8EC30E717B2D5120D0012042E
:100CEA0030E4C39BFBE49AFAE499F9E498F88003A8
:100CFA0012043030D50DE4C39FFFE49EFEE49DFD4F
:040D0A00E49CFC2247
:0E03D000C3E49FFFE49EFEE49DFDE49CFC223E
:1003DE00EB9FF5F0EA9E42F0E99D42F0EC6480C896
:0603EE0064809845F02236
:100B6A00020F66E493A3F8E493A34003F68001F22C
:100B7A0008DFF48029E493A3F85407240CC8C3338C
:100B8A00C4540F4420C8834004F456800146F6DF5B
:100B9A00E4800B0102040810204080900D49E47E95
:100BAA00019360BCA3FF543F30E509541FFEE49350
:100BBA00A360010ECF54C025E060A840B8E493A317
:100BCA00FAE493A3F8E493A3C8C582C8CAC583CA42
:100BDA00F0A3C8C582C8CAC583CADFE9DEE780BEFA
:010D82000070
:1003F40075F008758200EF2FFFEE33FECD33CDCCC0
:1004040033CCC58233C5829BED9AEC99E582984042
:100414000CF582EE9BFEED9AFDEC99FC0FD5F0D61F
:10042400E4CEFBE4CDFAE4CCF9A88222B800C1B949
:100434000059BA002DEC8BF084CFCECDFCE5F0CB87
:10044400F97818EF2FFFEE33FEED33FDEC33FCEBC0
:1004540033FB10D703994004EB99FB0FD8E5E4F97B
:10046400FA227818EF2FFFEE33FEED33FDEC33FC68
:10047400C933C910D7059BE99A4007EC9BFCE99A5C
:10048400F90FD8E0E4C9FAE4CCFB2275F010EF2FA1
:10049400FFEE33FEED33FDCC33CCC833C810D707A1
:1004A4009BEC9AE899400AED9BFDEC9AFCE899F8DC
:0E04B4000FD5F0DAE4CDFBE4CCFAE4C8F9226F
:00000001FF
