:100E3000C0F9A4B0999282F880908883C6A1868E6A
:0A0E4000FFBF0102040810204080EB
:100DBD00083F101010101010101008360000000021
:0E0DCD0000000000032E2359550332000000E1
:100EA400538E7F5389F0438905E4F58AF58CC28D0E
:030EB400D28C22BB
:100E7B00538EBF53890F758B18758DFCC28FD28E15
:050E8B00D2ABD2AF2242
:100E1600E5A0541F4480F5A07580FFE5A0541F444B
:0A0E2600A0F5A0E4F58053A01F2200
:100B9100E5A0541F44C0F5A0EF900E4293FEF580EE
:100BA100E5A0541F44E0F5A0900E40E493F580E5E4
:100BB100A0541F44C0F5A08E80E5A0541F44E0F569
:100BC100A074302DF582740E3CF583E493F58053C7
:030BD100A01F2240
:100BD400E4FFD2B3D2B2D2B1D2B0C2C4D2B4D2B58D
:100BE400D2C220B3027F0420B2027F0520B1027F6B
:100BF4000620B0027F07C2C2D2B4D2B5D2C420B399
:100C0400027F0820B2027F0920B1027F0A20B002CD
:020C14007F0B54
:010C160022BB
:100A1800E54C454B6003020ABAF54B754C017F4320
:100A2800120D6FAC07E41201CEE4FBFA792078418D
:100A380012001EE4FBFA79407840120127E4FBFA21
:100A480079887841120127E4FBFA79C878421200C4
:100A58001E1202028E4D8F4E7B007A00792E120DE7
:100A68003EAE4DAF4E7C007D6412031FD3EF952739
:100A7800EE94005013E4F535FB7A00792EF51575E0
:100A880016037D01FC120CCFAE4DAF4E7C007D6489
:100A980012031FC3EF9524EE940040167535017BB1
:100AA800007A00792E7515007516037D017C0012F9
:030AB8000CCF223E
:10038200E52260030206BA752201120BD48F4AE5F8
:100392004A6549FF554AF548E54AF45FF523854A1F
:1003A20049E54824FCB4080040030206BA9003BDA4
:1003B20075F003A4C58325F0C583730204360204D5
:1003C2008502042F0203DC0206BA0203D502048C62
:1003D20002058B754705E4F52922E54764017002A1
:1003E2000525E5256401700BFB7A00792E120D3E7E
:1003F200852E3EE5256402700BFB7A00792E120DE4
:100402003E852F3EE5256403700BFB7A00792E12A0
:100412000D3E85303EE52564047002F525E547640E
:100422000170030206BA754701E4F52522754702F9
:10043200E4F52622E54764027005754703F526E5D3
:10044200476403700D0526E52664037005754702AF
:10045200F526AF477E00EF64047003632801EF6462
:10046200054E60030206BA632901E52964016003AF
:100472000206BAFB7A007932F5157516037D01FC86
:10048200020B47754704E4F52822E5476403704FE1
:10049200E52614602514704774FB2527F527D394AD
:1004A20000748094805003E4F5277B007A0079275A
:1004B2007515007516017D0F802074FB2524F52427
:1004C200D39400748094805003E4F5247B007A0076
:1004D20079247515007516017D107C00120CCFE58C
:1004E20047640160030206BAAF25FEEF6401702E75
:1004F200AD3EED3395E04D7005753E23801D153EF2
:10050200E53E75F010120283ADF0ED3395E0FCED9F
:10051200640F4C700674FA253EF53E853E2EEF645C
:10052200024E702EAF3EEF3395E04F7005753E5987
:10053200801D153EE53E75F010120283AFF0EF33D9
:1005420095E0FEEF640F4E700674FA253EF53E8587
:100552003E2FE5256403702EAF3EEF3395E04F70DA
:1005620005753E59801D153EE53E75F01012028359
:10057200AFF0EF3395E0FEEF640F4E700674FA258C
:100582003EF53E853E300206B1E5476403704FE515
:100592002614602514704774052527F527C3945F38
:1005A20074809480400375275F7B007A00792775F9
:1005B20015007516017D0F802074052524F524C3CE
:1005C200945F74809480400375245F7B007A007985
:1005D200247515007516017D107C00120CCFE547BD
:1005E200640160030206BAAF25FEEF6401704A059A
:1005F2003EE53E75F010120283ADF0ED3395E0FC5E
:10060200ED640A4C70067406253EF53EE53E75F033
:1006120010120283FD3395E0FCED64024C7017E585
:100622003E75F010120283ADF0ED3395E0FCED64FF
:10063200044C7002F53E853E2EEF64024E70350585
:100642003EE53E75F010120283AFF0EF3395E0FE07
:10065200EF640A4E70067406253EF53EE53E75F0DF
:1006620010120283FF3395E0FEEF64064E7002F52E
:100672003E853E2FE52564037035053EE53E75F067
:1006820010120283AFF0EF3395E0FEEF640A4E7072
:10069200067406253EF53EE53E75F010120283FF14
:1006A2003395E0FEEF64064E7002F53E853E307BE8
:0806B200007A00792E120C17EA
:0106BA00221D
:1006BB00E521600302096F752101FFEFC3940874F4
:1006CB008094805009743F2FF876100F80EDE5472A
:1006DB0024FE700302079D1470030207F2147003CB
:1006EB000208921470030209232404600302096FA9
:1006FB00E5476401600302096FAF25FEEF640170EB
:10070B001D30000AE53E75F010120283F53F3000F4
:10071B001AE53E75F01012028385F040800DE52E30
:10072B00C4540FF53FE52E540FF540EF64024E70A5
:10073B001D30000AE53E75F010120283F5423000C1
:10074B001AE53E75F01012028385F043800DE52FFC
:10075B00C4540FF542E52F540FF543EF64034E706D
:10076B001D30000AE53E75F010120283F54530008E
:10077B001AE53E75F01012028385F046800DE530C8
:10078B00C4540FF545E530540FF5467541117544CA
:10079B001122E5476402600302096F753F11754032
:1007AB0001754111AE4DAF4E7C037DE812031F7CEA
:1007BB00007D0A12031F8D43AE4DAF4E7C007D644E
:1007CB0012031F7C007D0A12031F8D44AE4DAF4EEA
:1007DB007C007D0A12031F7C007D0A12031F8D45CE
:1007EB00AE4DAF4E020903E5476403600302096F88
:1007FB00AF26FEEF6401702A30000DE52475F00A78
:10080B008475F00A8485F03F300009E52475F00A01
:10081B008485F040300003E4F541300020E4F542DC
:10082B00801BE52475F00A8475F00A8485F03FE59A
:10083B002475F00A8485F040E4F541F542EF64023B
:10084B004E702A30000DE52775F00A8475F00A8486
:10085B0085F043300009E52775F00A8485F04430B4
:10086B000003E4F545300004E4F5462222E5277544
:10087B00F00A8475F00A8485F043E52775F00A8445
:10088B0085F044E402091EE5476404600302096F26
:10089B00E52814606D04600302096F753F11754004
:1008AB0002754111AE2CAF2D7C277D1012031F7CDE
:1008BB00007D0A12031F8D42AE2CAF2D7C037DE809
:1008CB0012031F7C007D0A12031F8D43AE2CAF2D2C
:1008DB007C007D6412031F7C007D0A12031F8D4474
:1008EB00AE2CAF2D7C007D0A12031F7C007D0A12FB
:1008FB00031F8D45AE2CAF2D7C007D0A12031F8D7F
:10090B004622753F11754002754111E4F54275435E
:10091B0001F544F545F54622E54764057046E529A2
:10092B0014601A04703EE53575F00A8475F00A847C
:10093B0085F045E53575F00A8485F04622E532C42D
:10094B00540FF53FE532540FF540E533C4540FF522
:10095B0042E533540FF543E534C4540FF545E53404
:04096B00540FF546EA
:01096F002265
:03001B0002097067
:10097000C0E0C0F0C083C082C0D075D000C000C04D
:1009800001C002C003C004C005C006C007054CE595
:100990004C7002054B64C8454B7004F54BF54C0593
:1009A00021E52164327002F5210522E5226464709C
:1009B00002F5220531E53164087002F531743F25F6
:1009C00031F8E6FD7C00AF31120B911206BB120329
:1009D00082052BE52B7002052AFFAE2ABE031EBF3F
:1009E000E81B752A00752B00AF8CEFAD8AF52CED56
:1009F000F52D758A00758C00A200B39200D007D047
:100A000006D005D004D003D002D001D000D0D0D081
:080A100082D083D0F0D0E03267
:100C55007B007A0079247515007516017D107C00DE
:100C6500120B47120E16120EA4120E7B7B007A0091
:100C750079277515007516017D0F7C00120B477BD2
:0D0C8500007A00792E120C17120A1880FB5D
:040E4A00D2A07F0AA9
:100E4E00000000000000000000000000000000AEE6
:060E5E00071FEE70EB22FD
:080E6400AF03120D09120DE8A5
:0F0E6C00D2A1120E4AC2A17F0A120E4EC2A022BC
:0C0EB700C2A1120E4AD2A17F0A020E4E08
:020D0900AD0734
:100D0B00E4FCECC39408748094805024C2A07F0A46
:100D1B00120E4EED30E704D2A18002C2A17F0A125F
:100D2B000E4ED2A0ED25E0FD7F0A120E4E0C80D2A6
:020D3B00C2A054
:010D3D002293
:100D9700E4FCECC39408748094805017120E4AED5B
:100DA70025E0FD30A103430501C2A07F0A120E4EC4
:050DB7000C80DFAF0518
:010DBC002214
:0C0DDC00AB05AA04120E6C7FA0120D09DA
:100DE800120E4AA2A1E433FDC2A07F0A120E4EAF32
:010DF80005F5
:010DF90022D7
:10000300C2A0EF24FF92A17F0A120E4E120E4AC223
:08001300A0D2A17F0A020E4EEB
:020D6F00AB07D0
:100D7100120E6C7F90120D09120DE8120E647F9114
:100D8100120D09120DE8120D97AD077F0112000334
:050D9100120EB7AF05D2
:010D9600223A
:080EC3007F0C7EA9DEFEDFFCBE
:010ECB002204
:100CCF008B108A118912120DDCAF03801FE51615E8
:100CDF0016AE15700215154E601AAB100512E512FF
:100CEF00AA117002051114F91202A5FF120D0912B3
:0A0CFF000DE880D9120EB7020EC3F3
:100B47008B108A118912120DDC120E647FA1120D0F
:100B570009120DE8E5161516AE15700215154E604B
:100B670026120D97AB100512E512AA117002051196
:100B770014F9EF1202EBE51645156004E4FF800255
:0A0B87007F0112000380CD020EB7BB
:100DFA00E4FEEEC3940874809480500FC297EF13F8
:0B0E0A0092A3EFC313FFD2970E80E706
:010E150022BA
:100E9000C29300C29700D29300120DFAAF05120D53
:040EA000FAC29322DD
:100C9200E4FDC29300C29700D29300120DFAE4FF62
:100CA200EFC39408748094805011C297EDC313FD72
:100CB20030A303430580D2970F80E5C29300C29709
:0C0CC20000D29700C2A300D2A300AF052F
:010CCE002203
:060D3E008B108A118912DE
:100D4400E4FCECC3940374809480501EEC25E0FF13
:100D5400C374859FFF120C92AB10AA11A9128C8246
:0A0D6400758300EF1202FD0C80D829
:010D6E002262
:060C17008B108A11891206
:100C1D00E4FD7F8E120E90E4FCECC394037480947B
:100C2D0080501EEC25E0FFC374849FFFAB10AA110A
:100C3D00A9128C827583001202BEFD120E900C80DB
:080C4D00D87D807F8E020E901D
:10001E00EC4D6011E8497017ED33EC3304600DE4DC
:10002E00FCFFFEFD22E933E8330470F802026E1283
:10003E00023958046009E4CC248150062850090284
:10004E000278284003020275C0E0EB4A7044B98082
:10005E0006D0E0FB020264EF4E701CBD8008EBFF81
:10006E00EAFEE9FD80EBE98DF0A4FEE5F002010762
:10007E00E9CDF9EAFEEBFFEF89F0A4FCE5F0CE89BD
:10008E00F0A42EFFE435F0CD89F0A42DFEE435F07A
:10009E008067EF4E7005BD80D780C3EF8BF0A4ACA8
:1000AE00F0EE8BF0A42CFCE435F0F8EF8AF0A42CE3
:1000BE00E5F038FCE433CB8DF0A42CFCE5F03BF8F6
:1000CE00EE8AF0A42CFCE5F038F8E433CF89F0A4E6
:1000DE002CFCE5F038CF3400CE89F0A42FFFE5F0EC
:1000EE003EFEE433C98DF0A42EFEE5F039CD8AF044
:1000FE00A42FFFE5F03EFEE43DFD33D0E0FB5007BC
:10010E000BBB000F020278EC2CFCEF33FFEE33FE3C
:06011E00ED33FD0202506A
:10012400020278EC5D046005E85904700302026E73
:10013400120239580460F6EC4860F2EC7004FDFEDB
:10014400FF22C860DB2481C85009C39860025006AE
:100154000202759850CAF582E9294B4A7005AB82B0
:1001640002026475F0007C1A7880C3EF9BEE9AED6E
:1001740099400DC3EF9BFFEE9AFEED99FDE842F026
:10018400DC23ACF0D0E0FFD0E0FED0E0FDAB822079
:10019400E7101BEB60BAEC2CFCEF33FFEE33FEED03
:1001A40033FD020250E803F830E705C0F075F000B3
:1001B400EF2FFFEE33FEED33FD40B830E7C280AAE7
:1001C40075F020800E75F010800575F0087D007EB6
:1001D400007F003392D530D503120374EC33401002
:1001E400EF33FFEE33FEED33FDEC33FCD5F0ED22BF
:0E01F400E5F0247EA2D513CC92E7CDCEFF22FB
:10020200EDD2E7CD33EC3392D524814006E4FFFEF4
:10021200FDFC22FCE4CFCECDCC24E0501174FF8053
:10022200EDC3CC13CCCD13CDCE13CECF13CF0470F0
:07023200F030D5DE02037479
:10023900E9D2E7C933E833F892D5EDD2E7CD33EC0B
:0702490033FC5002B2D52284
:10025000EC30E7100FBF000C0EBE00080DBD00040F
:100260000BEB6014A2D5EB13FCED92E7FD2274FFBB
:10027000FCFDFEFF22E480F8A2D574FF13FC7D8014
:03028000E480EF28
:03000000020ABB36
:0C0ABB00787FE4F6D8FD75814E020B0236
:10028300C2D530F707B2D563F0FF05F030E70CB203
:10029300D5F4048463F0FF05F080018430D502F4C3
:0202A300042233
:1002A500BB010689828A83E0225002E722BBFE0257
:0902B500E32289828A83E493228A
:1002BE00BB010CE58229F582E5833AF583E02250F5
:1002CE0006E92582F8E622BBFE06E92582F8E2223F
:0D02DE00E58229F582E5833AF583E4932259
:1002EB00BB010689828A83F0225002F722BBFE01F2
:0202FB00F322EC
:1002FD00F8BB010DE58229F582E5833AF583E8F037
:10030D00225006E92582C8F622BBFE05E92582C8E2
:02031D00F222CA
:10031F00BC000BBE0029EF8DF084FFADF022E4CCC2
:10032F00F875F008EF2FFFEE33FEEC33FCEE9DEC8B
:10033F00984005FCEE9DFE0FD5F0E9E4CEFD22EDD1
:10034F00F8F5F0EE8420D21CFEADF075F008EF2F1B
:10035F00FFED33FD4007985006D5F0F222C398FD0C
:05036F000FD5F0EA22A9
:0E037400C3E49FFFE49EFEE49DFDE49CFC229A
:100AC700020C55E493A3F8E493A34003F68001F2E4
:100AD70008DFF48029E493A3F85407240CC8C33330
:100AE700C4540F4420C8834004F456800146F6DFFF
:100AF700E4800B0102040810204080900DBDE47EC5
:100B0700019360BCA3FF543F30E509541FFEE493F3
:100B1700A360010ECF54C025E060A840B8E493A3BA
:100B2700FAE493A3F8E493A3C8C582C8CAC583CAE5
:100B3700F0A3C8C582C8CAC583CADFE9DEE780BE9D
:010DDB000017
:00000001FF
