:101315000102040810204080C0F9A4B0999282F817
:0C1325008090FF8883C6A1868EBF898C53
:1010340001220001280008470A0A0A0A0A0A0A0AC1
:1010440008350000000000000000083D000000001A
:1010540000000000420008001E0134640324151F30
:101064003A4400120000000044000E000000000298
:05107400310000C10481
:100FED002001077F411212B88F34AF347E00C374D5
:100FFD00809480400CD3EF9414748094805002D26E
:10100D0002300222C3EE64809480400ED3EF94141C
:10101D00EE648094805003D20222A20292018524B4
:07102D002F852530C20222CD
:1010F500E4FE7BFFED4C600FA8077401088002C376
:1011050033D8FC4206800EA8077401088002C33359
:10111500D8FCF45206EE6B600FE5A0541F4480F531
:08112500A0EEF4F58053A01FB9
:01112D00229F
:10112E00E4FFD2B3D2B2D2B1D2B0C2C4D2B4D2B52D
:10113E00D2C220B3027F0420B2027F05D2B3D2B254
:10114E00D2B1D2B0C2C2D2B4D2B5D2C420B3027F11
:06115E000820B2027F0927
:011164002268
:10136700E5A0541F4480F5A07580FFE5A0541F44F5
:07137700A0F5A0E4F58022BF
:100F9F00E5A0541F44C0F5A0EF90131593F9F58009
:100FAF00E5A0541F44E0F5A0901327E493F580E5E6
:100FBF00A0541F44C0F5A08980E5A0541F44E0F55C
:100FCF00A0E493F580EB4A600353807F741D2DF5E9
:0E0FDF008274133CF583E493528075A01F22A8
:100C7A00AF227E00EF7005753D018003E4F53DEF7C
:100C8A0064014E7005753E018003E4F53EEF64028F
:100C9A004E7005753F018003E4F53FAE31E53278C9
:100CAA0002C333CE33CED8F9243AF58274003EF526
:100CBA0083E0FCA3E0FDA3E0FEA3E0FF120373C3FD
:100CCA00900009E09FEE6480F8900008E064809844
:100CDA005004D2008002C200E4FFFEFDFC90000A2C
:100CEA00E0F8A3E0F9A3E0FAA3E0FB1202BC700962
:100CFA00E53245316003754101C3E5329402E531BD
:100D0A0094005003020DC7AE31E5327802C333CEE8
:100D1A0033CED8F92436F58274003EF583E0FCA37D
:100D2A00E0FDA3E0FEA3E0FFC004C005C006C007C3
:100D3A00AE31E5327802C333CE33CED8F9243AF550
:100D4A008274003EF583E0F8A3E0F9A3E0FAA3E099
:100D5A00FBD007D006D005D0041202BC605F405D0C
:100D6A00AE31E5327802C333CE33CED8F9240EF54C
:100D7A008274003EF583E0FCA3E0FDA3E0FEA3E05D
:100D8A00FFC004C005C006C007AE31E5327802C311
:100D9A0033CE33CED8F92412F58274003EF583E0BF
:100DAA00F8A3E0F9A3E0FAA3E0FBD007D006D00548
:100DBA00D0041202BC6006400475420122E4F542E6
:010DCA002206
:100DCB00E5236003020F12752301120FED12112E92
:100DDB008F4FE54F6546FF554FF545E54FF45FF5F2
:100DEB0027854F46E54524FB601D24FD602B1460D1
:100DFB005024056003020E8A0522E522640370026B
:100E0B00F522E4F5288078E522640170720528E567
:100E1B00286403706AF5288066E5226402700E90E0
:100E2B000009E004F07006900008E004F090000860
:100E3B00E07004A3E064647046900008F0A3F080B7
:100E4B003EAF227E00EF6402700E900009E024FF9B
:100E5B00F0900008E034FFF0900008E0B4FF0EA320
:100E6B00E0B4FF09900008E4F0A37463F0EF6401B1
:100E7B004E700CE52864027006F52BF52CD203E5B9
:100E8B002764096003020F12F52BF52C200376FB68
:100E9B00FAAE02EB7802C333CE33CED8F9243EF54B
:100EAB008274003EF58312049300000000AE02EB47
:100EBB007802C333CE33CED8F92416F58274003EB4
:100ECB00F583120493000000000BBB00010AEB64D6
:100EDB000A4A70BD90006A12049300000000900053
:100EEB00121204930000000090006612049300009D
:100EFB00000090000E12049300000000E4F531F5A1
:070F0B0032F530F52FC2039F
:010F120022BC
:1008FC00E5216003020C79752101E52214606C146A
:10090C007003020B1E147003020B67147003020CAD
:10091C003624046003020C797B007A0079241211CE
:10092C00CEE524FB7C007D0AFF7E001204438F473A
:10093C007C007D0AAF037E001204438D48E525FB45
:10094C007C007D0AFF7E001204438F4A7C007D0AE6
:10095C00AF037E001204438D4BE526FB7C007D0A21
:10096C00FF7E001204438F4D020B13E52860030237
:10097C000A0F75470D75480A90006AE0FCA3E0FD6C
:10098C00A3E0FEA3E0FF120373AB07AA067C007D75
:10099C000A1204437C007D0A1204438D497C007DBD
:1009AC000AAF03AE021204438D4A754B119000122C
:1009BC00E0FCA3E0FDA3E0FEA3E0FF120373AB0792
:1009CC00AA067C007D641204437C007D0A12044359
:1009DC008D4C7C007D0AAF03AE021204437C007D7B
:1009EC000A1204438D4D753B01900012E0FCA3E00C
:1009FC00FDA3E0FEA3E0FF1203737C007D0A12044A
:100A0C00438D4EE52864016003020AA975471275EF
:100A1C00480A900066E0FCA3E0FDA3E0FEA3E0FF23
:100A2C00120373AB07AA067C007D0A1204437C00F8
:100A3C007D0A1204438D497C007D0AAF03AE02127D
:100A4C0004438D4A754B1190000EE0FCA3E0FDA30E
:100A5C00E0FEA3E0FF120373AB07AA067C007D64E3
:100A6C001204437C007D0A1204438D4C7C007D0AE9
:100A7C00AF03AE021204437C007D0A1204438D4D79
:100A8C00753B0190000EE0FCA3E0FDA3E0FEA3E0AB
:100A9C00FF1203737C007D0A1204438D4EE528641B
:100AAC00026003020C79F53B754710AE31AF32FC96
:100ABC007D0A1204437C007D0A1204438D48AE313A
:100ACC00AF327C007D0A1204438D49E52FFB7C007C
:100ADC007D0AFF7E001204437C007D0A1204438DC4
:100AEC004A7C007D0AAF037E001204438D4B754C8B
:100AFC0011E530FB7C007D0AFF7E001204437C0074
:100B0C007D0A1204438D4D7C007D0AAF037E0002EA
:100B1C000C74E4F50AC3E50A9408748094805012AE
:100B2C007435250AF8E4F67447250AF8760A050A9E
:100B3C0080E3754713900008E0FAA3E0FB7C007D8E
:100B4C000AFFAE021204437C007D0A1204438D4D51
:100B5C007C007D0AAF03AE02020C74E4F50AC3E517
:100B6C000A94087480948050127435250AF8E4F6BF
:100B7C007447250AF8760A050A80E375470FAE31EB
:100B8C00E5327802C333CE33CED8F9243EF58274E5
:100B9C00003EF583E0FCA3E0FDA3E0FEA3E0FF1222
:100BAC000373AB07AA067C007D0A1204437C007D0C
:100BBC000A1204438D4A7C007D0AAF03AE02120474
:100BCC00438D4B754C11AE31E5327802C333CE33C5
:100BDC00CED8F92416F58274003EF583E0FCA3E030
:100BEC00FDA3E0FEA3E0FF120373AB07AA067C0093
:100BFC007D0A1204437C007D0A1204438D4D7C0057
:100C0C007D0AAF03AE021204438D4EE4FFFEFDFCE1
:100C1C0090000AE0F8A3E0F9A3E0FAA3E0FB1202CB
:100C2C00BC704A754D0B754E0B22A202E433F5478E
:100C3C00A201E433F548E534FB7C007D64FF7E00C3
:100C4C001204437C007D0A1204438D4C7C007D0A07
:100C5C00AF037E001204437C007D0A1204438D4DC9
:0D0C6C00AF347E007C007D0A1204438D4EE3
:010C79002258
:10137E00538EBF53890F758B18758DFCC28FD28E0D
:05138E00D2ABD2AF223A
:1013A8005389F0438905E4F58AF58CC28DD28CD235
:0413B800A9D2AF22E5
:03001B00020519C2
:10051900C0E0C0F0C083C082C0D075D000C000C0A8
:0D05290001C002C003C004C005C006C00729
:100536000521E52164327002F5210523E523643C9B
:100546007002F5230550E55064087002F5507447B3
:100556002550F8E6FD7C0074352550F8E6FB7A0058
:10056600AF50120F9F743D2550F8E6FDAF501210A4
:10057600F520040302061E052AE52A7002052964F1
:10058600E87004E5296403600302061EF529F52ACE
:10059600AF8CEFAD8AFCEC12033A9000041204878C
:1005A600E4FFFEFD7C40900004E0F8A3E0F9A3E040
:1005B600FAA3E0FB120116E4FBFA79347842120240
:1005C6001F7BE47A38798E783F12002590000A1254
:1005D6000487E4FFFE7DB47C4290000AE0F8A3E0C5
:1005E600F9A3E0FAA3E0FB1202BC6002501AE4FF92
:1005F600FE7D207C4190000AE0F8A3E0F9A3E0FA32
:10060600A3E0FB1202BC500A90000A1204930000F9
:100616000000758A00758C002001030208A7E522F8
:1006260064036071852209900000E0FCA3E0FDA34D
:10063600E0FEA3E0FFC004C005C006C007AE31E57A
:10064600327802C333CE33CED8F9243EF582740015
:100656003EF583D007D006D005D00412048790005B
:100666000AE0FCA3E0FDA3E0FEA3E0FFC004C00592
:10067600C006C007AE31E5327802C333CE33CED8DA
:10068600F92416F58274003EF583D007D006D0050E
:10069600D004120487D204752203052EE52E7002BB
:1006A600052D64B87004E52D640B60030208A7F5F8
:1006B6002DF52EC20190000E12049300000000904A
:1006C600001212049300000000750800D3E5089597
:1006D60032E495314003020818900012E0FCA3E0D2
:1006E600FDA3E0FEA3E0FFE50825E025E0243EF5B6
:1006F60082E43400F583E0F8A3E0F9A3E0FAA3E08E
:10070600FB12002590001212048790000EE0FCA355
:10071600E0FDA3E0FEA3E0FFE50825E025E02416C2
:10072600F582E43400F583E0F8A3E0F9A3E0FAA348
:10073600E0FB12002590000E120487AE31E53278F8
:1007460002C333CE33CED8F9243EF58274003EF58B
:1007560083E0FCA3E0FDA3E0FEA3E0FFE50825E0BF
:1007660025E0243EF582E43400F583E0F8A3E0F9C1
:10077600A3E0FAA3E0FB1202BC60025027AE31E50B
:10078600327802C333CE33CED8F9243EF5827400D4
:100796003EF583E0FCA3E0FDA3E0FEA3E0FF9000AE
:1007A6006A120487AE31E5327802C333CE33CED82F
:1007B600F92416F58274003EF583E0FCA3E0FDA360
:1007C600E0FEA3E0FFE50825E025E02416F582E437
:1007D6003400F583E0F8A3E0F9A3E0FAA3E0FB1206
:1007E60002BC60025027AE31E5327802C333CE3305
:1007F600CED8F92416F58274003EF583E0FCA3E01A
:10080600FDA3E0FEA3E0FF90006612048705080240
:1008160006D20532E53270020531E4FFFE7D207C0A
:1008260041900012E0F8A3E0F9A3E0FAA3E0FB127E
:100836000116C004C005C006C007AC31AD32E412D3
:10084600033AA804A905AA06AB07D007D006D00527
:10085600D00412021F900012120487E4FFFE7D20CE
:100866007C4190000EE0F8A3E0F9A3E0FAA3E0FBD8
:10087600120116C004C005C006C007AC31AD32E493
:1008860012033AA804A905AA06AB07D007D006D0DA
:1008960005D00412021F90000E120487850922C299
:1008A60004300319052CE52C7002052BFFAE2BBE78
:1008B600070BBFD008752B00752C00C2033000153E
:1008C6000552E55270020551646445517007F551B1
:0B08D600F5526340011208FC120DCB2C
:1008E100D007D006D005D004D003D002D001D0006B
:0B08F100D0D0D082D083D0F0D0E03215
:101296001213671213A812137E7B007A00792412A8
:1012A600107AD204120C7A12119A90000012048756
:0212B60080F0C6
:04134D00D2A07F05A6
:10135100000000000000000000000000000000AEDE
:06136100071FEE70EB22F5
:0F13D000D2A112134DC2A17F05121351C2A02248
:0C13DF00C2A112134DD2A17F05021351D0
:02116500AD07D4
:10116700E4FCECC39408748094805024C2A07F05EB
:10117700121351ED30E704D2A18002C2A17F0512FC
:101187001351D2A0ED25E0FD7F051213510C80D23B
:02119700C2A0F4
:011199002233
:10124D00E4FCECC3940874809480501712134DED98
:10125D0025E0FD30A103430501C2A07F0512135106
:05126D000C80DFAF055D
:011272002259
:0B12F800121165121303AF0312116501
:1013030012134DA2A1E433FDC2A07F05121351AF06
:0113130005D4
:0113140022B6
:10000300C2A0EF24FF92A17F0512135112134DC218
:08001300A0D2A17F05021351E8
:10139300AB071213D07F901211651213037F411212
:0513A30012F80213DF47
:0212B800AB0782
:1012BA001213D07F901212F81213D07F9112116577
:0F12CA0012124DAD077F011200031213DFAF05A3
:0112D90022F2
:0412DA007F057E000E
:1012DE00EF1FAA0670011E4A600FE4FDEDC3940CC9
:0912EE007480948050EA0D80F335
:0112F70022D4
:0211FF00A9073E
:10120100E4FBEBC39408748094805012C294E913F8
:1012110092941212DAD294E9C313F90B80E47F0598
:051221007E000212DE58
:10127300E4FBEBC39408748094805014C294ECC3D1
:1012830013FCD2943094034304801212DA0B80E2ED
:02129300AF04A6
:011295002236
:10122600C205D2947F0C7E001212DEC2947F507EDD
:10123600001212DED2947F0A7E001212DEA294926F
:06124600051212DAA205F8
:01124C00227F
:10119A001212267FCC1211FF7F441211FF1212265F
:1011AA007FCC1211FF7FBE1211FF121273A9071210
:1011BA001273EFAD01FCEC12033AE4FBFA79807882
:0411CA004102021FBD
:10133100E4FEEEC3940874809480500FC297EF13BB
:0B13410092A3EFC313FFD2970E80E7CA
:01134C00227E
:1013BC00C29300C29700D29300121331AF051213DF
:0413CC0031C2932275
:1010B800E4FDC29300C29700D29300121331E4FFFB
:1010C800EFC39408748094805011C297EDC313FD48
:1010D80030A303430580D2970F80E5C29300C297DF
:0C10E80000D29700C2A300D2A300AF0505
:0110F40022D9
:06107A008B0E8A0F8910A5
:10108000E4FD7F8E1213BCE4FCECC39403748094E3
:1010900080501EEC25E0FFC374849FFFAB0EAA0FA7
:1010A000A9108C827583001203F4FD1213BC0C800E
:0810B000D87D807F8E0213BC85
:0611CE008B0B8A0C890D59
:1011D400E4FCECC3940374809480501EEC25E0FF7F
:1011E400C374859FFF1210B8AB0BAA0CA90D8C8297
:0A11F400758300EF1204210C80D86F
:0111FE0022CE
:10001E000203DFE86480F8E933E83360110460F02E
:10002E00ED33EC337009E8FCE9FDEAFEEBFF220448
:10003E0060DED3EB9FEA9EE99DE8C2E78CF0C2F743
:10004E0095F0400CE8CCF8E9CDF9EACEFAEBCFFB0F
:10005E001203AA85D0F05804700320D5B3E80470BB
:10006E00075002B2D50203E992D5EC0460F7E4CC56
:10007E00C0E0C398F8603B94186008400DD0E0FBD8
:10008E000203C1E4FBFAC9FC8028E830E406E4C9A7
:10009E00FBE4CAFCE830E305E4C9CACBFCE854072C
:1000AE006010F8C3E913F9EA13FAEB13FBEC13FC37
:1000BE00D8F130F52FC3E49CFCEF9BFFEE9AFEEDDA
:1000CE0099FDD0E0FBEF4E4D4C701222DB03020384
:1000DE00E6EC2CFCEF33FFEE33FEED33FDED30E7B7
:1000EE00EB0203C1EF2BFFEE3AFEED39FDD0E0FB44
:1000FE0050130BBB00030203E9ED13FDEE13FEEFED
:08010E0013FFEC13FC0203C116
:10011600EC4D6011E8497017ED33EC3304600DE4E3
:10012600FCFFFEFD22E933E8330470F80203DF1218
:1001360003AA58046009E4CC248150062850090219
:1001460003E92840030203E6C0E0EB4A7044B980A5
:1001560006D0E0FB0203D5EF4E701CBD8008EBFF16
:10016600EAFEE9FD80EBE98DF0A4FEE5F00201FF71
:10017600E9CDF9EAFEEBFFEF89F0A4FCE5F0CE89C4
:10018600F0A42EFFE435F0CD89F0A42DFEE435F081
:100196008067EF4E7005BD80D780C3EF8BF0A4ACAF
:1001A600F0EE8BF0A42CFCE435F0F8EF8AF0A42CEA
:1001B600E5F038FCE433CB8DF0A42CFCE5F03BF8FD
:1001C600EE8AF0A42CFCE5F038F8E433CF89F0A4ED
:1001D6002CFCE5F038CF3400CE89F0A42FFFE5F0F3
:1001E6003EFEE433C98DF0A42EFEE5F039CD8AF04B
:1001F600A42FFFE5F03EFEE43DFD33D0E0FB5007C3
:100206000BBB000F0203E9EC2CFCEF33FFEE33FED1
:06021600ED33FD0203C1FF
:10021C000203E9EC5D046005E8590470030203DF96
:10022C001203AA580460F6EC4860F2EC7004FDFE70
:10023C00FF22C860DB2481C85009C39860025006B5
:10024C000203E69850CAF582E9294B4A7005AB8245
:10025C000203D575F0007C1A7880C3EF9BEE9AED03
:10026C0099400DC3EF9BFFEE9AFEED99FDE842F02D
:10027C00DC23ACF0D0E0FFD0E0FED0E0FDAB822080
:10028C00E7101BEB60BAEC2CFCEF33FFEE33FEED0A
:10029C0033FD0203C1E803F830E705C0F075F00048
:1002AC00EF2FFFEE33FEED33FD40B830E7C280AAEE
:1002BC0074F8CC6480CCC86480C8F58204604FC3E9
:1002CC00EB9FF5F0EA9E42F0E99D42F0E89C45F088
:1002DC00603C501DE5825FFFE582D313CB5BCBF412
:1002EC002B5582FB50280ABA002409B9002008803B
:1002FC001DE5825BFBE582D313CF5FCFF4C3132FD5
:10030C005582FF50090EBE00050DBD00010CC3EB5C
:10031C009FF5F0EA9E42F0E99D42F0E89C45F060C2
:09032C0007CC4820E701B3EC22E4
:1003350075F020800E75F010800575F0087D007E43
:10034500007F003392D530D503120479EC33401089
:10035500EF33FFEE33FEED33FDEC33FCD5F0ED224C
:0E036500E5F0247EA2D513CC92E7CDCEFF2288
:10037300EDD2E7CD33EC3392D524814006E4FFFE82
:10038300FDFC22FCE4CFCECDCC24E0501174FF80E1
:10039300EDC3CC13CCCD13CDCE13CECF13CF04707E
:0703A300F030D5DE02047901
:1003AA00E9D2E7C933E833F892D5EDD2E7CD33EC99
:0703BA0033FC5002B2D52212
:1003C100EC30E7100FBF000C0EBE00080DBD00049D
:1003D1000BEB6014A2D5EB13FCED92E7FD2274FF49
:1003E100FCFDFEFF22E480F8A2D574FF13FC7D80A2
:0303F100E480EFB6
:03000000020F13D9
:0C0F1300787FE4F6D8FD758152020F5A79
:1003F400BB010CE58229F582E5833AF583E02250BE
:1004040006E92582F8E622BBFE06E92582F8E22207
:0D041400E58229F582E5833AF583E4932221
:10042100F8BB010DE58229F582E5833AF583E8F011
:10043100225006E92582C8F622BBFE05E92582C8BD
:02044100F222A5
:10044300C2D5EC30E709B2D5E4C39DFDE49CFCEED4
:1004530030E715B2D5E4C39FFFE49EFE1204C4C384
:10046300E49DFDE49CFC80031204C430D507C3E47F
:060473009FFFE49EFE2243
:0E047900C3E49FFFE49EFEE49DFDE49CFC2294
:0C048700ECF0A3EDF0A3EEF0A3EFF022E8
:10049300A8828583F0D083D0821204AA1204AA1200
:1004A30004AA1204AAE473E493A3C583C5F0C58325
:1004B300C8C582C8F0A3C583C5F0C583C8C582C8B3
:0104C3002216
:100F1F00021296E493A3F8E493A34003F68001F240
:100F2F0008DFF48029E493A3F85407240CC8C333D3
:100F3F00C4540F4420C8834004F456800146F6DFA2
:100F4F00E4800B0102040810204080901034E47EEE
:100F5F00019360BCA3FF543F30E509541FFEE49397
:100F6F00A360010ECF54C025E060A840B8E493A35E
:100F7F00FAE493A3F8E493A3C8C582C8CAC583CA89
:100F8F00F0A3C8C582C8CAC583CADFE9DEE780BE41
:011079000076
:1004C400BC000BBE0029EF8DF084FFADF022E4CC1C
:1004D400F875F008EF2FFFEE33FEEC33FCEE9DECE5
:1004E400984005FCEE9DFE0FD5F0E9E4CEFD22ED2B
:1004F400F8F5F0EE8420D21CFEADF075F008EF2F75
:10050400FFED33FD4007985006D5F0F222C398FD65
:050514000FD5F0EA2202
:00000001FF
