:1008A1000102040810204080C0F9A4B0999282F896
:0908B1008090FFC68E8883A10827
:10075F0008460A0A0A0A0A0A0A0A083400000000B0
:10076F0000000000083C0000000000000000042B07
:0F077F0000000000C10001280001240001311416
:0600030000007F39DFFE62
:0100090022D4
:10090100538E7F5389F0758A18758CFCC28DD28CF9
:05091100D2A9D2AF22C3
:10085300E5A0541F4480F5A07580FFE5A0541F4414
:0A086300A0F5A0E4F58053A01F22C9
:1005E900E5A0541F44C0F5A0EF9008A193F9F58048
:1005F900E5A0541F44E0F5A09008B3E493F580E525
:10060900A0541F44C0F5A08980E5A0541F44E0F51B
:10061900A0E493F580EB4A600353807F74A92DF51C
:0E0629008274083CF583E493528053A01F2294
:1008EA00E4FF20B3027F0420B2027F0520B1027F19
:0608FA000620B0027F079A
:0109000022D4
:1006BB00E4FE7BFFED4C600FA8077401088002C3BA
:1006CB0033D8FC4206800EA8077401088002C3339E
:1006DB00D8FCF45206EB6E600FE5A0541F4480F576
:0806EB00A0EEF4F58053A01FFE
:0106F30022E4
:10086D00E4FEEEC3940874809480500DD290120073
:09087D0003C2901200030E80E991
:01088600224F
:1006F40053890FE4F58BF58D12086DD28E3091037A
:10070400308FFAC28E308F05C28F7F0022AF8DEFFB
:10071400AD8BFCEC1201197B967A43798B783C12F1
:06072400000E120152223A
:10078F00E4F5271206F48F27742B2528F8A62705E2
:10079F0028E52864047002F5287B007A00792B7510
:0F07AF000C047D01120680D200E4F532F53322EE
:1008BA00E527D395315004E4FF8009C3E527953134
:0808CA00FFE49400120916225C
:1007BE007F01EFC39408748094805009743C2FF825
:1007CE00E4F60F80EDAF247E00EF640270037542F5
:0A07DE0001EF64014E700375430142
:0107E80022EE
:1004BD00E525600302055C7525011208EA8F4EE5FE
:1004CD004E6545FF554EF544E54EF45FF529854ED5
:1004DD0045E54424FB601114602414604B24037023
:1004ED006EE524706A02078FAF247E00EF64016011
:1004FD000475240122EF64014E7054F52422AF24BB
:10050D007E00EF6402600785312175240222EF64BD
:10051D00024E703B852131FB7A007931750C017DDE
:10052D0014120680E4F52422AF247E00EF640170DE
:10053D00020523EF64024E7006740A2521F521E5AC
:10054D002364047002F523E52164287002F521224D
:10029700E5226003020400752201FFEFC39408748E
:1002A700809480500F74462FF8760A74342FF8E440
:1002B700F60F80E7E52414700302039A1470030213
:1002C70003DA2402600302040075460BE527FB7C72
:1002D700007D64FF7E001201FE7C007D0A1201FE94
:1002E7008D487C007D0AAF037E001201FE7C007DF5
:1002F7000A1201FE8D49AF277E007C007D0A12019C
:10030700FE8D4AD3E5289401748094804035742982
:100317002528F8E6FB7C007D64FF7E001201FE7C49
:10032700007D0A1201FE8D4B7C007D0AAF037E0023
:100337001201FE7C007D0A1201FE8D4C74292528CE
:100347000203CFE52875F003A42404FFE435F0C3C6
:1003570013EF13242BF8E6FB7C007D64FF7E00126D
:1003670001FE7C007D0A1201FE8D4B7C007D0AAFE9
:10037700037E001201FE7C007D0A1201FE8D4CE512
:100387002875F003A42404FFE435F0C313EF132406
:100397002B8035754602742B2523F8E6FB7C007D00
:1003A70064FF7E001201FE7C007D0A1201FE8D4B68
:1003B7007C007D0AAF037E001201FE7C007D0A12DD
:1003C70001FE8D4C742B2523F8E6FF7E007C007D13
:1003D7000A802175460CE521FB7C007D0AFF7E0023
:1003E7001201FE7C007D0A1201FE8D4C7C007D0A05
:0903F700AF037E001201FE8D4DE2
:0104000022D9
:03000B00020401EB
:10040100C0E0C0F0C083C082C0D075D000C000C0C1
:1004110001C002C003C004C005C006C0070522E533
:100421002264327002F5220525E525645A7002F531
:1004310025052AE52A64087002F52A743C252AF864
:10044100E6FD7C00AF2A1206BB7446252AF8E6FDBC
:100451007434252AF8E6FB7A00AF2A1205E9120264
:10046100971204BD1207BE300037E53364064532EA
:1004710060240530E5307002052FFFAE2FBE032149
:10048100BFE81E752F00753000633C010533E5336D
:1004910070020532800B753C00C200753200753365
:1004A10000D007D006D005D004D003D002D001D0AF
:0C04B10000D0D0D082D083D0F0D0E03258
:1007E9001209011208537B007A00792B7511047DD7
:1007F900011206377B007A0079317511017D1412D7
:0708090006371208BA80FB5C
:04088700D2A07F0A72
:10088B00000000000000000000000000000000AEAF
:06089B00071FEE70EB22C6
:0F092B00D2A1120887C2A17F0A12088BC2A02294
:0C093A00C2A1120887D2A17F0A02088B1C
:02072A00AD0719
:10072C00E4FCECC39408748094805024C2A07F0A2B
:10073C0012088BED30E704D2A18002C2A17F0A120D
:10074C00088BD2A0ED25E0FD7F0A12088B0C80D21D
:02075C00C2A039
:01075E002278
:10081000E4FCECC39408748094805017120887EDB0
:1008200025E0FD30A103430501C2A07F0A12088B19
:050830000C80DFAF05A4
:0108350022A0
:0B08360012072A120841AF0312072A24
:10084100120887A2A1E433FDC2A07F0A12088BAF70
:0108510005A1
:010852002283
:1008D200C2A0EF24FF92A17F0A12088B120887C2DE
:0808E200A0D2A17F0A02088BDD
:10091600AB0712092B7F9012072A1208417F41125A
:05092600083602093A49
:100680008B088A09890AAB0512092B7FA012072A59
:10069000120841AF038019AF0C150CEF601AAB08BC
:1006A000050AE50AAA097002050914F91201D3FF27
:0B06B00012072A12084180DF02093AFD
:100637008B0D8A0E890FAB0512092B7FA012083686
:1006470012092B7FA112072A120841AF111511EFCA
:100657006024120810AB0D050FE50FAA0E700205F6
:100667000E14F9EF1201ECE5116004E4FF80027F3C
:09067700011208D280D502093AF3
:10000E00EC4D6011E8497017ED33EC3304600DE4EC
:10001E00FCFFFEFD22E933E8330470F80201BE1244
:10002E00018958046009E4CC248150062850090245
:10003E0001C82840030201C5C0E0EB4A7044B980F4
:10004E0006D0E0FB0201B4EF4E701CBD8008EBFF42
:10005E00EAFEE9FD80EBE98DF0A4FEE5F00200F783
:10006E00E9CDF9EAFEEBFFEF89F0A4FCE5F0CE89CD
:10007E00F0A42EFFE435F0CD89F0A42DFEE435F08A
:10008E008067EF4E7005BD80D780C3EF8BF0A4ACB8
:10009E00F0EE8BF0A42CFCE435F0F8EF8AF0A42CF3
:1000AE00E5F038FCE433CB8DF0A42CFCE5F03BF806
:1000BE00EE8AF0A42CFCE5F038F8E433CF89F0A4F6
:1000CE002CFCE5F038CF3400CE89F0A42FFFE5F0FC
:1000DE003EFEE433C98DF0A42EFEE5F039CD8AF054
:1000EE00A42FFFE5F03EFEE43DFD33D0E0FB5007CC
:1000FE000BBB000F0201C8EC2CFCEF33FFEE33FEFE
:06010E00ED33FD0201A02B
:1001140075F020800E75F010800575F0087D007E66
:10012400007F003392D530D503120234EC334010F3
:10013400EF33FFEE33FEED33FDEC33FCD5F0ED226F
:0E014400E5F0247EA2D513CC92E7CDCEFF22AB
:10015200EDD2E7CD33EC3392D524814006E4FFFEA5
:10016200FDFC22FCE4CFCECDCC24E0501174FF8004
:10017200EDC3CC13CCCD13CDCE13CECF13CF0470A1
:07018200F030D5DE0202346B
:10018900E9D2E7C933E833F892D5EDD2E7CD33ECBC
:0701990033FC5002B2D52235
:1001A000EC30E7100FBF000C0EBE00080DBD0004C0
:1001B0000BEB6014A2D5EB13FCED92E7FD2274FF6C
:1001C000FCFDFEFF22E480F8A2D574FF13FC7D80C5
:0301D000E480EFD9
:0300000002055D99
:0C055D00787FE4F6D8FD75814E0205A4FD
:1001D300BB010689828A83E0225002E722BBFE022A
:0901E300E32289828A83E493225D
:1001EC00BB010689828A83F0225002F722BBFE01F2
:0201FC00F322EC
:1001FE00C2D5EC30E709B2D5E4C39DFDE49CFCEE1C
:10020E0030E715B2D5E4C39FFFE49EFE120242C34F
:10021E00E49DFDE49CFC800312024230D507C3E44A
:06022E009FFFE49EFE228A
:0E023400C3E49FFFE49EFEE49DFDE49CFC22DB
:100569000207E9E493A3F8E493A34003F68001F2B8
:1005790008DFF48029E493A3F85407240CC8C33393
:10058900C4540F4420C8834004F456800146F6DF62
:10059900E4800B010204081020408090075FE47E8C
:1005A900019360BCA3FF543F30E509541FFEE49357
:1005B900A360010ECF54C025E060A840B8E493A31E
:1005C900FAE493A3F8E493A3C8C582C8CAC583CA49
:1005D900F0A3C8C582C8CAC583CADFE9DEE780BE01
:01078E00006A
:10024200BC000BBE0029EF8DF084FFADF022E4CCA0
:10025200F875F008EF2FFFEE33FEEC33FCEE9DEC69
:10026200984005FCEE9DFE0FD5F0E9E4CEFD22EDAF
:10027200F8F5F0EE8420D21CFEADF075F008EF2FF9
:10028200FFED33FD4007985006D5F0F222C398FDEA
:050292000FD5F0EA2287
:00000001FF
