:1013970024253032642C252E32660D0A0045525220
:1013A7004F520D0A0023253032642C253032640D4C
:1013B7000A00C0F9A4B0999282F880908883C6A1E8
:0D13C700868EFFC78C0102040810204080B4
:1014DC0008411010101010101010083500000000FA
:1014EC000000000048001B0000000000000000424B
:0D14FC000025001E42002A00230226303980
:080003008F993099FDC299228A
:1015FA008B518A528953AB51AA52A95312059E6044
:10160A00130553E5537002055214F912059EFF1291
:05161A00000380E22244
:0E171E0000007F027E867D14DDFEDEFCDFFA19
:01172C00229A
:0617560000007F61DFFED0
:01175C00226A
:1016F000E4FEEEC3940A74809480500AD2901217CC
:0617000056C2900E80ECC1
:0117060022C0
:10170700759850438E01538EFB75D7CC75D6FF4322
:071717008E10D2ACD2AF220C
:1013550053890FE4F58BF58D1216F0D28E3091037B
:10136500308FFAC28E308F0CC28FE4F534F533F529
:1013750032F53122AF8DEFAD8BFCEC12024A7B9634
:101385007A43798B783C1200268F348E338D328CDC
:02139500312203
:10000E00538E7F5389F0758A18758CFCC28DD28CF5
:05001E00D2A9D2AF22BF
:10130E00E5A0541F44C0F5A0EF9013CC93F9F580DF
:10131E00E5A0541F44E0F5A09013C9E493F580E5D1
:10132E00A0541F44C0F5A08980E5A0541F44E0F5E9
:10133E00A074B92DF58274133CF583E493F580EB1C
:07134E004A600353807F2277
:1013D400E4FE7BFFED4C600FA8077401088002C394
:1013E40033D8FC4206800EA8077401088002C33378
:1013F400D8FCF45206EB6E600FE5A0541F4480F550
:08140400A0EEF4F58053A01FD7
:01140C0022BD
:1014AD00E4FFD2B3D2B2D2B1D2B0C2B5D2B4D2C2AD
:1014BD00D2C420B3027F0C20B2027F0DC2B4D2B5CC
:0E14CD00D2C2D2C420B3027F1020B2027F111F
:0114DB0022EE
:1011F9007B017A0079157572007573057D017C0094
:101209001212BC12171E900015E0FF900025E4F0A1
:10121900A3EFF0900016E0FF90002AE4F0A3EFF0AE
:10122900E4F526F527900017E0FF7E007C277D1066
:101239001205F6EF2527F527EE3526F526A3E075E5
:10124900F064A4AEF02527F527EE3526F526A3E0B0
:0A1259002527F527E43526F52622A7
:1010D900900025A3E0900015F090002AA3E090006D
:1010E90016F0AE26AF277C277D101206087C007DFE
:1010F9000A120608AB05A3EBF0AE26AF277C037DE9
:10110900E81206087C007D0A120608ED75F00AA4AB
:10111900FBAE26AF277C007D641206087C007D0AA1
:10112900120608ED2BA3F0AE26AF277C007D0A122C
:1011390006087C007D0A120608ED75F00AA4FBAECC
:1011490026AF277C007D0A120608ED2BA3F07B0150
:101159007A0079157552007553057D017C001214CA
:041169000D02171E3E
:10126300D3900026E09400900025E06480948050A1
:1012730004E4F0A3F0D390002BE0940090002AE064
:10128300648094805004E4F0A3F0C3900026E094BB
:1012930064900025E0648094804006E4F0A37463C6
:1012A300F0C390002BE0946490002AE06480948063
:0912B3004006E4F0A37463F0228C
:10102C00900023E060030210D8F0FFEFC394087423
:10103C00809480500F741B2FF582E43400F583E408
:10104C00F00F80E7900025E0FCA3E0FDEC12024AD3
:10105C00AB30AA2FA92EA82D1201CC400690001B54
:10106C007401F090002AE0FCA3E0FDEC12024AAB04
:10107C0034AA33A932A8311201CC400690001C745A
:10108C0001F090002AE0FCA3E0FDEC12024AAB3424
:10109C00AA33A932A8311201CC6002500690000A82
:1010AC007402F090002AE0FCA3E0FDEC12024AABC3
:1010BC0034AA33A932A8311201CC60084006900042
:0C10CC000A7405F0A20BE43390001DF044
:0110D80022F5
:100D0C00900029E06003020E4104F01214AD8F4CE8
:100D1C00E54C654BFF554CF54AE54CF45FF52385E6
:100D2C004C4BE54A24F4606124FC7003020DC91499
:100D3C007003020DF924046003020E2775240DD2F2
:100D4C000A634901E4F52AF529AF49FEEF64017005
:100D5C000E900025A3E0F52290002AA3E0F528EFE1
:100D6C004E7020900025E0B40011A3E0B5220C9049
:100D7C00002AE07004A3E0652860080527E52770C9
:100D8C000205261210D9020E2775240CD20AAF497F
:100D9C007E00EF70020529EF64014E7002052AC334
:100DAC00E5299403748094804003E4F529C3E52A73
:100DBC009402748094804063E4F52A805EE5496473
:100DCC00017058AF2AFEEF700E900026E024FEF062
:100DDC00900025E034FFF0EF64014E703E90002B44
:100DEC00E024FBF090002AE034FFF0802EE549640B
:100DFC00017028AF2AFEEF700E900026E02402F05E
:100E0C00900025E03400F0EF64014E700E90002B42
:100E1C00E02405F090002AE03400F0121263AF23B6
:100E2C007E00EF640C7004C20AF524EF640D4E7062
:060E3C0004C20AF52422A5
:100B4600900027E06003020D0B04F0E4FFEFC3946E
:100B56000874809480500F74412FF8761074352FE6
:100B6600F8E4F60F80E7E5496003020CCAE52914AC
:100B76006072147003020C3724026003020CCA75FB
:100B8600410FAF30AE2FAD2EAC2D120283AB07AAAC
:100B9600067C007D0A12065D7C007D0A12065D8DCC
:100BA600457C007D0AAF03AE0212065D8D46753A9E
:100BB60001E4FFFE7DC87C42AB30AA2FA92EA82DEA
:100BC600120026120283AB07AA067C007D0A1206D3
:100BD6005D7C007D0A12065D8D477C007D0AAF03B1
:100BE600AE028045754111AF34AE33AD32AC311231
:100BF6000283AB07AA067C007D6412065D7C007D3D
:100C06000A12065D8D467C007D0AAF03AE0212060F
:100C16005D7C007D0A12065D8D47AF34AE33AD3282
:100C2600AC311202837C007D0A12065D8D48020CEF
:100C3600CAE4F541C3E5279410E52694274014AE8F
:100C460026AF277C277D101206087C007D0A120637
:100C5600088D44C3E52794E8E52694034014AE26A0
:100C6600AF277C037DE81206087C007D0A12060881
:100C76008D45C3E5279464E52694004014AE26AF5F
:100C8600277C007D641206087C007D0A1206088D0A
:100C960046C3E527940AE52694004014AE26AF27FE
:100CA6007C007D0A1206087C007D0A1206088D4724
:100CB600C3E5269400400DAE26AF277C007D0A12C0
:100CC60006088D48E5496401703BE52A14600B046B
:100CD6007033754112900025800675410590002AF3
:100CE600E0FAA3E0FB7C007D0AFFAE0212065D7C03
:100CF600007D0A12065D8D477C007D0AAF03AE02B9
:050D060012065D8D489E
:010D0B0022C5
:100E420090001AE06003020F4204F0900028E06470
:100E520006707590000BE06453705FA3E0645470F9
:100E620059A3E0645C7053A3E06472704DA3E06424
:100E72005C7047A3E0646E7041853050852F4F85CA
:100E82002E4E852D4DAF34AE33AD32AC317554FF9D
:100E92007555137556971202838E578F5885505C7D
:100EA200854F5B854E5A854D597B017A0079001238
:100EB20007337B017A00790080067BFF7A1379A4DD
:100EC2001215FAE4900028F0900028E0640870708F
:100ED20090000BE06450705AA3E064417054A3E0A8
:100EE2006452704EA3E064417048A3E0645C7042B7
:100EF200A3E06472703CA3E0645C7036A3E0646EAD
:100F020070307554FF7555137556AC90002AE0FE8B
:100F1200A3E08E57F558900025E0FEA3E08E59F528
:100F22005A7B017A0079001207337B017A0079003B
:100F320080067BFF7A1379A41215FAE4900028F058
:010F4200228C
:03000B00020F439E
:100F4300C0E0C0F0C083C082C0D075D000C000C074
:100F530001C002C003C004C005C006C0079000233F
:100F6300E004F064647001F0900024E004FFF07E7C
:100F730000BE0305BFE802E4F090001AE004F06449
:100F8300647001F0900027E004F064327001F09087
:100F93000029E004F064647001F00525E525640888
:100FA3007002F52574412525F8E6FD7C007435258E
:100FB30025F8E6FB7A00AF2512130E741B2525F5E1
:100FC30082E43400F583E0FDAF251213D4120D0C37
:100FD300120B4612102C120E42300A32052CE52C4D
:100FE3007002052B64E87004E52B64037020F52B75
:100FF300F52CE524640C7009F524F526F527121069
:10100300D9E524640D7007F524A20BB3920BD00726
:10101300D006D005D004D003D002D001D000D0D068
:09102300D082D083D0F0D0E0327D
:1016420012170712000EE5A0541F4480F5A0758002
:10165200FFE5A0541F44A0F5A0E4F58053A01F228B
:10153600900024E0702204F01214798F308E2F8DE3
:101546002E8C2D121355300B0A90000AE075F033DD
:09155600A48001E4FF12166222D8
:0E173C001211F912164212153612153680FBE4
:0300230002150AB9
:10150A00C0E0C083C082C0D0309818900028E02480
:10151A000BF582E43400F583E599F0900028E004A5
:0C152A00F0C298D0D0D082D083D0E03244
:041682007F057E0062
:10168600EF1FAA0670011E4A600FE4FDEDC3940C1D
:091696007480948050EA0D80F389
:01169F002228
:02155F00A907DA
:10156100E4FBEBC39408748094805012C294E91395
:101571009294121682D294E9C313F90B80E47F0589
:051581007E0002168649
:10161F00E4FBEBC39408748094805014C294ECC321
:10162F0013FCD2943094034304801216820B80E291
:02163F00AF04F6
:011641002286
:10158600C209D2947F0C7E00121686C2947F507ECA
:1015960000121686D2947F0A7E00121686A29492B4
:0615A60009121682A209E1
:0115AC00221C
:101479001215867FCC12155F7F4412155F121586EF
:101489007FCC12155F7FBE12155F12161FA90712B6
:10149900161FEFAD01FCEC12024AE4FBFA798078E1
:0414A9004102012FCC
:0416BE00D2A07F0A2D
:1016C200000000000000000000000000000000AE6A
:0616D200071FEE70EB2281
:0F172D00D2A11216BEC2A17F0A1216C2C2A022FA
:0C174A00C2A11216BED2A17F0A0216C274
:02144400AD07F2
:10144600E4FCECC39408748094805024C2A07F0A04
:101456001216C2ED30E704D2A18002C2A17F0A12A1
:1014660016C2D2A0ED25E0FD7F0A1216C20C80D26C
:02147600C2A012
:011478002251
:1015D400E4FCECC394087480948050171216BEED9A
:1015E40025E0FD30A103430501C2A07F0A1216C203
:0515F4000C80DFAF05D3
:0115F90022CF
:0C16A000AB05AA0412172D7FA012144401
:1016AC001216BEA2A1E433FDC2A07F0A1216C2AF6D
:0116BC000528
:0116BD00220A
:1016D800C2A0EF24FF92A17F0A1216C21216BEC240
:0816E800A0D2A17F0A0216C284
:10140D008B4D8A4E894F1216A0AF03801FE55315E1
:10141D0053AE52700215524E601AAB4D054FE54F4B
:10142D00AA4E7002054E14F912059EFF12144412B5
:07143D0016AC80D902174A2A
:1012BC008B6D8A6E896F1216A0AF0312144412162E
:1012CC00AC12172D7FA11214441216ACE5731573D2
:1012DC00AE72700215724E60261215D4AB6D056F8E
:1012EC00E56FAA6E7002056E14F9EF1205E4E57352
:1012FC0045726004E4FF80027F011216D880CD0293
:02130C00174A7E
:10166200AB0712172D7F901214441216AC7F411251
:1016720014441216ACAF031214441216AC02174AE9
:10002600EC4D6011E8497017ED33EC3304600DE4D4
:10003600FCFFFEFD22E933E8330470F80202EF12FA
:1000460002BA58046009E4CC2481500628500902FB
:1000560002F92840030202F6C0E0EB4A7044B98078
:1000660006D0E0FB0202E5EF4E701CBD8008EBFFF8
:10007600EAFEE9FD80EBE98DF0A4FEE5F002010F52
:10008600E9CDF9EAFEEBFFEF89F0A4FCE5F0CE89B5
:10009600F0A42EFFE435F0CD89F0A42DFEE435F072
:1000A6008067EF4E7005BD80D780C3EF8BF0A4ACA0
:1000B600F0EE8BF0A42CFCE435F0F8EF8AF0A42CDB
:1000C600E5F038FCE433CB8DF0A42CFCE5F03BF8EE
:1000D600EE8AF0A42CFCE5F038F8E433CF89F0A4DE
:1000E6002CFCE5F038CF3400CE89F0A42FFFE5F0E4
:1000F6003EFEE433C98DF0A42EFEE5F039CD8AF03C
:10010600A42FFFE5F03EFEE43DFD33D0E0FB5007B3
:100116000BBB000F0202F9EC2CFCEF33FFEE33FEB3
:06012600ED33FD0202D1E1
:10012C000202F9EC5D046005E8590470030202EF69
:10013C001202BA580460F6EC4860F2EC7004FDFE52
:10014C00FF22C860DB2481C85009C39860025006A6
:10015C000202F69850CAF582E9294B4A7005AB8227
:10016C000202E575F0007C1A7880C3EF9BEE9AEDE5
:10017C0099400DC3EF9BFFEE9AFEED99FDE842F01E
:10018C00DC23ACF0D0E0FFD0E0FED0E0FDAB822071
:10019C00E7101BEB60BAEC2CFCEF33FFEE33FEEDFB
:1001AC0033FD0202D1E803F830E705C0F075F0002A
:1001BC00EF2FFFEE33FEED33FD40B830E7C280AADF
:1001CC0074F8CC6480CCC86480C8F58204604FC3DA
:1001DC00EB9FF5F0EA9E42F0E99D42F0E89C45F079
:1001EC00603C501DE5825FFFE582D313CB5BCBF403
:1001FC002B5582FB50280ABA002409B9002008802C
:10020C001DE5825BFBE582D313CF5FCFF4C3132FC5
:10021C005582FF50090EBE00050DBD00010CC3EB4D
:10022C009FF5F0EA9E42F0E99D42F0E89C45F060B3
:09023C0007CC4820E701B3EC22D5
:1002450075F020800E75F010800575F0087D007E34
:10025500007F003392D530D503120693EC3340105E
:10026500EF33FFEE33FEED33FDEC33FCD5F0ED223D
:0E027500E5F0247EA2D513CC92E7CDCEFF2279
:10028300EDD2E7CD33EC3392D524814006E4FFFE73
:10029300FDFC22FCE4CFCECDCC24E0501174FF80D2
:1002A300EDC3CC13CCCD13CDCE13CECF13CF04706F
:0702B300F030D5DE020693D6
:1006D700E5682454F8E60568227851300702785413
:1006E700E475F0011206A102059E2000EB7F2ED2D1
:1006F700008018EF540F2490D43440D4FF30040BFB
:10070700EF24BFB41A0050032461FFE569600215A6
:1007170069056CE56C7002056B30070D7851E4755F
:10072700F0011206A1EF0205E40215AD7403D2072A
:100737008003E4C207F5688B518A528953E4F5694F
:10074700F56BF56CE56960077F2012071280F57578
:100757006AFFC201C200C202C203C205C206C208C2
:100767001206E0FF700D3007057F00120723AF6CFC
:10077700AE6B22B4255FC2D5C2041206E0FF24D0B7
:10078700B40A00501A75F00A786930D50508B6FF23
:100797000106C6A426F620D5047002D20380D92408
:1007A700CFB41A00EF5004C2E5D204020A10D201F6
:1007B70080C6D20080C0D20280BCD2D580BAD20512
:1007C70080B47F201207122002077401B569004028
:1007D700F11206D7FF12071202074BD208D2068082
:1007E700951206D7FB1206D7FA1206D7F94A4B70AD
:1007F7000679077A0B7BFF20022EE569602A7E00C7
:100807008E827583001205B760060EEE656A70F07A
:10081700C2D5EBC0E0EAC0E0E9C0E0EE120A70D052
:10082700E0F9D0E0FAD0E0FB12059EFF60AAEBC02A
:10083700E0EAC0E0E9C0E0120712D0E02401F9D0F5
:10084700E03400FAD0E0FBE56A0460DCD56AD980C1
:1008570087D20280A2120A5360F7E56A7001041278
:100867000304A96A600DE56A600914F56A120AFAB9
:10087700EF60F3EA30E702F404C3995077EAF4250E
:100887006A0430E701E404F56A800D120A5360C177
:10089700EA056A256A120304EA7867F630E701E495
:1008A700256A04D56A0420050114120A70E4C0E021
:1008B700120AFA7867E6601320E70714F61206FAB9
:1008C700802204F6D0E014C0E07F001206FAE56A41
:1008D70060071206F1156A800B3005031206F1D086
:1008E700E002074BD0E00480C5120A5360A0E56A16
:1008F700041203047867EAF6E56A2005026001043A
:050907002404120A7037
:10090C0074FF04C0E0120AFA1206FAE56A20050226
:10091C0060031206F1D0E0B56AE87F45120704784F
:10092C0067E67F2B30E7047F2DF404C0E01207123A
:10093C00D0E075F00A84C0F01206FBD0E01206FB82
:10094C0002074B791080027908C206C2088008D2CF
:10095C00D5790A8004790AC2D5E56A047002F56A71
:10096C00E4FAFDFEFF1206D7FC7B082001131206E9
:10097C00D7FD7B1030000A1206D7FE1206D7FF7B7C
:10098C0020EC3382D592D55013C3E43000069FFF80
:10099C00E49EFEE42001039DFDE49CFCE4CBF8C244
:1009AC0001EC700CCFCECDCCE824F8F870F38017A6
:1009BC00C3EF33FFEE33FEED33FDEC33FCEB33FBD7
:1009CC00994002FB0FD8E9EB300105F8D0E0C448A0
:1009DC00B201C0E00AEC4D4E4F78207B0070C2EAA9
:1009EC00B56A0040BCC0E0120A72D0F0D0E0200121
:1009FC0004C4C0E0C4B201C0F01206FBD0F0D5F0C4
:100A0C00EB02074B1206B107E853094F5807B94CD4
:100A1C0007B54209534F095B44095B4907CE4309AB
:100A2C00615508924608F045085C470B275007BDF6
:100A3C002D07C12E07E42B07C52307E2200B102A34
:100A4C00077D48000007DCE56AB4FF03756A0612EF
:100A5C0006D7FC1206D7FD1206D7FE1206D7FF7872
:100A6C0060020333790AA2D5200314300509B910AA
:100A7C00020404B9080104A2D52006025001042086
:100A8C0002689202B569005034C0E07F203003192F
:100A9C007F30A20272067205500F120AC9C202C23E
:100AAC0006C205C2087F30800F300503E9C0E01292
:100ABC000712300503D0E0F9D0E0B569CC3005174A
:100ACC007F30B9100C1207127F583004077F7880E2
:100ADC0003B908031207123002057F2D0207127F9B
:100AEC00202008F87F2B2006F322920280CF7F0073
:100AFC00B4070050052460F8E6FF22286E756C6C74
:100B0C002900D2011206D73001F8C201786930D51C
:100B1C000108F602077D2D504349581206D72403CD
:100B2C00B405004001E4900B2293120703743A12AF
:0A0B3C000703D20375690402094F94
:1002BA00E9D2E7C933E833F892D5EDD2E7CD33EC8A
:0702CA0033FC5002B2D52203
:1002D100EC30E7100FBF000C0EBE00080DBD00048E
:1002E1000BEB6014A2D5EB13FCED92E7FD2274FF3A
:1002F100FCFDFEFF22E480F8A2D574FF13FC7D8093
:03030100E480EFA6
:10030400F920E72824F950037907E4F42402FB18C0
:10031400DBFDE624FB5014E9600DE4F618E604F670
:0F032400B40A08E4F6D9F57401F60A22C2D5220C
:10033300ED33EC3392D5FA602AB4FF33EDC2E77B99
:10034300FF60067A037958E4227A03796120D504A1
:100353007A03795C224E614E002B494E46002D49AB
:100363004E4600E47A08F608DAFC7B00740722E8BC
:10037300C0E0ECC0E0EDC0E0EEC0E0EFC0E0EA7545
:10038300F010A4CAABF075F04DA42BFBE435F0FCE0
:10039300EA2410FAEB34C5FBEC34D9FCEDC2E7FFD9
:1003A30075F056A4F42411C5F0F434C58FF0A42AD3
:1003B300E5F03BE43CF620E71412055ED0E0FFD005
:1003C300E0FED0E0FDD0E0FC12012F8014F4041213
:1003D300055ED0E0FFD0E0FED0E0FDD0E0FC1200EF
:1003E30026D0E0F8E6FAEDD2E7CD33EC332482FBF6
:1003F300E4C3CF33CFCE33CECD33CD33DBF37B0763
:1004030075F00A846004F6081B0AE5F0F6088FF01D
:10041300740AA4FFACF08EF0740AA42CFEACF05066
:10042300010C8DF0740AA42CFDE435F0F608DBDE34
:0304330074072229
:100436000202EFE86480F8E933E83360110460F003
:10044600ED33EC337009E8FCE9FDEAFEEBFF22042C
:1004560060DED3EB9FEA9EE99DE8C2E78CF0C2F727
:1004660095F0400CE8CCF8E9CDF9EACEFAEBCFFBF3
:100476001202BA85D0F05804700320D5B3E8047090
:10048600075002B2D50202F992D5EC0460F7E4CC2B
:10049600C0E0C398F8603B94186008400DD0E0FBBC
:1004A6000202D1E4FBFAC9FC8028E830E406E4C97C
:1004B600FBE4CAFCE830E305E4C9CACBFCE8540710
:1004C6006010F8C3E913F9EA13FAEB13FBEC13FC1B
:1004D600D8F130F52FC3E49CFCEF9BFFEE9AFEEDBE
:1004E60099FDD0E0FBEF4E4D4C701222DB03020269
:1004F600F6EC2CFCEF33FFEE33FEED33FDED30E78B
:10050600EB0202D1EF2BFFEE3AFEED39FDD0E0FB18
:1005160050130BBB00030202F9ED13FDEE13FEEFC1
:0805260013FFEC13FC0202D1EB
:10052E003F8000004120000042C80000447A0000D5
:10053E00461C400047C35000497424004B18968057
:10054E004CBEBC205A0E1BCA6753C21C749DC5AE4E
:10055E00FB60065407601C232312058CEB54386095
:10056E0009120578120587120026ECF8EDF9EEFA5D
:10057E00EFCB22EB12058780F1543803241C900533
:10058E002EFE93FC0EEE93FD0EEE930ECE93FF22F7
:0300000002116D7D
:0C116D00787FE4F6D8FD7581730211B4A0
:10059E00BB010689828A83E0225002E722BBFE025B
:0905AE00E32289828A83E493228E
:1005B700BB010CE58229F582E5833AF583E02250F9
:1005C70006E92582F8E622BBFE06E92582F8E22243
:0D05D700E58229F582E5833AF583E493225D
:1005E400BB010689828A83F0225002F722BBFE01F6
:0205F400F322F0
:1005F600EF8DF0A4A8F0CF8CF0A428CE8DF0A42E19
:02060600FE22D2
:10060800BC000BBE0029EF8DF084FFADF022E4CCD6
:10061800F875F008EF2FFFEE33FEEC33FCEE9DEC9F
:10062800984005FCEE9DFE0FD5F0E9E4CEFD22EDE5
:10063800F8F5F0EE8420D21CFEADF075F008EF2F2F
:10064800FFED33FD4007985006D5F0F222C398FD20
:050658000FD5F0EA22BD
:10065D00C2D5EC30E709B2D5E4C39DFDE49CFCEEB8
:10066D0030E715B2D5E4C39FFFE49EFE120608C322
:10067D00E49DFDE49CFC800312060830D507C3E41D
:06068D009FFFE49EFE2227
:0E069300C3E49FFFE49EFEE49DFDE49CFC2278
:1006A100FAE6FB0808E6F925F0F618E6CA3AF6225A
:1006B100D083D082F8E4937012740193700DA3A3D8
:1006C10093F8740193F5828883E4737402936860EC
:0606D100EFA3A3A380DFEC
:1015AD00EFB40A07740D1215B8740A309811A89982
:1015BD00B8130CC2983098FDA899C298B811F6309E
:0715CD0099FDC299F5992276
:1011790002173CE493A3F8E493A34003F68001F239
:1011890008DFF48029E493A3F85407240CC8C33377
:10119900C4540F4420C8834004F456800146F6DF46
:1011A900E4800B01020408102040809014DCE47EE6
:1011B900019360BCA3FF543F30E509541FFEE4933B
:1011C900A360010ECF54C025E060A840B8E493A302
:1011D900FAE493A3F8E493A3C8C582C8CAC583CA2D
:1011E900F0A3C8C582C8CAC583CADFE9DEE780BEE5
:0115090000E1
:00000001FF
