:100CBD00000102030405060708090C0F0B100D11A6
:100CCD00C0F9A4B0999282F88090FFC688868C8373
:100CDD00A18EAF98CFC192C70102040810204080A9
:100B7C00084B0A0A0A0A0A0A0A0A08350000000089
:100B8C000000000008410000000000000000C1014E
:100B9C00C100012D00012C00043D000000000122C9
:090BAC0008032423595001300014
:100E6100E5A0541F4480F5A07580FFE5A0541F4400
:070E7100A0F5A0E4F58022CA
:100A3100E5A0541F44C0F5A0EF900CE593F9F580B3
:100A4100E5A0541F44E0F5A0900CD7E493F580E5B0
:100A5100A0541F44C0F5A08980E5A0541F44E0F5CF
:100A6100A0E493F580EB4A600353807F74CD2DF5AC
:0B0A710082740C3CF583E49352802259
:10096300E4FFD2B3D2B2D2B1D2B0C2C4D2B4D2B500
:10097300D2C220B3027F0420B2027F0520B1027FDE
:100983000620B0027F07C2C2D2B4D2B5D2C420B30C
:10099300027F0820B2027F0920B1027F0A20B00241
:1009A3007F0BC2B5D2B4D2C4D2C220B3027F0C2013
:1009B300B2027F0D20B1027F0E20B0027F0FC2B4BE
:1009C300D2C4D2B5D2C220B3027F1020B2027F11AB
:0A09D30020B1027F1220B0027F1352
:0109DD0022F7
:100BED00E4FE7BFFED4C600FA8077401088002C383
:100BFD0033D8FC4206800EA8077401088002C33367
:100C0D00D8FCF45206EB6E600CE5A0541F4480F541
:050C1D00A0EEF4F580DB
:010C220022AF
:100CED00E4FE7BFFEF60047E1080035306EFED4CB6
:100CFD00600543064080035306BFEB6E600AE5A016
:080D0D00541F44A0F5A08E80E4
:010D150022BB
:100E7800538E7F5389F0438905E4F58AF58CC28D3A
:070E8800D28CD2A9D2AF22E7
:100EA600538EBF53890F758B18758DFCC28FD28EEA
:050EB600D2ABD2AF2217
:060EDB0000007F39DFFE7C
:010EE10022EE
:100E2D00E4FEEEC3940A74809480500DD290120E9D
:090E3D00DBC290120EDB0E80E90D
:010E46002289
:100B41005389F0C28CE4F58AF58C120E2DD28C30CB
:100B51009103308DFAC28C308D06C28DE4F52F22BF
:100B6100AF8CEFAD8AFCEC1201C97B967A43798B8D
:0B0B7100783C12001E1202028F2F229F
:010EE20022ED
:1006D300E52360030208197523011209638F53E5AB
:1006E30053654AFF5553F549E553F45FF5278553A1
:1006F3004AE54924FB603124FD604414700302077A
:10070300AC24FD70030207E21470030207BC240942
:1007130060030208191522AF22EF6405601BEF6422
:1007230006600302081980110522AF22EF640560F9
:1007330008EF64066003020819120E78020EA6E59C
:10074300226403701D0530E53064107002F5307BC0
:10075300007A007930750D00750E017D147C00124E
:100763000BB6AF227E00EF64057005A201B39201C0
:10077300EF64064E7005A200B39200EF64074E705B
:1007830003120B41AF227E00EF6408700A052CE5CB
:100793002C64087002F52CEF64094E7079052DE581
:1007A3002D6404705EF52D805AE522640870677429
:1007B30041252CF8E66401F622E52264097057749A
:1007C3003D252DF806743D252DF8E6FF3395E0FE13
:1007D300EF64104E7007743D252DF8E4F68024E590
:1007E3002264097031743D252DF816743D252DF8CA
:1007F300E6FF3395E0FEBEFF0ABFFF07743D252DDC
:10080300F8760F7B007A00793D750D00750E047D37
:07081300017C00120BB6226C
:1003CA00E52160030206D2752101FFEFC394087488
:1003DA00809480500F744B2FF8760A74352FF8E406
:1003EA00F60F80E7E522B40A0040030206D2900322
:1003FA00FFF828287302041D02044E0204BC0205F9
:10040A00580205690205D80205E902060002063EFD
:10041A000206607B007A007924120C8CE524C4540D
:10042A000FF54BE524540FF54CE525C4540FF54E52
:10043A00E525540FF54FE526C4540FF551E526542A
:10044A000FF55222754B0BE4FBFA79207841AF3451
:10045A00AE33AD32AC311201271202027C007D0AA2
:10046A001203868D4FAF34AE33AD32AC3112020275
:10047A007C007D0A1203868D50753A01E4FFFE7DE9
:10048A00207C41AB34AA33A932A83112001E1202D1
:10049A00027C007D0A1203868D51E4FFFE7DC87C32
:1004AA0042AB34AA33A932A83112001E1202020248
:1004BA000634AF567E007C007D0A12031F7D33127C
:1004CA0003867C007D0A12031F8E088F09AF577EB0
:1004DA000012031F7D331203867C007D0A12031F5C
:1004EA00AB07AA06754B0CAE08AF097D641203313F
:1004FA007C007D0A1203318D4C753601AE08AF09B6
:10050A007C007D0A1203317C007D0A1203318D4D75
:10051A00AE08AF097C007D0A1203318D4E7C007D46
:10052A0064AF03AE021203317C007D0A1203318DDF
:10053A0050753A017C007D0AAF03AE021203317C8A
:10054A00007D0A1203318D51AE02AF038076754BDE
:10055A000D754C0D754D0EE530900CBD0206CF9011
:10056A000CCCE493F54B754C12900CCBE493F54DFF
:10057A00AE2AAF2B7C277D101203317C007D0A1234
:10058A0003318D4EAE2AAF2B7C037DE81203317CFA
:10059A00007D0A1203318D4FAE2AAF2B7C007D6499
:1005AA001203317C007D0A1203318D50AE2AAF2B23
:1005BA007C007D0A1203317C007D0A1203318D51C1
:1005CA00AE2AAF2B7C007D0A1203318D5222754B65
:1005DA0012754C14900CC7E493F54DA20180129049
:1005EA000CC8E493F54B900CCBE493F54CF54DA273
:1005FA0000E433F55222754B15754C16E52FFB7C3A
:10060A00007D64FF7E001203867C007D0A12038649
:10061A008D507C007D0AAF037E001203867C007D2C
:10062A000A1203868D51AF2F7E007C007D0A1203C9
:10063A00868D5222754B01900CCBE493F54C900CAD
:10064A00CAE493F54D754F17E52C04F5507441250E
:10065A002CF8E6F55222E52D04F54B743D252DF8CC
:10066A00E6FF75F00A120283F54DEF75F00A1202E1
:10067A008385F04EAF3DEF3395E0FE74BD2FF582D2
:10068A00740C3EF583E493F54FAF3EEF3395E0FEED
:10069A0074BD2FF582740C3EF583E493F550AF3F99
:1006AA00EF3395E0FE74BD2FF582740C3EF583E4BA
:1006BA0093F551AF40EF3395E0FE74BD2FF5827488
:0806CA000C3EF583E493F552A8
:0106D2002205
:03001B0002081ABE
:10081A00C0E0C0F0C083C082C0D075D000C000C0A4
:10082A0001C002C003C004C005C006C0070521E517
:10083A002164327002F5210523E52364647002F510
:10084A0023052EE52E64087002F52E744B252EF82A
:10085A00E6FD7C007435252EF8E6FB7A00AF2E12F1
:10086A000A317441252EF8E6FDAF2E120BED120E59
:10087A00E21206D31203CAE522640760270529E5B6
:10088A002970020528FFAE28BE0319BFE81675288D
:10089A0000752900AF8CEFAD8AF52AEDF52B758A24
:1008AA0000758C00A201E433FFA200E4FC33FD12C0
:1008BA000CEDD007D006D005D004D003D002D00169
:0D08CA00D000D0D0D082D083D0F0D0E0326A
:1009DE007B007A0079307514007515017D147C004A
:1009EE00120A7C120E61120EA67B007A00793D75FA
:1009FE0014007515047D017C00120A7C120E787BA2
:100A0E00007A007924120AC67F43120D168F577F83
:100A1E0041120D168F56120C588F348E338D328C28
:030A2E003180E52F
:100E1100E4FEEEC3940874809480500FC297EF13E0
:0B0E210092A3EFC313FFD2970E80E7EF
:010E2C0022A3
:100EBB00C29300C29700D29300120E11AF05120E0F
:040ECB0011C293229B
:100B0400E4FDC29300C29700D29300120E11E4FFD9
:100B1400EFC39408748094805011C297EDC313FD01
:100B240030A303430580D2970F80E5C29300C29798
:0C0B340000D29700C2A300D2A300AF05BE
:010B40002292
:060AC6008B0F8A1089115C
:100ACC00E4FD7F8E120EBBE4FCECC39403748094A3
:100ADC0080501EEC25E0FFC374849FFFAB0FAA105F
:100AEC00A9118C827583001202BEFD120EBB0C8004
:080AFC00D87D807F8E020EBB45
:060C8C008B0A8A0B890CA3
:100C9200E4FCECC3940374809480501EEC25E0FFC6
:100CA200C374859FFF120B04AB0AAA0BA90C8C829A
:0A0CB200758300EF1202FD0C80D8DC
:010CBC002215
:040DD5007F057E0018
:100DD900EF1FAA0670011E4A600FE4FDEDC3940CD3
:090DE9007480948050EA0D80F33F
:010DF20022DE
:020D3E00A90703
:100D4000E4FBEBC39408748094805012C294E913BE
:100D50009294120DD5D294E9C313F90B80E47F0568
:050D60007E00020DD928
:100DB200E4FBEBC39408748094805014C294ECC397
:100DC20013FCD294309403430480120DD50B80E2BD
:020DD200AF046C
:010DD40022FC
:100D6500C202D2947F0C7E00120DD9C2947F507EB0
:100D750000120DD9D2947F0A7E00120DD9A2949249
:060D850002120DD5A202CE
:010D8B002245
:100C5800120D657FCC120D3E7F44120D3E120D65BC
:100C68007FCC120D3E7FBE120D3E120DB2A90712A7
:100C78000DB2EFAD01FCEC1201C9E4FBFA79807802
:040C880041020127FD
:040E4700D2A07F05B1
:100E4B00000000000000000000000000000000AEE9
:060E5B00071FEE70EB2200
:080E8F00AF03120C23120DFF4A
:0F0E9700D2A1120E47C2A17F05120E4BC2A0229C
:0C0ECF00C2A1120E47D2A17F05020E4BFB
:020C2300AD071B
:100C2500E4FCECC39408748094805024C2A07F0532
:100C3500120E4BED30E704D2A18002C2A17F05124E
:100C45000E4BD2A0ED25E0FD7F05120E4B0C80D298
:020C5500C2A03B
:010C5700227A
:100D8C00E4FCECC39408748094805017120E47ED69
:100D9C0025E0FD30A103430501C2A07F05120E4BD7
:050DAC000C80DFAF0523
:010DB100221F
:0C0DF300AB05AA04120E977FA0120C237F
:100DFF00120E47A2A1E433FDC2A07F05120E4BAF26
:010E0F0005DD
:010E100022BF
:10000300C2A0EF24FF92A17F05120E4B120E47C22E
:08001300A0D2A17F05020E4BF3
:020D1600AB0729
:100D1800120E977F90120C23120DFF120E8F7F91E7
:100D2800120C23120DFF120D8CAD077F0112000368
:050D3800120ECFAF0513
:010D3D002293
:100BB6008B088A09890A120DF3AF03801FE50E150B
:100BC6000EAE0D7002150D4E601AAB08050AE50A49
:100BD600AA097002050914F91202A5FF120C2312C4
:070BE6000DFF80D9020ECFC4
:100A7C008B0F8A108911120DF3120E8F7FA1120C9D
:100A8C0023120DFFE5151515AE14700215144E60EA
:100A9C0026120D8CAB0F0511E511AA107002051072
:100AAC0014F9EF1202EBE51545146004E4FF800223
:0A0ABC007F0112000380CD020ECF6F
:10001E00EC4D6011E8497017ED33EC3304600DE4DC
:10002E00FCFFFEFD22E933E8330470F802026E1283
:10003E00023958046009E4CC248150062850090284
:10004E000278284003020275C0E0EB4A7044B98082
:10005E0006D0E0FB020264EF4E701CBD8008EBFF81
:10006E00EAFEE9FD80EBE98DF0A4FEE5F002010762
:10007E00E9CDF9EAFEEBFFEF89F0A4FCE5F0CE89BD
:10008E00F0A42EFFE435F0CD89F0A42DFEE435F07A
:10009E008067EF4E7005BD80D780C3EF8BF0A4ACA8
:1000AE00F0EE8BF0A42CFCE435F0F8EF8AF0A42CE3
:1000BE00E5F038FCE433CB8DF0A42CFCE5F03BF8F6
:1000CE00EE8AF0A42CFCE5F038F8E433CF89F0A4E6
:1000DE002CFCE5F038CF3400CE89F0A42FFFE5F0EC
:1000EE003EFEE433C98DF0A42EFEE5F039CD8AF044
:1000FE00A42FFFE5F03EFEE43DFD33D0E0FB5007BC
:10010E000BBB000F020278EC2CFCEF33FFEE33FE3C
:06011E00ED33FD0202506A
:10012400020278EC5D046005E85904700302026E73
:10013400120239580460F6EC4860F2EC7004FDFEDB
:10014400FF22C860DB2481C85009C39860025006AE
:100154000202759850CAF582E9294B4A7005AB82B0
:1001640002026475F0007C1A7880C3EF9BEE9AED6E
:1001740099400DC3EF9BFFEE9AFEED99FDE842F026
:10018400DC23ACF0D0E0FFD0E0FED0E0FDAB822079
:10019400E7101BEB60BAEC2CFCEF33FFEE33FEED03
:1001A40033FD020250E803F830E705C0F075F000B3
:1001B400EF2FFFEE33FEED33FD40B830E7C280AAE7
:1001C40075F020800E75F010800575F0087D007EB6
:1001D400007F003392D530D5031203BCEC334010BA
:1001E400EF33FFEE33FEED33FDEC33FCD5F0ED22BF
:0E01F400E5F0247EA2D513CC92E7CDCEFF22FB
:10020200EDD2E7CD33EC3392D524814006E4FFFEF4
:10021200FDFC22FCE4CFCECDCC24E0501174FF8053
:10022200EDC3CC13CCCD13CDCE13CECF13CF0470F0
:07023200F030D5DE0203BC31
:10023900E9D2E7C933E833F892D5EDD2E7CD33EC0B
:0702490033FC5002B2D52284
:10025000EC30E7100FBF000C0EBE00080DBD00040F
:100260000BEB6014A2D5EB13FCED92E7FD2274FFBB
:10027000FCFDFEFF22E480F8A2D574FF13FC7D8014
:03028000E480EF28
:030000000208D71C
:0C08D700787FE4F6D8FD75815702091EF9
:10028300C2D530F707B2D563F0FF05F030E70CB203
:10029300D5F4048463F0FF05F080018430D502F4C3
:0202A300042233
:1002A500BB010689828A83E0225002E722BBFE0257
:0902B500E32289828A83E493228A
:1002BE00BB010CE58229F582E5833AF583E02250F5
:1002CE0006E92582F8E622BBFE06E92582F8E2223F
:0D02DE00E58229F582E5833AF583E4932259
:1002EB00BB010689828A83F0225002F722BBFE01F2
:0202FB00F322EC
:1002FD00F8BB010DE58229F582E5833AF583E8F037
:10030D00225006E92582C8F622BBFE05E92582C8E2
:02031D00F222CA
:10031F00EF8DF0A4A8F0CF8CF0A428CE8DF0A42EF2
:02032F00FE22AC
:10033100BC000BBE0029EF8DF084FFADF022E4CCB0
:10034100F875F008EF2FFFEE33FEEC33FCEE9DEC79
:10035100984005FCEE9DFE0FD5F0E9E4CEFD22EDBF
:10036100F8F5F0EE8420D21CFEADF075F008EF2F09
:10037100FFED33FD4007985006D5F0F222C398FDFA
:050381000FD5F0EA2297
:10038600C2D5EC30E709B2D5E4C39DFDE49CFCEE92
:1003960030E715B2D5E4C39FFFE49EFE120331C3D6
:1003A600E49DFDE49CFC800312033130D507C3E4D1
:0603B6009FFFE49EFE2201
:0E03BC00C3E49FFFE49EFEE49DFDE49CFC2252
:1008E3000209DEE493A3F8E493A34003F68001F244
:1008F30008DFF48029E493A3F85407240CC8C33316
:10090300C4540F4420C8834004F456800146F6DFE4
:10091300E4800B0102040810204080900B7CE47EED
:10092300019360BCA3FF543F30E509541FFEE493D9
:10093300A360010ECF54C025E060A840B8E493A3A0
:10094300FAE493A3F8E493A3C8C582C8CAC583CACB
:10095300F0A3C8C582C8CAC583CADFE9DEE780BE83
:010BB500003F
:00000001FF
