:1010BF00C0F9A4B0999282F880908883C6A1868ED9
:0C10CF00FFBF8C8E01020408102040803E
:100EF4001059001000100010001000100010001015
:100F04000010104400000000000000000000000079
:100F14000000000010340000000000000000000089
:0C0F2400000000000000C101C184C105F4
:10108500E4F52FF524757928756A1EF571F572F565
:0D10950070F56F756EAA756D4375760A22B1
:10114100538E7F5389F0758A18758CFCC28DD28CB1
:05115100D2A9D2AF227B
:1010DB00121141E5A0541F4480F5A07580FFE5A0D7
:0A10EB00541F44A0F5A0E4F5802294
:100EAD00E5A0541F44C0F5A0EF9010D393F9F58041
:100EBD00E5A0541F44E0F5A09010CFE493F580E534
:100ECD00A0541F44C0F5A08980E5A0541F44E0F54F
:100EDD00A074BF2DF58274103CF583E493F580EB7F
:070EED004A600353807F22DD
:100F3100E4FE7BFFED4C600FA8077401088002C33B
:100F410033D8FC4206800EA8077401088002C3331F
:100F5100D8FCF45206EB6E600CE5A0541F4480F5FA
:050F6100A0EEF4F58094
:010F66002268
:1010A200E4FE7DFFEF60047E1080035306EFED6ED9
:0C10B200600AE5A0541F44A0F5A08E8049
:0110BE00220F
:100E6200E4FFD2B3D2B2D2B1D2B0C2C4D2B4D2B5FC
:100E7200D2C220B3027F0420B2027F05C2C2D2B422
:100E8200D2B5D2C420B3027F0820B2027F0920B3B8
:100E92000520B2027F018F74E5746573FF5574F506
:0A0EA2006BE574F45FF521857473AD
:010EAC002223
:0600030000007F61DFFE3A
:0100090022D4
:100D1E0053890FE4F58BF58DFEEEC3940A7480941F
:100D2E0080500AD290120003C2900E80ECD28E3008
:100D3E009103308FFAC28E308F0DC28FE4F533F5EA
:100D4E0032F531F5308038AF8DEFAD8BFCEC120300
:100D5E002AC004C005C006C0077B007A40799C7883
:100D6E0046AF70AE6FAD6EAC6D12020FD003D002F7
:100D7E00D001D0001201068F338E328D318C30AB04
:100D8E0033AA32A931A830C000C001C002C003ACE2
:100D9E0071AD72EC12032AD003D002D001D0001232
:100DAE0000158F338E328D318C30E4FFFEFDFCAB9F
:100DBE0033AA32A931A8301202AC60025009E4F510
:070DCE0033F532F531F53079
:010DD50022FB
:100C6100D3E579940A74809480500375790AC3E5B9
:100C710079945A74809480400375795AD3E56A94C3
:100C810000748094805003E4F56AC3E56A9450745B
:100C91008094804003756A50D3E57294A6E571642F
:100CA10080947F50067571FF7572A6C3E572945AE0
:100CB100E57164809480400675710075725AE4FF95
:100CC100FE7D207C41AB70AA6FA96EA86D1202ACAB
:100CD1006002500BE4F570F56F756E20756D417F04
:100CE100007E187D1C7C46AB70AA6FA96EA86D12A0
:100CF10002AC400C757000756F18756E1C756D46F1
:100D0100D3E5769401748094805003757601C3E530
:0D0D1100769414748094804003757614224B
:100B9E00E5586003020C607558017F01EFC394089D
:100BAE0074809480500DEF25E02444F8E4F608F6A6
:100BBE000F80E9E52FFD6402604BE4F544F545ED49
:100BCE007038AF33AE32AD31AC30120363AE07E4E2
:100BDE00FFEFC3940874809480501FC374079FFD69
:100BEE00F8EE088002C313D8FC5401FDEF25E02473
:100BFE0044F8760008A6050F80D7E52F640170052E
:100C0E00F552755301E57924FBFDE434FFFC120324
:100C1E002AAB33AA32A931A8301202AC4032E579A0
:100C2E002405FDE433FC12032AAB33AA32A931A802
:100C3E00301202AC60025018AC6AE412032FAB2ED5
:100C4E00AA2DA92CA82B1202AC60025003D20022AE
:020C5E00C200D2
:010C60002271
:10083900E5756003020996757501120E62E56B2470
:10084900FB602724FD606C147003020916240560FF
:100859000302097B052FC3E52F940374809480500C
:100869000302097BE4F52F02097BAF2F7E00EF70AD
:10087900020524EF64014E70020525EF64024E70F3
:10088900020526C3E5249402748094804003E4F5AC
:1008990024C3E5259402748094804003E4F525C3BC
:1008A900E526940374809480500302097BE4F526BD
:1008B90002097BAF2F7E00EF7002D203EF64014E75
:1008C9007012E52514600B04700A740A2579F5790C
:1008D9008002056AE52F6402600302097BE526149C
:1008E90060131460242402600302097B74052572D5
:1008F900F572E48059AF70AE6FAD6EAC6DE4FBFA82
:1009090079207841120015805D05768065AF2F7ECC
:1009190000EF7008300505A201B39201EF64014EA2
:100929007012E52514600B04700A74F62579F579BF
:100939008002156AE52F64027038E52614601514E3
:10094900602E2402702C74FB2572F57274FF3571C8
:10095900F571801EAF70AE6FAD6EAC6DE4FBFA79C8
:100969002078411200118F708E6F8D6E8C6D800210
:100979001576120C61E56B64017006D202F527F554
:0E09890028E52164017006C202F527F5282238
:10048F00E56C6003020838756C01FFEFC3940874C4
:10049F008094805018EF25E02459F87600087610E4
:1004AF00EF25E02434F8E4F608F60F80DE755F00E0
:1004BF00856B60E52F6003020632E524146050045B
:1004CF006003020571AF2EAE2DAD2CAC2B12036362
:1004DF00AB07AA067C007D0A1203F67C007D0A1288
:1004EF0003F68C598D5A7C007D0AAF03AE021203BE
:1004FF00F68C5B8D5C753600753701E4FFFE7D2051
:10050F007C41AB2EAA2DA92CA82B1201068045AF3A
:10051F002EAE2DAD2CAC2B120363AB07AA067C00BD
:10052F007D641203F67C007D0A1203F68C598D5AF6
:10053F007534007535017C007D0AAF03AE021203DE
:10054F00F67C007D0A1203F68C5B8D5CAF2EAE2D10
:10055F00AD2CAC2B1203637C007D0A1203F68C5D6D
:10056F008D5E755F00756011E4FFFE7D7A7C44AB94
:10057F0033AA32A931A8301202AC401DAF33AE32CC
:10058F00AD31AC301203637C037DE81203F67C00BF
:10059F007D0A1203F68C618D62E4FFFE7DC87C42FA
:1005AF00AB33AA32A931A8301202AC401DAF33AE23
:1005BF0032AD31AC301203637C007D641203F67CE4
:1005CF00007D0A1203F68C638D64E4FFFE7D207CB0
:1005DF0041AB33AA32A931A8301202AC401DAF3360
:1005EF00AE32AD31AC301203637C007D0A1203F6DC
:1005FF007C007D0A1203F68C658D66E4FFFEFDFC20
:10060F00AB33AA32A931A8301202AC4016AF33AEC9
:10061F0032AD31AC301203637C007D0A1203F68CCD
:10062F00678D68AF2F7E00EF6401704CF559755AD6
:10063F0012E52514601E04703F755B00755C01E5C3
:10064F007975F00A8475F00A84ADF07565008D66D2
:10065F00E5798019755B00755C02E56A75F00A84AF
:10066F0075F00A84ADF07565008D66E56A75F00A60
:10067F0084ADF07567008D68EF64024E6003020869
:10068F0038F559755A13E526147003020752147082
:10069F000302081424026003020838AB72AA7175B2
:1006AF005B00755C01C3EA6480948050427CFF7DDF
:1006BF00FFAF03AE021203E4AA06AB07C3EB9464C9
:1006CF00EA648094804006756100756211C3EB94F3
:1006DF000AEA648094804006756300756411D3EB59
:1006EF009400EA648094804006756500756611C3B6
:1006FF00EB9464EA6480948040167C007D64AF03C1
:10070F00AE021203F67C007D0A1203F68C638D6431
:10071F00C3EB940AEA6480948040167C007D0AAF94
:10072F0003AE021203F67C007D0A1203F68C658D70
:10073F0066C3EA648094805003020838AE02AF03A8
:10074F00020808755B00755C02E4FFFE7D7A7C444D
:10075F00AB70AA6FA96EA86D1202AC401DAF70AE40
:10076F006FAD6EAC6D1203637C037DE81203F67CF4
:10077F00007D0A1203F68C618D62E4FFFE7DC87C5A
:10078F0042AB70AA6FA96EA86D1202AC401DAF707C
:10079F00AE6FAD6EAC6D1203637C007D641203F619
:1007AF007C007D0A1203F68C638D64E4FFFE7D20CE
:1007BF007C41AB70AA6FA96EA86D1202AC401DAF41
:1007CF0070AE6FAD6EAC6D1203637C007D0A1203C9
:1007DF00F67C007D0A1203F68C658D66E4FFFEFD44
:1007EF00FCAB70AA6FA96EA86D1202AC403BAF7044
:1007FF00AE6FAD6EAC6D1203637C007D0A1203F613
:10080F008C678D6822755B00755C03E57675F00A61
:10081F0084756500F566754000754101E57675F0E4
:09082F000A84AFF07567008F68C0
:01083800229D
:03000B0002099750
:10099700C0E0C0F0C083C082C0D075D000C000C026
:1009A70001C002C003C004C005C006C007056CE54E
:1009B7006C64327002F56C0575E57564647002F558
:1009C700750558E55864967002F5580569AF697E54
:1009D70000BE0106BF2C037569000523E5237002DD
:1009E7000522640845227004F522F523AF23EF257D
:1009F700E02459F8E6FC08E6FDEF25E02434F8E6A4
:100A0700FA08E6FB120EADAF23EF25E02444F8E623
:100A1700FC08E6FD120F31120B9E12048FA200E4B0
:100A270033FF1210A23004031208390578E57870F5
:100A370002057764644577700FE52F6402700363DE
:100A4700450175770075780030021E0528E5287086
:100A5700020527FFAE27BE0716BFD013C2027527B0
:100A6700007528001210858006752700752800304C
:100A7700032DC20485335785325685315585305449
:100A8700052AE52A70020529FFAE29BE1717BF7090
:100A970014C203752900752A00D205D20480067591
:100AA7002900752A00D007D006D005D004D003D07E
:100AB70002D001D000D0D0D082D083D0F0D0E032A5
:100AC700E5696003020B9D756901AC7612032F7B04
:100AD700CD7ACC794C783C120106A804A905AA0660
:100AE700AB07E4FFFE7D207C3F120011AB57AA56EF
:100AF700A955A854120106C004C005C006C007AC1A
:100B070076E412032FE4FBFA7990783F120106D0BE
:100B170003D002D001D000120015E4FBFA79C8789F
:100B2700C01200158F0F8E0E8D0D8C0CE4FFFE7D0D
:100B3700B47C42AB57AA56A955A8541202AC400B35
:100B4700E4F50FF50E750D48750C42E4FFFE7D20A8
:100B57007C41AB57AA56A955A8541202AC60025063
:100B67000BE4F50FF50E750D20750C413001197F5B
:100B7700337E337DA37C40AB0FAA0EA90DA80C12C0
:100B8700010612036312110F120D1E120F9C8F2EF6
:060B97008E2D8D2C8C2B2D
:010B9D002235
:0B1186001210851210DB120AC780FB5C
:0410F500D2A07F0AFC
:1010F900000000000000000000000000000000AE39
:06110900071FEE70EB224F
:0F116B00D2A11210F5C2A17F0A1210F9C2A02260
:0C117A00C2A11210F5D2A17F0A0210F9E8
:020F6700AD07D4
:100F6900E4FCECC39408748094805024C2A07F0AE6
:100F79001210F9ED30E704D2A18002C2A17F0A1252
:100F890010F9D2A0ED25E0FD7F0A1210F90C80D2EC
:020F9900C2A0F4
:010F9B002233
:10101E00E4FCECC394087480948050171210F5ED24
:10102E0025E0FD30A103430501C2A07F0A1210F98D
:05103E000C80DFAF058E
:01104300228A
:03115600120F670E
:101159001210F5A2A1E433FDC2A07F0A1210F9AF63
:011169000580
:01116A002262
:10112900C2A0EF24FF92A17F0A1210F91210F5C292
:08113900A0D2A17F0A0210F907
:10110F00AB0712116B7F901211567F41121156AF20
:0A111F0003120F6712115902117A32
:041067007F057E0083
:10106B00EF1FAA0670011E4A600FE4FDEDC3940C3E
:09107B007480948050EA0D80F3AA
:011084002249
:020FD000A9076F
:100FD200E4FBEBC39408748094805012C294E9132A
:100FE2009294121067D294E9C313F90B80E47F053F
:050FF2007E0002106BFF
:10104400E4FBEBC39408748094805014C294ECC302
:1010540013FCD2943094034304801210670B80E293
:02106400AF04D7
:011066002267
:100FF700C206D2947F0C7E0012106BC2947F507E83
:101007000012106BD2947F0A7E0012106BA294928A
:0610170006121067A2069C
:01101D0022B0
:100F9C00120FF77FCC120FD07F44120FD0120FF725
:100FAC007FCC120FD07FBE120FD0121044A90712A3
:100FBC001044EFAD01FCEC12032AE4FBFA798078C3
:040FCC004102020FCD
:10000E000203CFE86480F8E933E83360110460F04E
:10001E00ED33EC337009E8FCE9FDEAFEEBFF220458
:10002E0060DED3EB9FEA9EE99DE8C2E78CF0C2F753
:10003E0095F0400CE8CCF8E9CDF9EACEFAEBCFFB1F
:10004E0012039A85D0F05804700320D5B3E80470DB
:10005E00075002B2D50203D992D5EC0460F7E4CC76
:10006E00C0E0C398F8603B94186008400DD0E0FBE8
:10007E000203B1E4FBFAC9FC8028E830E406E4C9C7
:10008E00FBE4CAFCE830E305E4C9CACBFCE854073C
:10009E006010F8C3E913F9EA13FAEB13FBEC13FC47
:1000AE00D8F130F52FC3E49CFCEF9BFFEE9AFEEDEA
:1000BE0099FDD0E0FBEF4E4D4C701222DB03020394
:1000CE00D6EC2CFCEF33FFEE33FEED33FDED30E7D7
:1000DE00EB0203B1EF2BFFEE3AFEED39FDD0E0FB64
:1000EE0050130BBB00030203D9ED13FDEE13FEEF0D
:0800FE0013FFEC13FC0203B137
:10010600EC4D6011E8497017ED33EC3304600DE4F3
:10011600FCFFFEFD22E933E8330470F80203CF1238
:10012600039A58046009E4CC248150062850090239
:1001360003D92840030203D6C0E0EB4A7044B980D5
:1001460006D0E0FB0203C5EF4E701CBD8008EBFF36
:10015600EAFEE9FD80EBE98DF0A4FEE5F00201EF91
:10016600E9CDF9EAFEEBFFEF89F0A4FCE5F0CE89D4
:10017600F0A42EFFE435F0CD89F0A42DFEE435F091
:100186008067EF4E7005BD80D780C3EF8BF0A4ACBF
:10019600F0EE8BF0A42CFCE435F0F8EF8AF0A42CFA
:1001A600E5F038FCE433CB8DF0A42CFCE5F03BF80D
:1001B600EE8AF0A42CFCE5F038F8E433CF89F0A4FD
:1001C6002CFCE5F038CF3400CE89F0A42FFFE5F003
:1001D6003EFEE433C98DF0A42EFEE5F039CD8AF05B
:1001E600A42FFFE5F03EFEE43DFD33D0E0FB5007D3
:1001F6000BBB000F0203D9EC2CFCEF33FFEE33FEF2
:06020600ED33FD0203B11F
:10020C000203D9EC5D046005E8590470030203CFC6
:10021C0012039A580460F6EC4860F2EC7004FDFE90
:10022C00FF22C860DB2481C85009C39860025006C5
:10023C000203D69850CAF582E9294B4A7005AB8265
:10024C000203C575F0007C1A7880C3EF9BEE9AED23
:10025C0099400DC3EF9BFFEE9AFEED99FDE842F03D
:10026C00DC23ACF0D0E0FFD0E0FED0E0FDAB822090
:10027C00E7101BEB60BAEC2CFCEF33FFEE33FEED1A
:10028C0033FD0203B1E803F830E705C0F075F00068
:10029C00EF2FFFEE33FEED33FD40B830E7C280AAFE
:1002AC0074F8CC6480CCC86480C8F58204604FC3F9
:1002BC00EB9FF5F0EA9E42F0E99D42F0E89C45F098
:1002CC00603C501DE5825FFFE582D313CB5BCBF422
:1002DC002B5582FB50280ABA002409B9002008804B
:1002EC001DE5825BFBE582D313CF5FCFF4C3132FE5
:1002FC005582FF50090EBE00050DBD00010CC3EB6D
:10030C009FF5F0EA9E42F0E99D42F0E89C45F060D2
:09031C0007CC4820E701B3EC22F4
:1003250075F020800E75F010800575F0087D007E53
:10033500007F003392D530D50312042CEC334010E6
:10034500EF33FFEE33FEED33FDEC33FCD5F0ED225C
:0E035500E5F0247EA2D513CC92E7CDCEFF2298
:10036300EDD2E7CD33EC3392D524814006E4FFFE92
:10037300FDFC22FCE4CFCECDCC24E0501174FF80F1
:10038300EDC3CC13CCCD13CDCE13CECF13CF04708E
:07039300F030D5DE02042C5E
:10039A00E9D2E7C933E833F892D5EDD2E7CD33ECA9
:0703AA0033FC5002B2D52222
:1003B100EC30E7100FBF000C0EBE00080DBD0004AD
:1003C1000BEB6014A2D5EB13FCED92E7FD2274FF59
:1003D100FCFDFEFF22E480F8A2D574FF13FC7D80B2
:0303E100E480EFC6
:03000000020DD618
:0C0DD600787FE4F6D8FD758179020E1DCF
:1003E400EF8DF0A4A8F0CF8CF0A428CE8DF0A42E2D
:0203F400FE22E7
:1003F600C2D5EC30E709B2D5E4C39DFDE49CFCEE22
:1004060030E715B2D5E4C39FFFE49EFE12043AC35B
:10041600E49DFDE49CFC800312043A30D507C3E456
:060426009FFFE49EFE2290
:0E042C00C3E49FFFE49EFEE49DFDE49CFC22E1
:100DE200021186E493A3F8E493A34003F68001F290
:100DF20008DFF48029E493A3F85407240CC8C33312
:100E0200C4540F4420C8834004F456800146F6DFE0
:100E1200E4800B0102040810204080900EF4E47E6E
:100E2200019360BCA3FF543F30E509541FFEE493D5
:100E3200A360010ECF54C025E060A840B8E493A39C
:100E4200FAE493A3F8E493A3C8C582C8CAC583CAC7
:100E5200F0A3C8C582C8CAC583CADFE9DEE780BE7F
:010F300000C0
:10043A00BC000BBE0029EF8DF084FFADF022E4CCA6
:10044A00F875F008EF2FFFEE33FEEC33FCEE9DEC6F
:10045A00984005FCEE9DFE0FD5F0E9E4CEFD22EDB5
:10046A00F8F5F0EE8420D21CFEADF075F008EF2FFF
:10047A00FFED33FD4007985006D5F0F222C398FDF0
:05048A000FD5F0EA228D
:00000001FF
